:020000040800F2
:100000004047002061020008AF3F00085538000853
:10001000AD3F0008C10B0008C751000800000000F8
:100020000000000000000000000000007D43000808
:100030009510000800000000B53F00087F4300084D
:100040007B0200087B0200087B0200087B0200089C
:100050007B0200087B0200087B0200087B0200088C
:100060007B0200087B0200087B0200087B0200087C
:100070007B0200087B020008410D00087B0200089B
:100080007B0200087B0200087B0200087B0200085C
:100090007B0200087B0200087B0200087B0200084C
:1000A0007B0200087B0200087B0200087B0200083C
:1000B0007B0200087B0200087B0200087B0200082C
:1000C0007B0200087B0200087B0200087B0200081C
:1000D0007B0200087B0200087B0200087B0200080C
:1000E0007B0200087B0200087B0200087B020008FC
:1000F0007B020008394400087B0200087B020008EC
:100100007B0200087B0200087B0200087B020008DB
:100110007B0200087B0200087B0200087B020008CB
:100120007B0200087B0200087B0200087B020008BB
:100130007B0200087B0200087B0200087B020008AB
:100140007B0200087B0200087B0200087B0200089B
:100150007B0200087B0200087B0200087B0200088B
:100160007B0200087B0200087B0200087B0200087B
:100170007B0200087B0200087B02000800000000F0
:100180007B0200087B0200081D4B00087B02000870
:100190007B0200087B0200087B0200087B0200084B
:1001A0007B0200087B0200087B02000800F002F8D6
:1001B00000F047F80AA090E8000C82448344AAF1BA
:1001C0000107DA4501D100F03CF8AFF2090EBAE8B8
:1001D0000F0013F0010F18BFFB1A43F0010318477B
:1001E000305C0000505C0000103A24BF78C878C131
:1001F000FAD8520724BF30C830C144BF04680C602D
:10020000704700000023002400250026103A28BF74
:1002100078C1FBD8520728BF30C148BF0B60704778
:10022000642900F02181752900F01E81732900F0F6
:100230002484002070471FB505F038FD1FBD10B5A0
:1002400010BD00F01EFC1146FFF7F5FF05F0E2F9C6
:1002500000F03CFC03B4FFF7F2FF03BC00F044FCE9
:100260000948804709480047FEE7FEE7FEE7FEE74A
:10027000FEE7FEE7FEE7FEE7FEE7FEE70448054986
:10028000054A064B7047000029440008AD010008EC
:100290004007002040470020402700204027002042
:1002A00053EA020C00F069802DE9F04B4FF0000694
:1002B000002B1FBFB3FA83F503FA05F424FA05F601
:1002C0005E4012BF1643B2FA82F502FA05F4C5F198
:1002D00020051EBF22FA05FC44EA0C04203556EA2C
:1002E000044C4FEA144418BF641C4FF000084FF050
:1002F0000009904271EB030C39D3002919BFB1FA00
:1003000081F701FA07F6B0FA80F700FA07F6C7F1AD
:1003100020071EBF20FA07FC46EA0C062037B6FB72
:10032000F4FCA7EB0507103F07F01F0BCBF12006ED
:100330000CFA0BFB2CFA06F644BFB3460026202F1E
:10034000A4BF5E464FF0000B5BEA060C08BF4FF0FF
:10035000010B19EB0B09ABFB027C48EB0608C01B39
:1003600006FB02CC0BFB03CC71EB0C01C1E70B4687
:10037000024641464846BDE8F08B13B54FF00000F9
:100380004FF00001AFF30080BDE81C407047000053
:100390000FB47CB50C0009AA009001D02044401E87
:1003A000084B7B4469460190089800F034FB0546F1
:1003B0001CB10020694600F041FB28467CBC5DF87A
:1003C00014FB0000A106000070B5044685690068B2
:1003D000C10601D5302600E02026C00707D070BD39
:1003E000D4E9012130469047206A401C20626D1EEE
:1003F000F6D570BD70B5044685690078C00707D191
:1004000070BDD4E9012120209047206A401C206261
:100410006D1EF6D570BD70B50C460546012A05D097
:100420002878800600D5EA69002302E0012305E070
:100430005B1C934202D2E05C0028F9D1A869E6185F
:10044000C01AA861286A184428622846FFF7BCFF32
:1004500004E0D5E9012114F8010B9047B442F8D328
:100460002846FFF7C7FF70BD2DE9F041064600247E
:1004700010687529314616A510D0AFF3008000280A
:1004800002DA404213A507E031688A0701D512A5B8
:1004900002E0490704D511A5012401E0AFF3008073
:1004A00000210A2206F1240709E0B0FBF2FCB0FBB0
:1004B000F2F302FB1C00303078541846491C002827
:1004C000F3D123462A463046BDE8F04100F045BA54
:1004D000000000002D0000002B00000020000000A4
:1004E0002DE9F05F894604464FF0000ADFF874B149
:1004F000FB44C0F820A02046E1688847002874D05B
:10050000252806D0D4E901219047206A401C2062AA
:10051000F1E700265F462046E16888472028054627
:1005200007DB312D05D2781910F8200C08B10643ED
:10053000F1E7B00701D526F00406C4F81CA0002797
:10054000C4F818A02A2D09D0284605F05BF838B366
:1005500004EB8708303DC8F8185019E059F8041B1F
:10056000204604EB87029161E1688847012F054628
:1005700018D1E069002820DA26F020061DE0D8F81E
:10058000180000EB800005EB40003038C8F8180078
:100590002046E1688847054605F034F80028EED18A
:1005A000012F0AD02E2D08D12046E16888477F1CF4
:1005B0000546022F46F02006C4DBA069002803DAB6
:1005C000404246F00106A061F00701D026F0100677
:1005D0006C2D0BD0682D09D04C2D39D06A2D35D01B
:1005E000742D35D07A2D33D016E038E0E1682F46EF
:1005F00020468847B842054609D16C2F26D04FF4D3
:100600008060E168064320468847054604E06C2F79
:100610001AD04FF4807006430DB3A5F1410019289C
:1006200002D8203546F400664A4629462046266010
:100630004E46FFF7F5FD80B101280BD0F61D26F0E0
:10064000070000F1080956E74020E4E78020D8E7DA
:100650000020D6E706F104094DE7284652E7206A54
:10066000BDE8F09F0859000040EA010370B59B0700
:100670002ED14FF00136042A2AD308C810C99D1B79
:100680009D43121F15EAC61517D0D8B2E1B2401A21
:1006900050EA056110D198B2A1B2401A50EA054162
:1006A0000AD123F07F4024F07F41401A50EA05210F
:1006B00002D1180EA0EB146070BDA342DBD018BAB3
:1006C00021BA884201D9012070BD4FF0FF3070BDC2
:1006D0000AB9002070BD10F8013B11F8014B63B15D
:1006E000A3420AD1521E08D010F8013B11F8014B69
:1006F0001BB1A34201D1521EEDD1181B70BD032ABC
:1007000040F2308010F0030C00F0158011F8013B2E
:10071000BCF1020F624498BF11F801CB00F8013B15
:1007200038BF11F8013BA2F1040298BF00F801CBD9
:1007300038BF00F8013B11F0030300F02580083AB0
:10074000C0F0088051F8043B083A51F804CBA0E807
:100750000810F5E7121D5CBF51F8043B40F8043B5C
:10076000AFF30080D20724BF11F8013B11F801CB91
:1007700048BF11F8012B24BF00F8013B00F801CB62
:1007800048BF00F8012B704710B5203AC0F00B802D
:10079000B1E81850203AA0E81850B1E81850A0E885
:1007A0001850BFF4F5AF5FEA027C24BFB1E81850DF
:1007B000A0E8185044BF18C918C0BDE810405FEA4F
:1007C000827C24BF51F8043B40F8043B08BF7047CB
:1007D000D20728BF31F8023B48BF11F8012B28BFD0
:1007E00020F8023B48BF00F8012B70474FF0000291
:1007F0000429C0F0128010F0030C00F01B80CCF133
:10080000040CBCF1020F18BF00F8012BA8BF20F8A0
:10081000022BA1EB0C0100F00DB85FEAC17C24BFF4
:1008200000F8012B00F8012B48BF00F8012B70479E
:100830004FF0000200B5134694469646203922BF79
:10084000A0E80C50A0E80C50B1F12001BFF4F7AFC4
:10085000090728BFA0E80C5048BF0CC05DF804EBA6
:10086000890028BF40F8042B08BF704748BF20F814
:10087000022B11F0804F18BF00F8012B704710B504
:10088000044610F0030F08BF11F0030F40F015806D
:100890004FF0013E121FC0F20E8051F8043BA3EB53
:1008A0000E0C2CEA030C1CEACE1C08BF40F8043BDB
:1008B000F0D0A1F1040102F10402521E08DB11F88C
:1008C000013B002B00F8013BF7D11146FFF78EFFEB
:1008D000204610BD4FF0013C50F8042B51F8043B6A
:1008E0009A4221D1A2EB0C03934313EACC1317D104
:1008F00050F8042B51F8043B9A4215D1A2EB0C039B
:10090000934313EACC130BD150F8042B51F8043B5A
:100910009A4209D1A2EB0C03934313EACC13DBD028
:100920004FF00000704700BFD01A01BAB1FA81F150
:1009300001F0180122FA01F0CB40C1F12001DBB235
:10094000C0B2C01A2CFA01F3D11A914311EAC311B3
:10095000E6D170477047704770472DE9F0470D4664
:1009600099469246044600F124080168880604D599
:10097000E06921F01001216000E00120A84201DDC2
:10098000471B00E00027A1697A1902EB0900081A49
:10099000A0612078C00602D42046FFF715FD00268E
:1009A00008E0D4E901211AF806009047206A401CAB
:1009B000761C20624E45F4DB2078C0060AD520461E
:1009C000FFF702FD06E0D4E9012130209047206ABC
:1009D000401C2062381EA7F10107F4DC07E0D4E9CF
:1009E000012118F805009047206A401C2062281E4B
:1009F000A5F10105F3DC2046FFF7FCFC207800069A
:100A000002D50220BDE8F0870120FBE701694A1CFE
:100A100002610878704700B58FB0CDE9013100213F
:100A2000059105497944CDE9031011466846FFF761
:100A300057FD0FB000BD0000E5FFFFFF0A6802F898
:100A4000010B0A607047D1E900239A4202D2531C7D
:100A50000B601070704710B5436913B1AFF300809D
:100A600001E0FFF7D8FC012010BD127800F124014D
:100A70000A7000224A700122EDE711684FF0FF3240
:100A8000E9E7754600F02CF8AE4605006946534686
:100A900020F00700854618B020B5FFF7EFFBBDE852
:100AA00020404FF000064FF000074FF000084FF0D5
:100AB000000B21F00701AC46ACE8C009ACE8C00966
:100AC000ACE8C009ACE8C0098D46704710B50446D3
:100AD000AFF300802046BDE81040FFF7BBBB00002D
:100AE00000487047DC06002001491820ABBEFEE735
:100AF000260002007047000010B58EB01C21684629
:100B0000FFF796FE142107A8FFF792FE2048002465
:100B1000016841F002010160006800F002000C90E1
:100B20001B481030016841F004010160006807A90A
:100B300000F004000C90402007900220CDE908044A
:100B4000CDE90A40134800F035FD14481249016010
:100B500040F28331C0E901146321C0E9031480210C
:100B6000816102F0F6FA80B96020CDE900040294B8
:100B7000002269460948049402F085FA28B9002148
:100B8000064802F029FB002800D001200EB010BD5D
:100B90003038024000040240000800407403002086
:100BA000642800D96420642110FB01F0B0FBF1F04F
:100BB0000249096848630020704700007403002060
:100BC000FEE70000194808B5016841F00101016025
:100BD000016801F001010091016841F0020101602A
:100BE000016801F002010091016841F00401016017
:100BF000016801F004010091016841F00801016001
:100C0000016801F008010091016841F020010160D4
:100C1000016801F020010091016841F0400101608C
:100C2000006800F04000009008BD0000303802402D
:100C30002DE9F04F85B014216846FFF7F9FDFFF765
:100C4000C1FFDFF88CB0002425464FF001090BF1FD
:100C5000400A0BEBC4075E46B9885BF834000022FB
:100C600000F0CFFDB8880090CDE9019503954F467F
:100C700056F83400694600F09DFC0AEBC40856465D
:100C8000B8F804105AF83400002200F0BAFDB8F8A1
:100C900004000090CDE90175039556F834006946CB
:100CA00000F088FC0A48803000EBC40189888DE898
:100CB000A200039550F83400694600F07BFC641CE8
:100CC000E4B2082CC5D305B00020BDE8F08F0000C9
:100CD000045D000810B5082808D2064A02EBC001DE
:100CE00052F83000898800F07FFD08B1002010BD67
:100CF000012010BD845D000810B5082801D306202E
:100D000010BD054B0A4603EBC00153F8300089883B
:100D100000F077FD002010BD445D000810B50828E4
:100D200001D3062010BD054B0A4603EBC00153F862
:100D30003000898800F065FD002010BD045D0008CA
:100D4000014800F08BBA000014030020016818234A
:100D5000CAB2103AB2FBF3F2054B6FF30901032A52
:100D60009B5CC36500D9091D81650846704700007A
:100D7000B65C000810B5014600208B698A6A4FF006
:100D8000C07453B1B3F5005F15D072B1012A0CD015
:100D9000022A0AD0032A09D104E01AB1012A06D096
:100DA000022A03D1C96AC90100D5012010BDC96A50
:100DB000A142FAD010BD002AF7D0012AF2D0022AAF
:100DC000F3D0032AF3D010BD70B5154EA2B07488CD
:100DD000812C00D38024224612496846FFF78FFCFD
:100DE0000025684601E0641EA4B20555A4B10119AE
:100DF00011F8011C0D29F6D00A29F4D0716901B14E
:100E0000884708486B4608A2A0218030FFF7C0FA47
:100E10000448803000F014F9357022B070BD000035
:100E200028000020DC0400204F55543A4C4F473A2C
:100E300052585F4F4B202D3E2025730070B598B15E
:100E40000A4C002560602570658000F0DFFCA06022
:100E500000F0DCFCC4E90305657000F011F904A0A2
:100E600000F0EEF8002070BD012070BD28000020C9
:100E70004F55543A4C4F473A64656275675F6C69E9
:100E80006E6B20696E697469616C697A65642C2087
:100E900055415254372074657374206D6F6465003A
:100EA00010B500F0B3FC0E4C41F28832E168411AF3
:100EB000914213D3E060607830B1012809D009A0D5
:100EC00000F0BEF8002008E00CA000F0B9F8012006
:100ED00003E00FA000F0B4F80220607010BD000025
:100EE000280000204F55543A4C4F434B45523A315D
:100EF0003A4C45445F424C494E4B00004F55543AE2
:100F00004C4F434B45523A313A4F50454E0000004A
:100F10004F55543A4C4F434B45523A313A434C4F5C
:100F20005345440030B593B000F070FC194CA168F3
:100F3000411AB1F57A7F2AD3A06020694FF461612C
:100F4000401CB0FBF1F11822B1FBF2F302FB1313CA
:100F50003C21B0FBF1F2B2FBF1F501FB1522B0FB35
:100F6000F1F5206101FB1500CDE900200AA2A021C6
:100F70001048FFF70DFA0F4800F062F80EA240216A
:100F800002A82369FFF704FA02A800F059F813B089
:100F900030BD0000280000204F55543A434C4F43C9
:100FA0004B3A2530326C753A2530326C753A253023
:100FB000326C75005C0500204F55543A4D53473A4A
:100FC000554152543720746573742072756E6E6982
:100FD0006E672028256C752073290000054810B520
:100FE000007808B1FFF7F0FEFFF79CFFBDE8104066
:100FF000FFF756BF280000200149486170470000F4
:101000002800002070B50C4D0C466968884211D14B
:1010100064B1802C0AD2287840B90849224601F1EF
:101020008000FFF76CFB6C8001202870BDE87040E9
:1010300000F026B870BD0000280000205C040020ED
:1010400010B50C4C616899B190B103460AA2A02179
:101050000A48FFF79DF900280ADDA02800DB9F2041
:1010600082B264230549606802F0A3FB002800D027
:10107000012010BD2800002025730A005C05002017
:10108000034880220149406802F01FB95C04002037
:1010900028000020704772B6FEE7F0B5D1E90735A9
:1010A0004C6A0A68C2B102682B4322F4F842144326
:1010B00023430360D1E901231A43D1E903342343D5
:1010C0001A434B6989691A430A4341686FF30E0159
:1010D0000A4342600020F0BDD1E901263243D1E944
:1010E00003673E4332434E69896932430A431A43D8
:1010F0002A43016822436FF30E010A430260E9E7C5
:10110000F0B56FF00F058C8A2E014FEA054ECB68C3
:101110002F034FF07F4C0EEB04540AB31A03A2F5D1
:101120008052836822431D4C23401A438260D1E9D8
:10113000002305EB0313521E1A438B6806EB0323AF
:101140001A430B8A097E07EB03431A430CEB016138
:101150000A43C16801F070410A43C2600020F0BD3B
:10116000D1E9002E05EB0E15521E2A438D6806EBC1
:1011700005252A430A4D05EB03331A430B8A097EE2
:1011800007EB03431A4322430CEB01610A438168D6
:1011900001F070410A438260E0E70000FF0F0FFF9B
:1011A00000F0FFFF2DE9F0410446876D00F02EFBB3
:1011B000064694F835000025022806D08020606598
:1011C00084F834500120BDE8F0812068016821F0E6
:1011D000160101602068416921F080014161206CA5
:1011E00008B9A06C20B12068016821F008010160F5
:1011F0002068016821F0010101600CE000F006FBAD
:10120000801B052807D920206065032084F835005D
:1012100084F83450D7E720680068C007EED194F80E
:101220005C103F208840B860012084F8350084F8C5
:1012300034500020C7E790F83510022903D08021F0
:10124000416501207047052180F83510006801686C
:1012500021F0010101600020704700002DE9F843F2
:1012600004464FF00009CDF8009063484FF4165142
:10127000A56D0068B0FBF1F72E6894F85C100820AB
:1012800000FA01F131420FD021680A6852070BD5EC
:101290000A6822F004020A6094F85C108840A86092
:1012A000606D40F00100606594F85C104FF001083B
:1012B00008FA01F0304208D021684969090604D5CE
:1012C000A860606D40F00200606594F85C10042036
:1012D0008840304208D021680968890704D5A86091
:1012E000606D40F00400606594F85C101020884048
:1012F000304218D021680968090714D5A860206811
:101300000168490304D50068000308D5A16C07E013
:101310000168C90503D4016821F008010160216C4E
:1013200009B12046884794F85C102020884030425C
:1013300031D021680968C9062DD5A86094F8350018
:1013400005282068016806D0490347D500680003D6
:101350001DD4616C1CE021F0160101602068416918
:1013600021F080014161206C08B9A06C20B1206897
:10137000016821F00801016094F85C103F2088406A
:10138000A86084F8358084F83490216D1FE0E16B0B
:1013900009B120468847606D00282BD0606DC007DA
:1013A00014D0052084F835002068016821F001017F
:1013B00001600098401C0090B84203D82068006883
:1013C000C007F6D184F8358084F83490E16C0029A8
:1013D00010D001B02046BDE8F04308470168C905B8
:1013E000D5D4016821F01001016084F8358084F8BB
:1013F0003490CCE7BDE8F883200000202DE9F041CF
:10140000044600F003FA06465CB1022084F8350079
:10141000002584F834502068016821F00101016042
:101420000DE00120BDE8F08100F0F0F9801B0528F7
:1014300005D920206065032084F83500F2E7206894
:101440000068C007F0D12268116820480140D4E943
:1014500001031843D4E9033633431843636918433F
:10146000A3691843E3691843236A18430843616A70
:10147000042903D1D4E90B131943084310602068F1
:101480004069666A20F0070130460E4301270428B0
:101490000CD1A06A0643E06A40B12046FFF76AFC1F
:1014A00020B14020606584F83570BAE72068466155
:1014B0002046FFF74BFC94F85C203F21914081606F
:1014C000656584F835700020ACE700003F8010F0BF
:1014D00070B5044600F09AF90546601C02D0044835
:1014E0000078044400F092F9401BA042FAD370BD8A
:1014F00014000020F0B587B014216846FFF798F972
:1015000025480168002944D10121016023480024B5
:10151000016841F0010101600068022500F001004E
:1015200005904FF63F00CDE9000502AA03260C27DF
:1015300082E8D00069461A4800F03CF80D20CDE959
:10154000000502AA694682E8D000164800F032F889
:1015500048F23310CDE9000502AA694682E8D000BE
:10156000114800F027F84FF68370CDE9000502AA74
:10157000694682E8D0000D4800F01CF84CF2037078
:10158000CDE9000502AA694682E8D000084800F0CB
:1015900011F807B0F0BD00000C0000203838024000
:1015A00000140240000802400018024000100240EF
:1015B000000C02402DE9F84FDFF8F8A100220124C9
:1015C00003254FF00F090AF1040BAAF1040E00BF26
:1015D0000B6804FA02F63340B34270D10F7907F07A
:1015E0000307012F01D0022F16D187684FEA420866
:1015F00005FA08FC27EA0C07D1F80CC00CFA08FC25
:101600004CEA070CC0F808C04768B7430E79C6F328
:10161000001696403E4346600E79F643B6070AD060
:10162000C7684FEA420C05FA0CF6B7438E6806FA13
:101630000CF63E43C6600E7906F00306022E10D16A
:10164000D60800EB8608D8F8206057074FEAD76C19
:1016500009FA0CF7BE430F6907FA0CF73743C8F8CD
:10166000207006684FEA420C05FA0CF7BE430F796A
:1016700007F0030707FA0CF7374307604E6816F4C4
:10168000403F1CD04C4E376847F48047376036687F
:1016900022F0030706F480460096484E07EB060C3E
:1016A000DCF8086897073F0F09FA07F826EA0806EA
:1016B000DFF80C81404503D14FF0000841E072E0B3
:1016C000DFF80081404502D14FF0010839E0DFF832
:1016D000F880404502D14FF0020832E0DFF8EC809C
:1016E000404502D14FF003082BE0DFF8E48040458D
:1016F00002D14FF0040824E0DFF8D880404502D141
:101700004FF005081DE0DFF8D080404502D14FF0D2
:10171000060816E0DFF8C480404502D14FF0070804
:101720000FE0DFF8BC80404502D14FF0080808E028
:10173000DFF8B080404502D14FF0090801E04FF0DA
:101740000A0808FA07F848EA0608CCF80888DAF820
:1017500000605746D1F804C09E435FEACC2C00D508
:101760001E433E60DBF800605F46D1F804C09E4334
:101770005FEA8C2C00D51E433E60DEF800607746A1
:10178000D1F804C09E435FEA8C3C00D51E433E6006
:10179000084F083F3E68D1F804C09E435FEACC3C46
:1017A00000D51E433E60521C102AFFF411AFBDE865
:1017B000F88F0000083C01404438024000300140EE
:1017C000000002400004024000080240000C0240F9
:1017D000001002400014024000180240001C0240A9
:1017E00000200240002402400069084000D001208F
:1017F0007047426921EA02030A4043EA02418161DB
:1018000070470AB1816170470904FBE701488068AD
:10181000704700001400002090F83D20202A01D0DD
:1018200002207047242280F83D200268136823F0CC
:10183000010313600268536A23F0100353620268C5
:10184000536A0B43536201680A6842F001020A605E
:10185000202180F83D100020704790F83D20202A7C
:1018600001D002207047242280F83D2002681368CE
:1018700023F00103136003685A6A22F00F020A433F
:1018800091B2596201680A6842F001020A6020219F
:1018900080F83D100020704770B5040025D094F802
:1018A0003D00002520B984F83C50204600F0B8F8EF
:1018B000242084F83D002068016821F001010160C6
:1018C0002068016841F4004101602068016821F44A
:1018D0000041016000F0DEFC4D4A6168914201D890
:1018E0004C4900E04C49884201D2012070BD4B496F
:1018F0002368B0FBF1F15E6826F03F060E435E60A0
:101900006368934206D94FF4967359434FF47A7340
:10191000B1FBF3F12368491C1E6A26F03F063143F0
:1019200019626168914210D84900401EB0FBF1F283
:10193000521CC2F30B02042A01D2042022E0B0FBA5
:10194000F1F0401CC0F30B001CE0A268F2B301EB05
:10195000C10303EB0116431EB3FBF6F35B1C43F418
:1019600080431B0549D092B301EBC10202EB011188
:10197000401EB0FBF1F0401CC0F30B0040F480406F
:1019800040F400402168CA694CF6FF739A43104343
:10199000C861D4E9071001432068026822F0C00240
:1019A00011430160D4E9030101432068826848F2D1
:1019B000FF339A4311438160D4E90501084321684C
:1019C000CA6822F0FF021043C86001E00EE016E092
:1019D0002068016841F0010101602564202084F83D
:1019E0003D00256384F83E50002070BD01EB4106A8
:1019F000431EB3FBF6F35B1CB3E70120C2E701EB28
:101A00004101401EB0FBF1F0401CC0F30B00B7E7F2
:101A1000A086010080841E0000093D0040420F00A6
:101A2000F0B587B0044614216846FEF701FF1D4952
:101A30002068884233D11C480024016841F0040129
:101A40000160016801F004010591016841F00101A4
:101A500001600068122500F0010005904FF400704D
:101A6000CDE9000502AA0326042782E8D0006946D2
:101A70000E48FFF79FFDB801CDE9000502AA6946AF
:101A800082E8D0000A48FFF795FD0748103001684A
:101A900041F400010160006800F40000059007B007
:101AA000F0BD0000005C00403038024000080240F9
:101AB000000002400248816802781144816070474A
:101AC000140000200B4810B5016841F4007101605A
:101AD000016841F480610160016841F48071016036
:101AE000032000F0C1F90F2000F006F800F076F9AD
:101AF000002010BD003C024070B50D4D04464FF46F
:101B00007A712878B1FBF0F00A490968B1FBF0F06E
:101B100001F00CF948B9102C07D200222146501EC2
:101B200000F082F900206C6070BD012070BD0000E3
:101B300014000020200000202DE9F041044690F818
:101B4000A00016460F4601281DD0012584F8A0509C
:101B5000022084F8A10006EB860000EBC60004EB2F
:101B6000800034223830FEF70FFE324639462046D8
:101B700001F014FF2068456284F8A150002084F829
:101B8000A000BDE8F0810220FBE770B5040004D09E
:101B900094F8A100002510B106E0012070BD84F882
:101BA000A050204600F050F8022084F8A1002068E0
:101BB000816921F070418161D4E901010843D4E9D0
:101BC00003121143084321688A6910438861A08A7F
:101BD000A16941EA004120688160A08B216A41EA45
:101BE00000412068C160A08CA16A41EA00412068E0
:101BF0000161A08D216B41EA00412068416194F8A8
:101C000035002168030294F83600CA6A02F07F4268
:101C1000CA622168CA6A94F8346043EA00403243D9
:101C20000243CA622068416B41F0060141632068AB
:101C3000816941F001018161C4F8A450012084F858
:101C4000A100002070BD00002DE9F04192B00446D3
:101C500014216846FEF7ECFD302105A8FEF7E8FDEB
:101C60005649206888427DD1082005900024322002
:101C70000E94022509900B9505A800F03FF908B1D4
:101C8000FFF709FA4E48016841F080610160006881
:101C900000F0806011904A481438016841F020013A
:101CA0000160016801F020011191016841F001011A
:101CB0000160016801F001011191016841F0020128
:101CC0000160016801F002011191016841F04001D9
:101CD0000160016801F040011191016841F00401C7
:101CE0000160016801F004011191016841F00801EF
:101CF000016000680E2600F0080011904FF480602B
:101D00000090CDE90154CDE9034669462D48FFF71F
:101D100051FC41F658000090CDE90154CDE903464D
:101D200069462948FFF746FC03200090CDE901549D
:101D30000927DFF89880CDE9034769464046FFF759
:101D400039FC4FF470600090CDE90154CDE90346B1
:101D500069464046FFF72EFC4FF40C600090CDE939
:101D6000015400E027E0DFF86880CDE903466946CA
:101D70004046FFF71FFC4FF498600090CDE90154F6
:101D8000CDE9034669461348FFF714FC482000904C
:101D9000CDE90154CDE9034669460F48FFF70AFC37
:101DA0004FF4A0500090CDE90154CDE903476946B6
:101DB0004046FFF7FFFB12B0BDE8F081006801402C
:101DC0004438024000140240000002400004024077
:101DD0000018024000080240000C02400A4808B502
:101DE000016841F480410160006800F48040009087
:101DF0000548001F016841F080510160006800F053
:101E00008050009008BD000044380240002809DBE3
:101E100000F01F02012191404009800000F1E02004
:101E2000C0F8001170470000F0B40E4B1B680C4660
:101E3000C3F30223C3F10705042D00D90425191D9E
:101E4000072901D2002300E0DB1E012606FA05F176
:101E5000491E214099409E40761E16403143F0BCF9
:101E600003F0C0BB0CED00E0064900F00702086873
:101E70004FF6FF03184040EA0220034A104308606F
:101E8000704700000CED00E00000FA052DE9F84372
:101E90001748016841F0805101600068154F00F05B
:101EA0008050012600903E64FFF7B0FC05464FF4D9
:101EB0007A78114C05E000BFFFF7A8FC401B4045B5
:101EC0000DD86068C003F7D57E64FFF79FFC054618
:101ED000464607E0FFF79AFC401BB04202D90320B8
:101EE000BDE8F88360688003F4D50020F8E70000BF
:101EF0004038024000000E42007000402DE9F84FCB
:101F000004460068DFF824A2894F8A4DC1074FF0CC
:101F100001084FF0000603D1810701D4400648D5DF
:101F2000CAF86860FFF772FC814605E0FFF76EFCB7
:101F3000A0EB090002287DD828680001F6D420789B
:101F4000C1077D4805D06168227A890141EA0271A2
:101F500001602178890711D501686268237B9201AD
:101F6000C1F3027142EA036242EA01710160396819
:101F7000E26921F01F01521E1143396021784906A0
:101F800008D56168227B890141EA0261227A41EA2F
:101F900002710160CAF86880FFF738FC814605E0ED
:101FA000FFF734FCA0EB0900022843D828680001A1
:101FB000F6D52068410701D400074ED5CAF87060F5
:101FC000FFF724FC814605E0FFF720FCA0EB0900A9
:101FD00002282FD82868C0438000F5D52078410713
:101FE000564814D501682269237D9201C1F302711C
:101FF00042EA036242EA017101603968226A6FF0C5
:10200000FF0321F4F85103EB0222114339602178D8
:10201000090712D501682269C1F30361920142EAFE
:102020000161227E41EA027101603868616A20F430
:10203000403000E051E008433860CAF87080FFF794
:10204000E5FB074605E000BFFFF7E0FBC01B0228E9
:1020500043D82868C0438000F6D42078800653D542
:1020600034484030016841F0805101600068344DCF
:1020700000F080500090286840F480702860FFF7DE
:10208000C5FB074605E000BFFFF7C0FBC01B0228E9
:1020900023D82868C005F7D5274D143D286810F4CB
:1020A000407020D0218D01F4407181421BD02868FE
:1020B00020F440712348C0F8008006602960286839
:1020C000C00710D0FFF7A2FB064641F2883707E0B1
:1020D000FFF79CFB801BB84202D90320BDE8F88FB4
:1020E00028688007F4D5A16A1248C1F3012208309C
:1020F000032A13D0016821F4F81101602868218DAA
:10210000C1F30B01084328602078C00604D50E49AE
:1021100094F82C00C1F8E0010020DFE702680B4BC7
:1021200022F4F81219400A430260E7E70000474230
:102130008C3802400038024084380240883802401F
:1021400000700040400E474200104742FFFCFF0F66
:10215000704700002DE9F0470E46050065D0DFF816
:102160001481D8F80000F7B200F00F00B04207D297
:1021700088F80070D8F8000000F00F00B04254D189
:1021800028683D4C810712D5400703D5206840F4EC
:10219000E05020602878000703D5206840F46040B4
:1021A00020602068A96820F0F000084320602878AB
:1021B000C0072DD0304968680839012812D002289C
:1021C00013D0032811D00968890700292DDA216866
:1021D00021F0030101432160FFF718FB814641F222
:1021E000883A0EE009688903EFE709688901ECE79E
:1021F000FFF70CFBA0EB0901514502D90320BDE814
:10220000F0872068696800F00C00B0EB810FEFD117
:10221000D8F80010404601F00F01B14207D907700D
:10222000006800F00F00B04201D00120E7E72878F5
:10223000400705D52068E96820F4E0500843206095
:102240002878000706D52068296920F4604040EA14
:10225000C100206000F03EF82168084AC1F3031174
:10226000515CC8400649086006480068FFF744FC16
:102270000020C4E7003C024008380240BE5C000871
:10228000200000201800002001490120C864704788
:10229000000047420448054900680968044AC1F340
:1022A0008221515CC840704720000020083802405D
:1022B000CE5C00080448054900680968044AC1F377
:1022C0004231515CC840704720000020083802406D
:1022D000CE5C0008154810B5006810F00C021448D8
:1022E00013D04110042A0FD0082A0ED10F4C241FFE
:1022F0002268236802F03F025B0207D52068C0F322
:102300008810A0FB010106E0084610BD2168C1F35A
:102310008811A1FB00010023FDF7C2FF2168C1F372
:102320000141491C4900B0FBF1F010BD08380240E2
:102330000024F400054810B50068000605D5FFF735
:1023400007FF02498020891C087010BD0C3802402C
:102350002DE9F84F04006ED02078DFF84C93C007C9
:10236000A9F104054AD009F104000168C1F3810113
:10237000012908D00068C0F3810002280AD1D9F8E9
:102380000000400206D52868800337D56068002821
:10239000E1D033E06068B0F5803F10D0B0F5A02FF9
:1023A000286810D020F480302860286820F480202D
:1023B00028606068A8B1FFF729FA06460DE0286892
:1023C00040F48030F4E740F480202860F7E700BF55
:1023D000FFF71CFA801B642873D828688003F7D5A0
:1023E0000CE0FFF713FA064605E000BFFFF70EFA10
:1023F000801B6428F0D828688003F7D42078DFF8A1
:10240000AC8280074FF0000A3ED5A748001D016846
:1024100011F00C0F08D00068C0F3810002280BD126
:10242000D9F80000400207D42868800716D5E06874
:10243000012800D112E033E1E068B8B10120C8F80A
:102440000000FFF7E3F9064605E000BFFFF7DEF9FD
:10245000801B0228C0D828688007F7D52868216922
:1024600020F0F80040EAC10028600DE0C8F800A0A4
:10247000FFF7CCF9064604E0FFF7C8F9801B0228F5
:102480001FD828688007F7D42078000722D5864F08
:1024900087486169703771B101210160FFF7B6F9B2
:1024A000064604E0FFF7B2F9801B022809D8386815
:1024B0008007F7D50EE0C0F800A0FFF7A7F90646A1
:1024C00005E082E0FFF7A2F9801B02287DD838687A
:1024D0008007F7D42078400768D5DFF8CCB1002713
:1024E0000BF13C0BDBF80000C0000BD4DBF8001054
:1024F00041F08051CBF80010DBF80000012700F01C
:10250000805000906B4E3068C00510D4306840F4A5
:1025100080703060FFF77AF9009005E0FFF776F9F8
:102520000099401A022850D83068C005F6D55E4E92
:10253000A0686C3601280FD00528306810D020F034
:1025400001003060306820F004003060A068B8B14D
:10255000FFF75CF900900FE0306840F00100F4E70D
:1025600040F004003060F7E7FFF750F90099411A96
:1025700041F28830814266D830688007F4D50EE099
:10258000FFF744F9009007E0FFF740F90099411A7E
:1025900041F28830814256D830688007F4D42FB198
:1025A000DBF8001021F08051CBF80010A069C8B30F
:1025B0003D49091D0968C1F3810102294AD0022859
:1025C000504607D0C8F8600000E03CE0FFF71EF975
:1025D00004463BE04746C8F86000FFF717F9064697
:1025E00005E000BFFFF712F9801B02282BD82868EE
:1025F0008001F7D4D4E907010843A16A2E4A4908AB
:1026000002EB0141626A41EA8211084394F82C10FE
:1026100040EA0161C9F8001001203866FFF7F6F8BA
:10262000044606E03EE000BFFFF7F0F8001B02287A
:1026300009D828688001F7D534E000BFFFF7E6F835
:10264000001B022802D90320BDE8F88F286880010A
:10265000F4D427E00128F7D0D9F80000E26900F4AB
:10266000800191421CD1226A00F03F01914217D1B2
:1026700047F6C071626A0140B1EB821F10D1A26AB5
:102680004FF0FF3300F4403103EB5202B1EB024F45
:1026900006D194F82C1000F07060B0EB016F01D0FF
:1026A0000120D1E70020CFE7043802400000474274
:1026B000800E4742007000400000FFFF006850306D
:1026C00050F8210070470068503040F821207047D2
:1026D00010B500680B4641680D480140080CD870E1
:1026E000C1F304245C7001F03F049C70C1F34231DB
:1026F000197052B901F05FFCD870587801F05BFC9A
:102700005870987801F057FC9870002010BD0000B8
:102710003FFFFF0010B50B460168896A59600168E8
:102720000969C1F30E019960006801680D48014014
:10273000C1F305401870C1F306245C7001F07F04FA
:102740009C70890DD97052B901F035FC1870587819
:1027500001F031FC5870987801F02DFC9870002041
:1027600010BD00007F7F7F0010B5040002D0607FA5
:1027700010B106E0012010BD00202077204600F0B7
:1027800041F8022060772068C168C943C90632D584
:10279000CA214162216853204862204601F020FC92
:1027A00020BB20688168164A1140816021688868D2
:1027B00062681043D4E904231A43104388602168F7
:1027C000E068086120680169228941EA02410161EB
:1027D000204601F029FC48B921680A6C22F48022C5
:1027E0000A6421680A6CA3691A430A642268FF21FB
:1027F000516208B110BD00200121617710BD0000B9
:10280000BFFF8FFF10B58CB0044630216846FEF73D
:102810000FF80949206888420CD120200090C000A0
:102820000A906846FFF76AFB08B1FEF734FC0349DB
:10283000012008600CB010BD002800403C0E47424B
:1028400070B50446007F0B46012819D00126267773
:1028500002206077B2B19878D97840EA014558787B
:102860001978000240EA413005432168CA204862D5
:10287000216853204862204601F0B2FBD0B122E02B
:10288000022070BD5878C10603D500F0EF000A3071
:102890005870D87801F098FB0204587801F094FB46
:1028A00042EA0022987801F08FFB0243187842EA4E
:1028B0004035DAE70748054020684560204601F0CA
:1028C000B3FB00B966772268FF21516200212177AE
:1028D00070BD00003FFFFF002DE9F0410446007F7E
:1028E0000D46012823D04FF0010884F81C800220F7
:1028F00060772068002780684FEA4060D2B10028E6
:1029000000DBEF70A878297840EA01466878E9781A
:10291000000240EA815006432168CA2048622168CB
:1029200053204862204601F05BFBB8B12CE0022046
:10293000BDE8F081002800DBEF70287801F044FB4F
:102940000204687801F040FB42EA0022A87801F016
:102950003BFB0243E87842EA8056DDE70D4806403B
:10296000206806602068816821F480218160D5E9B3
:102970000301084321688A6810438860204601F0FB
:1029800053FB08B984F81D802268FF215162277724
:10299000CEE700007F7F7F0070B504460B482168BA
:1029A000C860FEF733FF05464FF47A7607E000BFB4
:1029B000FEF72CFF401BB04201D9032070BD2068F8
:1029C000C0688006F4D5002070BD00005F7F010064
:1029D00070B50D46040003D094F82C0010B107E048
:1029E000012070BD002084F82D00204600F011F871
:1029F000022084F82C00211D2068FEF74EFBD4E94C
:102A000000022946FEF77CFB012084F82C00002000
:102A100070BDFEF76FBD70B5040009D0606A002577
:102A200040B125616561A56294F8510040B10CE0A8
:102A3000012070BD6068B0F5827FF4D0E561F2E7F7
:102A400084F85050204600F045F8022084F85100E8
:102A50002068016821F040010160A088218900F40C
:102A6000827001F404410843A18901F40061084324
:102A7000217C01F002010843217D01F0010108439E
:102A8000218B01F400710843217F01F038010843D4
:102A900094F8201001F080010843218D01F40051C9
:102AA000084321680860A069042101EA104094F8F5
:102AB000241001F010010843216848602068C169B2
:102AC00021F40061C1616565012084F85100002096
:102AD00070BD000010B586B0044614216846FDF7AD
:102AE000A7FE13492068884220D1124800210268BD
:102AF00042F480520260006800F4805005900D4856
:102B00001438026842F002020260006800F002001D
:102B10000590382000900220CDE9010103200390A8
:102B20000520049069460448FEF744FD06B010BD38
:102B30000030014044380240000402402DE9FF4FBC
:102B400081B01D46934604464FF001090E9EFEF7E4
:102B50005DFE074694F851006168012806D0B1F582
:102B6000827F3CD1A168C9BB042838D102980028D3
:102B700071D0BBF1000FFBD0002DF9D094F85000BC
:102B800001282CD04FF0010A84F850A094F851008D
:102B9000042802D0052084F851004FF00008C4F842
:102BA0005480C4F838B0E587A58702992163E5868B
:102BB000A586C4F84080C4F84480206801684906AE
:102BC00003D4016841F040010160E068B0F5006F96
:102BD000606808D0F0B3012D49D081E0FFE7022002
:102BE00005B0BDE8F08F08B1012D39D1206B216807
:102BF0000088C860206B801C2063E08E401EE08649
:102C00002EE02068816889070FD5E18E69B1B9F19E
:102C1000010F0AD1216B0988C160206B801C2063E1
:102C2000E08E401EE0864FF0000920688168C907E9
:102C30000CD0E18F51B1C068A16B0880A06B801CE3
:102C4000A063E08F401EE0874FF00109FEF7DEFD34
:102C5000C01B01E00BE067E0B04201D3701C50D113
:102C6000E08E0028CDD1E08F0028CAD13EE0206B55
:102C7000216800780873206B401C2063E08E401EA2
:102C8000E0862DE02068816889070FD5E18E69B163
:102C9000B9F1010F0AD1216B09780173206B401C37
:102CA0002063E08E401EE0864FF0000920688168B6
:102CB000C9070CD0E18F51B1C068A16B0870A06B3F
:102CC000401CA063E08F401EE0874FF00109FEF733
:102CD0009DFDC01BB04202D3701C01D011E086B133
:102CE000E08E0028CED1E08F0028CBD13A46314685
:102CF000204601F0AFFA50B12020606584F8508082
:102D000012E084F851A084F85080032068E7A0689E
:102D100018B92068C1688068009084F851A084F8D0
:102D20005080606D0028F1D0012059E710B5401E99
:102D3000B0F1807F01D3012010BD4FF0E02460612D
:102D40000F21601702F04EFC0020A06107202061D7
:102D5000002010BD7047704770B590F83C20012AE4
:102D600032D0012480F83C40022280F83D200368E4
:102D70005A689D6822F070060A6832435A60134B05
:102D800002689A4214D0B2F1804F11D0104B9A428F
:102D90000ED0104B9A420BD00F4B9A4208D00F4BDB
:102DA0009A4205D00E4B9A4202D00E4B9A4204D161
:102DB000496825F080031943916080F83D40002167
:102DC00080F83C10084670BD022070BD0000014034
:102DD0000004004000080040000C004000040140D6
:102DE000004001400018004010B5040003D094F8E2
:102DF0003D0010B107E0012010BD002084F83C0028
:102E0000204600F01FF8022084F83D00211D2068B4
:102E100001F018FB012084F8460084F83E0084F895
:102E20003F0084F8400084F8410084F8420084F8B0
:102E3000430084F8440084F8450084F83D000020F5
:102E400010BD000008B500680B49884212D10B483C
:102E5000016841F4807101600068002200F4807014
:102E6000009011462D20FEF7DFFFBDE808402D2021
:102E7000FEF7CCBF08BD00000020004040380240F3
:102E800090F83D10012901D001207047022180F8FF
:102E90003D100168CA6842F00102CA600068114929
:102EA000884214D0B0F1804F11D00F4988420ED023
:102EB0000E4988420BD00E49884208D00D498842FD
:102EC00005D00D49884202D00C49884204D181685E
:102ED00001F00701062903D0016841F001010160FA
:102EE000002070470000014000040040000800403E
:102EF000000C004000040140004001400018004068
:102F000070472DE9F04104460068C66805694FF036
:102F10000007A90713D5B10711D5F91E01610120DA
:102F20002077206880698007204602D0FFF7E8FFFD
:102F300004E000F0A7F8204600F04CF92777680776
:102F400016D5700714D521686FF0040008610220BF
:102F500020772068806910F4407F204602D0FFF778
:102F6000CFFF04E000F08EF8204600F033F9277719
:102F7000280715D5300713D521686FF008000861C0
:102F8000042020772068C0698007204602D0FFF720
:102F9000B7FF04E000F076F8204600F01BF9277731
:102FA000E80616D5F00614D521686FF01000086108
:102FB000082020772068C06910F4407F204602D0A6
:102FC000FFF79EFF04E000F05DF8204600F002F9F4
:102FD0002777E80708D0F00706D021686FF00100D6
:102FE0000861204600F05CF9280608D5300606D5B1
:102FF00021686FF0800008612046FFF7ABFE68068D
:1030000008D5700606D521686FF04000086120469B
:1030100000F05AF9A8060AD5B00608D521686FF065
:10302000200008612046BDE8F041FFF794BEBDE8EE
:10303000F081000010B586B0044614216846FDF703
:10304000F7FB0D492068884214D10C480021026822
:1030500042F002020260006800F002000590402089
:1030600000900220CDE90101CDE903106946044832
:10307000FEF7A0FA06B010BD00080040303802404C
:1030800000040240704770B5044690F83C000026EA
:103090000D4601280FD0012084F83C006AB1042AB3
:1030A0001DD0082A2FD00C2A3FD00126002084F8FA
:1030B0003C00304670BD022070BD206801F038FA37
:1030C0002068816941F0080181612068816921F0EF
:1030D00004018161206881692A69114311E0206837
:1030E00001F056FA2068816941F40061816120682D
:1030F000816921F480618161206881692A6941EADE
:1031000002218161D2E7206801F078FA2068C16964
:1031100041F00801C1612068C16921F00401C16169
:103120002068C1692A69114311E0206801F09AFA08
:103130002068C16941F40061C1612068C16921F45E
:103140008061C1612068C1692A6941EA0221C161C7
:10315000ACE710B5040003D094F83D0010B107E0CF
:10316000012010BD002084F83C00204600F01EF82D
:10317000022084F83D00211D206801F063F9012040
:1031800084F8460084F83E0084F83F0084F840004C
:1031900084F8410084F8420084F8430084F8440035
:1031A00084F8450084F83D00002010BD08B5006893
:1031B0000649884208D10648016841F004010160CF
:1031C000006800F00400009008BD00000008004006
:1031D000403802407047000010B50446022249B151
:1031E00004290ED0082913D094F84100012816D0E4
:1031F000012010BD94F83E000128F9D184F83E204A
:103200000FE094F83F000128F2D184F83F2008E055
:1032100094F840000128EBD184F8402001E084F8C4
:1032200041200122206801F075F916492068164AEC
:10323000884201D0904203D1436C43F4004343647D
:103240002068884213D0B0F1804F10D00F498842D7
:103250000DD00F4988420AD00E49884207D09042CB
:1032600005D00D49884202D00C49884204D18168BA
:1032700001F00701062903D0016841F00101016056
:10328000002010BD00000140000401400004004087
:1032900000080040000C00400040014000180040C1
:1032A00010B500680549884206D140210448FEF760
:1032B000A0FA04490120087010BD00000020004061
:1032C0000010024000000020704718B5034690F837
:1032D0004200202801D0022018BD61B15AB101205E
:1032E000186300205863184601F034FD0028F3D11C
:1032F000196B012901D0012018BD19680A684968B5
:10330000009119680C3151E8002F42F0100241E899
:103310000024002CF5D118BDFDF774BE70470000E5
:10332000F8B5016804460868CA684B6910F00F0FC9
:103330004FF0000559D003F0010602F490773743AF
:1033400065D0C10705D0D10503D5616C41F00101FD
:103350006164410705D5D90703D0616C41F00201D2
:103360006164810705D5D90703D0616C41F0040180
:103370006164010707D502F02001314303D0616C7D
:1033800041F008016164616C00293AD0800604D5DF
:10339000900602D5204601F0F5FB20684069616C7B
:1033A000C0F38010090700D460B3204601F0C3FBCE
:1033B00020684069400621D52068143050E8001F7D
:1033C00021F0400140E80012002AF5D1E06BA8B1DD
:1033D00072490165E06BFDF72EFF002811D0E06B0C
:1033E000016D01B0BDE8F040084783060FD5930694
:1033F0000DD52046BDE8F84001F0C4BB2046FFF7DC
:103400008DFFF8BD2046FFF789FF6564F8BD266B88
:103410002023012E7ED1C6067CD5D6067AD5086833
:103420004868009048694FF0020640064DD5E26BAF
:10343000106840684FF480770004000C3AD0A18DEA
:10344000814237D9E085D069B8422DD020680C3050
:1034500050E8001F21F4807140E80012002AF5D1E5
:103460002068143050E8001F21F0010140E80012EC
:10347000002AF5D12068143050E8001F21F04001E7
:1034800040E80012002AF5D184F842302563206814
:103490000C3050E8001F21F0100140E80012002A13
:1034A000F5D1E06BFDF77EFE6663A08DE18D401ADD
:1034B00081B206E0A18D8142A8D1D069B842A5D1E0
:1034C00066632046FFF728FFF8BDA08DE18D401A06
:1034D00081B2E08D0028F7D00029F5D020680C30AB
:1034E00050E8002F22F4907240E80027002FF5D119
:1034F0002068143050E8002F22F0010240E8002735
:10350000002FF5D184F84230256320680C3050E854
:10351000002F00E006E022F0100240E80023002B1C
:10352000F3D1CDE705062BD5150629D594F8410032
:103530002128C9D1A068B0F5805F01D12069B0B160
:10354000206A411C2162216800784860E08C401E9E
:103550000004000CE084B7D12068C16821F080012C
:10356000C1602068C16841F04001C160F8BD206AB7
:103570000088C0F308004860206A801C2062E5E7EC
:103580004006F3D55006F1D5CA68204622F0400225
:10359000CA6084F8413000F05CF9F8BD294B00089E
:1035A00070B5040004D094F84100002510B106E085
:1035B000012070BD84F84050204600F023F82420FC
:1035C00084F841002068C16821F40051C1602046A0
:1035D00001F03AFB2068016921F490410161206803
:1035E000416921F02A0141612068C16841F400511C
:1035F000C1606564202084F8410084F8420065635E
:10360000002070BD70B586B0064614216846FDF7EF
:103610000FF9344C30680025334902230322A042BD
:103620003ED131481030046844F0804404600068A2
:1036300000F080400590086840F0200008600868AD
:10364000694600F020000590C0208DE82900082080
:10365000CDE903202548FDF7ADFF264C2448206026
:103660004FF02060C4E901054FF48060C4E90350C5
:1036700080106561C4E90650256220466562FDF749
:10368000BDFE08B1FDF707FDF4630022114652208C
:10369000A663FEF7C9FB5220FEF7B8FB06B070BD6B
:1036A000154CA042FAD110481430046844F01004BC
:1036B0000460006800F010000590086840F0010008
:1036C00008600868694600F0010005904FF4C0608A
:1036D0008DE829000720CDE903200848FDF76AFF9F
:1036E000DCE700000078004030380240001402405F
:1036F0005860024014030020001001400000024006
:103700002DE9F84F044690F842009A4616460D46B9
:10371000202802D00220BDE8F88FB5B1AEB100205C
:103720006064222184F842102063FEF76FF8A685BA
:103730008146E685A0684FF480582027404501D196
:10374000206920B12E46002529E00120E3E700266C
:1037500025E04B46002220212046CDF800A001F0B4
:1037600014FB18B184F842700320D4E726B1A06896
:1037700040451AD038B108E020684068C0F308001E
:1037800025F8020B08E0206978B12068406800F055
:103790007F0000BF06F8010BE08D401EE085E08D44
:1037A0000028D6D184F84270B5E720684068F1E778
:1037B00070472DE9F843044690F8410098461646B4
:1037C0000D46202802D00220BDE8F88385B17EB1E5
:1037D00000206064212084F84100FEF717F8A684D9
:1037E0008146E684A0682027B0F5805F02D003E020
:1037F0000120E9E7206910B12E4600250EE00026E1
:103800000CE08021204601F0C0FAA8B9C6B116F834
:10381000010B21684860E08C401EE084E08C4B4640
:103820004FF00002CDF800800028EAD14FF04001AF
:10383000204601F0AAFA40B184F841700320C3E7A2
:1038400035F8020BC0F30800E3E784F8417000206C
:10385000BAE77047FEE7000000B587B0142168465C
:10386000FCF7E6FF0D480021026842F040020260CA
:10387000006800F0400005904FF4005000900120D7
:10388000CDE901010220039069460548FDF792FE4B
:1038900000F04EF800F016F807B000BD30380240D6
:1038A000001802400A2801D901207047044901EBA1
:1038B000800231F820105288902000F00DB80000EE
:1038C000D65C000810B5012000F04DF80446322007
:1038D000FDF7FEFD204610BD1FB500238DF800004A
:1038E0008DF801308DF80210C1F302208DF803002D
:1038F0008DF80420C2F302208DF805000293039393
:103900008DF8063000F024F810B1012004B010BD8D
:1039100000F016F8C823072202A9684600F08CFCC4
:1039200010B100F005F8F0E700F002F80020EDE734
:10393000012251030148FDF764BF00000018024056
:1039400000224FF400510148FDF75BBF0018024010
:1039500010B5002302228021182000F00BFC002863
:1039600000D0012010BD1CB5002100918DF8000091
:103970000191FFF7EDFF08B101201CBDFFF7E0FF4B
:10398000C823022201A9684600F056FC10B1FFF7D7
:10399000CFFFF1E7FFF7CCFF00201CBDF0B50368B7
:1039A0008C88DD68C5F30B452C442504882404EB82
:1039B000C2141E5906F470461E5103680F68DE6873
:1039C000C6F30B46761C3E442E431E5103688C8979
:1039D000DD68C5F30A052C4425048C2404EBC214CD
:1039E0001E5906F470461E5103688F68DE68C6F3E0
:1039F0000A06761C3E442E431E519423046803EBB2
:103A0000C213E55825F00705E55005680C69EC5030
:103A100091F831300C7E1E0291F8323091F830501E
:103A20001B04354343EA04631D439C24036804EBF1
:103A3000C2141D519823046803EBC213E55825F006
:103A4000FF05E55005684C69EC50A023046803EBC2
:103A5000C213E55840F20776B543E550D1E9074572
:103A60002C430568EC50AC25046805EBC2154B6A85
:103A700063510B698BB3012B32D0042B32D0022B54
:103A800030D0032B2ED0072B2CD00123B024056877
:103A900004EBC2142E5906F0E0262E51D1E9006540
:103AA000AD1B0E8D5D435E43ED1C45EA0643056884
:103AB0002B51B423046803EBC213E5586FF30A05D6
:103AC000E5500468C96AE1500068842101EBC21125
:103AD000425842F001024250F0BDFFE70423D5E70F
:103AE0000323D3E70223D1E700B587B01C21684642
:103AF000FCF79EFE114810490022C0E90012042183
:103B0000C0E9022110214023C0E904138023C0E949
:103B10000632026242628262009101910291039137
:103B20000491059106916946FEF752FF002801D0E5
:103B300072B6FEE707B000BD400100A0E002002021
:103B40002DE9F04F87B014216846FCF771FE7248EA
:103B50000024016841F010010160016801F01001CA
:103B60000591016841F004010160016801F0040160
:103B70000591016841F020010160016801F0200118
:103B80000591016841F080010160016801F0800148
:103B90000591016841F001010160016801F0010136
:103BA0000591016841F002010160016801F0020124
:103BB0000591016841F040010160016801F0400198
:103BC0000591016841F0080101600068534E00F062
:103BD00008000590002240213046FDF712FEDFF874
:103BE00040B141F63217002239465846FDF709FE2A
:103BF000002225214B48FDF704FE4FF4C048002267
:103C000041464948FDF7FDFD41F6B009002249460D
:103C10004648FDF7F6FD46F20C0A0022514644489C
:103C2000FDF7EFFD0C20CDE9000469463046029413
:103C3000FDF7C0FC402000900125CDE90154694604
:103C400030460394FDF7B6FC6E02CDE90064694688
:103C500038480294FDF7AEFC0097CDE9015469465F
:103C600058460394FDF7A6FC25200090CDE90154A9
:103C700069462C480394FDF79DFC48F28200CDE98B
:103C80000004694627480294FDF794FC4FF4104065
:103C9000CDE90004694624480294FDF78BFCCDF879
:103CA0000080CDE9015469461F480394FDF782FC6A
:103CB000CDF80090CDE9015469461C480394FDF706
:103CC00079FC42F20400CDE90004694617480294E9
:103CD000FDF770FCCDF800A0CDE901546946144809
:103CE0000394FDF767FC4FF488100096CDE90104BA
:103CF00069460F48FDF75EFC002201210948FDF7E7
:103D000080FD0095CDE90154694606480394FDF70E
:103D100051FC07B0BDE8F08F30380240001002407F
:103D2000000802400000024000040240000C024073
:103D30000018024000140240134810B511490160F8
:103D40001249416000214FF480428160C0E90312B2
:103D500041618161C1610162FDF79EFD08B172B6EA
:103D6000FEE700210848FDF757FD08B172B6FEE7EF
:103D700000210548FDF771FD002801D072B6FEE76D
:103D800010BD0000005C00404C000020A086010037
:103D900070B59AB034216846FCF74AFD34210DA86D
:103DA000FCF746FD30482F490024C0E90014846028
:103DB0000721C460C0E90441032181610E2105256A
:103DC000C0E9071540F28E21416240F2E51181629F
:103DD0004FF42571C16240F2E711016380F834406D
:103DE00080F8354080F83640FDF7CFFE08B172B656
:103DF000FEE7019402944FF48066CDE906460394F1
:103E000004940094CDE908548DF8304005948DF861
:103E100031400A940B948DF83240002269461248D2
:103E2000FDF78AFE08B172B6FEE70D940E940F946A
:103E3000109411941294CDE91346CDE915548DF8E0
:103E400064408DF86540179418948DF866400122FF
:103E50000DA90548FDF770FE002801D072B6FEE7F7
:103E60001AB070BD00680140A000002010B586B0F7
:103E700014216846FCF7DCFC1F4800241D4905940A
:103E8000C0E900147F218160FF21C0E9031444616F
:103E90008461FEF769FC08B172B6FEE7002116489E
:103EA000FEF70CFCA0F52541A53921D08DF8004086
:103EB0008DF801408DF802400394012269460E48B6
:103EC0000494FEF709FD08B172B6FEE701208DF8F3
:103ED00014008DF815008DF8160002468DF8174075
:103EE00005A90548FEF7ACFC002801D072B6FEE734
:103EF00006B010BD00280040480100200E4810B553
:103F00000C4901604FF48271416000218160C16001
:103F10004FF400720161C0E90512C16101624162A2
:103F200081620A21C162FEF776FD002801D072B6D7
:103F3000FEE710BD003001406801002010B58AB0D6
:103F4000002407941C2168460894FCF771FC16486D
:103F50001449C0E900144FF6FF71C0E90241046141
:103F60008461FFF7F6F808B172B6FEE7079407A977
:103F70000D480894FEF7F0FE08B172B6FEE7602027
:103F8000CDE9000402940022694607480494FFF733
:103F90007AF808B172B6FEE70348FFF74BF80AB0AB
:103FA00010BD000000080040C0010020FEE7FEF741
:103FB000C1F9FEE77047010901EB810100F00F0034
:103FC00000EB4100C0B27047002102E00A38C0B2E5
:103FD000491C0A28FAD2090740EA1160704700001C
:103FE0002DE9F041044600680025C168490618D44F
:103FF000C16841F08001C160FDF708FC06464FF43E
:104000007A78042707E000BFFDF700FC801B4045DD
:1040100001D9677701252068C068400601D4002DCA
:10402000F2D02846BDE8F08170B50446006800254E
:10403000C16821F08001C16020688068800606D4D4
:104040002046FEF7A9FC10B1042060770125284620
:1040500070BD000010B586B0044614216846FCF718
:10406000E7FB0020059034B1002269461248FEF7B4
:1040700051FB48B902E0062006B010BD002205A998
:104080000D48FEF725FB08B10120F5E79DF8170064
:1040900000F5FA6020809DF81500A0709DF81600CC
:1040A000E0709DF8000020719DF8010060719DF89E
:1040B0000200A0710020DFE7480100201CB50021AC
:1040C0000A48FEF7FBFA4AF2A554A0420CD0084970
:1040D000D1E90001CDE90001684600F00BF8224665
:1040E00000210248FEF7EFFA00201CBD4801002025
:1040F000C45D000810B586B0044614216846FCF77C
:1041000097FB002005903CB12188B1F5FA6F03D3ED
:1041100040F63302914202D9062006B010BD217943
:104120008DF8001061798DF80110A1798DF80210D9
:1041300003900490002269460D48FEF7CDFBA0B91C
:1041400020780022A0F5FA608DF81700A0788DF88D
:104150001500E0788DF8160001208DF8140005A9EF
:104160000348FEF76DFB0028D7D00120D5E70000FB
:104170004801002000F03EB830B587B014216846F1
:10418000FCF756FB184C207810B1002007B030BD6A
:104190001648016841F002010160006800F0020069
:1041A000059012481430016841F4805101600068A4
:1041B000012500F480500590382000900220CDE9C0
:1041C0000105032003900520049069460848FDF787
:1041D000F1F900231A461946102000F00BF808B137
:1041E0000120D3E72570D0E72400002030380240BA
:1041F0000004024070B50F4C0D4D04F11C06256003
:104200004FF4827565600025A560E560C4E904236C
:104210004FF40072A26186E823000720C4E90A5027
:104220002046FEF7F8FB002800D0012070BD0000FA
:1042300000300140BC03002008B5009313460A4635
:1042400001460348FEF77AFC002800D0012008BD93
:10425000BC030020F8B515460E460B4600920446F6
:104260000122022100F02CF8A0B91348134900687C
:10427000B0FBF1F04FF47A71484300906068B0F5FC
:10428000827F0DD13346002280212046009500F028
:1042900017F870B1606D40F0200060650320F8BD34
:1042A000009830B1401E009020688068C04300062E
:1042B000F6D50020F8BD00002000002000366E0179
:1042C0002DE9F8431E46914688460446089DFDF7B1
:1042D0009DFA401B351AFDF799FA074626480068F3
:1042E000C0F3CB3068430AE0701C09D0FDF78EFAAA
:1042F000C01BA8420FD275B10098B8B3401E009001
:104300002068816838EA010033D000214945EBD1AB
:104310000020BDE8F8832068416821F0E001416099
:104320006068B0F5827F0BD1A068B0F5004F02D075
:10433000B0F5806F04D12068016821F04001016070
:10434000A06AB0F5005F09D12068016821F400512E
:1043500001602068016841F400510160012084F887
:104360005100002084F850000320D2E7FFE7002529
:10437000C6E70121CAE70000200000207047FDF7D2
:1043800099BB000030B593B030216846FCF750FA75
:1043900014210CA8FCF74CFA21480025016841F0D3
:1043A00080510160006800F0805011901D48016844
:1043B00041F4404101600068022400F44040119043
:1043C000052000904FF4803001900120029080057C
:1043D000CDE9064008AA0420B42182E813000B901E
:1043E0006846FDF7B5FF08B172B6FEE7FDF74EFD72
:1043F00008B172B6FEE70CA90F2081E831004FF436
:10440000A0500F904FF48050109005210CA8FDF79C
:10441000A1FE08B172B6FEE7FDF736FF13B030BD5E
:1044200040380240007000400248016841F47001C9
:104430000160704788ED00E00148FEF762BD0000B2
:1044400008020020F0B50268274B284D284E294F5E
:10445000294C4FF0804C984209D0604507D0A842C3
:1044600005D0B04203D0B84201D0A04204D122F01E
:10447000700E4A6842EA0E0298421BD0604519D07D
:10448000A84217D0B04215D0B84213D0A04211D0E4
:104490001A4DA8420ED01A4DA8420BD0194DA84271
:1044A00008D0194DA84205D0184DA84202D0184D89
:1044B000A84203D122F44075CA682A434D6922F00C
:1044C00080022A438D68C5620D688562984201D0DA
:1044D000A04201D109690163016841F00401016052
:1044E000012141610260F0BD000001400004004074
:1044F00000080040000C0040000401400040014062
:10450000004401400048014000180040001C0040E9
:104510000020004010B501F01F030121046A9940FA
:104520008C430462016A9A401143016210BD00008D
:10453000F0B5036A026A22F00102026242688469ED
:10454000124E24F073050C682C4323F002058B688F
:104550002B430D4DA84201D0B04205D123F00807EE
:10456000CB683B4323F00403A84201D0B04205D1FD
:104570004D6922F4407215438A692A43426084617E
:10458000496841630362F0BD00000140000401403E
:10459000F0B5026A036A23F010030362436884697A
:1045A0000D6824F4E64444EA05248D6822F02002D4
:1045B00042EA05120F4D104EA84201D0B04206D17A
:1045C000CF6822F0800242EA071222F04002A8429D
:1045D00001D0B04207D14D6923F4406343EA85031B
:1045E0008D6943EA8503436084614968816302629F
:1045F000F0BD00000000014000040140F0B5026A77
:10460000036A23F4807303624368C46922F400726E
:1046100024F073050C68124E2C438D6842EA052283
:104620000E4DA84201D0B04206D1CF6822F40062FC
:1046300042EA072222F48062A84201D0B04207D1A8
:104640004D6923F4405343EA05138D6943EA05138A
:104650004360C4614968C1630262F0BD000001406B
:104660000004014030B5046A026A22F480520262FA
:104670004268C3690D6823F4E64343EA05238D6865
:1046800024F4005444EA0534084DA84202D0084DF1
:10469000A84204D14D6922F4804242EA8512426068
:1046A000C36149680164046230BD0000000001403C
:1046B000000401407CB5664C607800284ED04FF471
:1046C0007A7501281FD0022848D1684600F020FEE4
:1046D0009DF8001050EA01024BD004283ED1022977
:1046E0003CD1FDF793F8A168401AB0FBF5F03C28E7
:1046F00034D958A000F0E6F900F000FA60A000F00C
:1047000041FD06205CE0684600F002FE9DF80010C6
:1047100050EA01020DD0042820D102291ED1FDF754
:1047200075F8A168401AB0FBF5F03C2816D95AA0DC
:10473000E0E764A000F0C6F96946012000F044FDFE
:1047400000280BD19DF8000048B168A000F0BAF92C
:1047500000F0D4F96DA000BF00F014FD7CBD70A086
:1047600000F0B0F902206070052000F0B1F975A0EA
:10477000F2E779A000F0A6F96946022000F024FDD6
:104780000028EBD19DF8000030B17DA000F09AF92F
:1047900000F0B4F97AA0DFE781A000F093F9684651
:1047A00000F0E4FD0028D9D19DF8000058B185A0A3
:1047B00000F088F900F0A2F98FA000F0E3FC0920D6
:1047C00000F086F97CBD93A000F07CF9694601A851
:1047D00000F027FD0028F5D19DF8000030B195A02C
:1047E00000F070F900F08AF992A0B5E7BDF8041066
:1047F000A1806A46012000F0BDFD0028E2D19DF8AD
:10480000000030B192A000F05DF900F077F990A0BF
:10481000A2E795A000F056F99AA000F053F9012103
:10482000A078FCF77BFA0121A078FCF765FA012259
:1048300000231146A07800F0E9FB03206070FCF72C
:10484000E5FFA06094A000F09DFC0720B8E7000001
:10485000000000204552524F523A2046696E67656B
:10486000727072696E742074696D656F757420283A
:104870007365636F6E64207363616E2921000000AD
:1048800046696E6765727072696E742074696D65D1
:104890006F757421000000004552524F523A204675
:1048A000696E6765727072696E742074696D656F88
:1048B000757420286669727374207363616E292190
:1048C0000000000046696E67657220646574656368
:1048D000746564202D20636170747572696E672041
:1048E000696D61676520312E2E2E0000436861726C
:1048F00061637465722067656E65726174696F6E5D
:10490000206661696C6564210000000046696E677D
:1049100065727072696E74206572726F7221000028
:1049200043686172616374657220312067656E65EA
:104930007261746564207375636365737366756C07
:104940006C790000506C6163652066696E67657202
:1049500020616761696E000046696E676572206458
:1049600065746563746564202D206361707475726D
:10497000696E6720696D61676520322E2E2E0000FA
:1049800043686172616374657220322067656E6589
:10499000726174696F6E206661696C6564210000E4
:1049A00043686172616374657220322067656E6569
:1049B0007261746564207375636365737366756C87
:1049C0006C79000054656D706C617465206D657262
:1049D0006765206661696C6564202D2066696E6775
:1049E00065727072696E7473206469646E277420D6
:1049F0006D6174636821000046696E67657270724C
:104A0000696E747320646964206E6F74206D6174C4
:104A10006368210054656D706C617465206D65720A
:104A2000676564207375636365737366756C6C7911
:104A30000000000047657454656D706C61746543D7
:104A40006F756E74206661696C65642100000000FA
:104A500053746F72652074656D706C617465206647
:104A600061696C656421000046696E6765727072E9
:104A7000696E742073746F72656420617420706154
:104A8000676500004F70656E696E67206C6F636BC1
:104A900065722E2E2E0000004C6F636B6572206FC6
:104AA00070656E6564202D20706C61636520706890
:104AB0006F6E6520616E6420636C6F736520646F38
:104AC0006F720000002801D0FCF7BABA70470000EE
:104AD00010B5FEF7E7FE002804D0BDE8104002A0A4
:104AE000FFF7F0BF10BD0000417564696F20706C66
:104AF0006179206572726F72210000000348002105
:104B00004170816002A000F0DDBA000000000020CA
:104B1000544553545F4D4F44450000000148FEF793
:104B2000FFBB00005002002010B5806B0021C18542
:104B3000FEF7F4FB10BD01680C3151E8002F22F4A0
:104B4000907241E80023002BF5D10168143151E83F
:104B5000002F22F0010241E80023002BF5D1016B68
:104B6000012909D101680C3151E8002F22F010020F
:104B700041E80023002BF5D1202180F842100021CC
:104B80000163704708B590F84210222901D0022035
:104B900008BD82684FF480539A4201D1016921B166
:104BA000816A9A421BD04AB10AE00268816A52685F
:104BB000C2F308020A80816A891C08E0026972B1A6
:104BC0000268526802F07F020A70816A491C8162A1
:104BD000C18D491E0904090CC18503D01BE0026880
:104BE0005268F1E70168CA6822F02002CA600168D1
:104BF000CA6822F48072CA6001684A6922F0010220
:104C00004A61202180F8421000214163026B012A91
:104C100003D0FEF7CDFD002008BD016301680C3113
:104C200051E8002F22F0100241E80023002BF5D1BB
:104C300001680A68D20602D50A6849680091818D28
:104C4000FEF76AFBE7E7000070B5044600680169FB
:104C5000E26821F44051114301612169A068E269D1
:104C600008436169114308432168CA6849F20C632B
:104C70009A430243CA6020684169A26921F44071E5
:104C80001143416131492068884202D0304988424D
:104C900002D1FDF70FFB01E0FDF7FCFAE26900230A
:104CA000192164253226B2F5004F626828D0A0FB96
:104CB0000101930F9200FBF7F3FA0146B0FBF5F008
:104CC0006FF01802504301EB800006EB0010B0FBC0
:104CD000F5F000F0F002B1FBF5F002EB0012B1FBD1
:104CE000F5F06FF01803584301EB800006EB00105D
:104CF000B0FBF5F000F00F0021681044886070BD33
:104D0000A0FB010192185B41FBF7CAFA0146B0FB18
:104D1000F5F00201B1FBF5F06FF01803584301EB19
:104D2000800006EBC000B0FBF5F000F0F80002EBED
:104D30004002B1FBF5F0584301EB800006EBC000E8
:104D4000B0FBF5F000F00700D6E7000000100140CE
:104D50000014014081628285C285002141642221C4
:104D600080F84210016921B10168CA6842F480727A
:104D7000CA6001684A6942F001024A610068C1687C
:104D800041F02001C160002070472DE9F8439846AA
:104D900017460D460446089E24E0701C22D0FCF7FE
:104DA00035FDA0EB0800B0421AD8CEB12068C1682A
:104DB000490717D5802D15D0402D13D00168C94360
:104DC00009070FD401680025406800902046FFF7CE
:104DD000B2FE0820606484F840500120BDE8F883EA
:104DE0000320FBE72068006835EA000004D00020BB
:104DF000B842D2D00020F1E70120F9E70C4A10B503
:104E000013785478A34201D1002010BD094B1478C7
:104E100013F814400470107803EB400040780870D9
:104E20001078401C00F01F001070012010BD000021
:104E3000400000209C060020094910B50020C1F860
:104E40000200C1F80600087048700649087006A004
:104E5000FCF7F6F80BA0FCF7F3F8002010BD0000FB
:104E600040000020FC0500204F55543A4D53473A6E
:104E7000506F77657220426F7820563220526561FC
:104E8000647900004F55543A53435245454E3A49D0
:104E9000444C450010B5040063D0042231A1FBF757
:104EA000E3FB00285DD0032230A12046FBF7DCFBAA
:104EB000002856D1E41C2EA12046FBF70BFD00284C
:104EC00031D02EA12046FBF705FD00282ED02FA1C2
:104ED0002046FBF7FFFC00282BD02FA12046FBF734
:104EE000F9FC48B330A12046FBF7F4FC38B30622A6
:104EF00031A12046FBF7B8FB20B331A12046FBF7D8
:104F0000E9FC40B331A12046FBF7E4FC30B331A10A
:104F10002046FBF7DFFC002823D100211220BDE84A
:104F2000104000F05BB800210120F8E700210220CA
:104F3000F5E700210320F2E700210420EFE700213C
:104F40000520ECE7A079A0F13001092909D82A3819
:104F5000C9B2C0B2E3E700211020E0E70021112030
:104F6000DDE710BD4F55543A00000000494E3A00AD
:104F700042544E5F4445504F5349540042544E5F93
:104F800052455452494556450000000042544E5F78
:104F900041444D494E00000050484F4E455F414E40
:104FA00044524F494400000050484F4E455F49501D
:104FB000484F4E450000000044494749543A00001C
:104FC0004241434B5350414345000000434F4E463E
:104FD00049524D0043414E43454C000030B5094A0B
:104FE000537814785B1C03F01F03A34208D0064CCF
:104FF000557804F81500507804EB40004170537068
:1050000030BD0000400000209C06002010B588B094
:105010001C46082824D2002301B101230AB143F021
:105020000203002C02D000BF43F004030D4C2354B4
:1050300003D000F101030CA20AE019B100F1010351
:105040000FA205E000F101030AB112A200E017A2CD
:105050004FF020016846FBF79BF96846FBF7F0FF2D
:1050600008B010BD420000204F55543A4C4F434BFE
:1050700045523A25753A4C45445F424C494E4B00E7
:105080004F55543A4C4F434B45523A25753A4F5081
:10509000454E00004F55543A4C4F434B45523A252C
:1050A000753A4C45445F4F4E000000004F55543A4E
:1050B0004C4F434B45523A25753A434C4F53454468
:1050C0000000000010B590B0040010D001461F226F
:1050D0000848FBF7D4FB074900202346C87706A2FF
:1050E00040216846FBF754F96846FBF7A9FF10B06A
:1050F00010BD00007C0600204F55543A53435245E2
:10510000454E3A257300000070B590B00D4604007E
:105110004FF000060FD001460F221248FBF7AFFBFD
:105120001048234610A2C67340216846FBF730F9A9
:105130006846FBF785FF002D11D00A480F2229464B
:105140001030FBF79CFB07482B4610300AA2C673B1
:1051500040216846FBF71CF96846FBF771FF10B069
:1051600070BD00005C0600204F55543A434C4F433D
:105170004B3A2573000000004F55543A44415445C2
:105180003A25730000B5A1B0002811D001463F2296
:105190000848FBF774FB074900200B4681F83F00E5
:1051A00005A280216846FBF7F3F86846FBF748FF45
:1051B00021B000BD1C0600204F55543A4D53473ACC
:1051C000257300007047FEE710B50C468CB0022135
:1051D0008DF820108DF821000A4608A9012000F062
:1051E0008BF910B101200CB010BD0AAB202269462A
:1051F00009A800F027F908B10220F4E79DF824007F
:1052000007280CD1BDF8280048B114B19DF8000062
:1052100020709DF800000028E5D00420E3E703207B
:10522000E1E730B58BB005461D200C468DF8200017
:10523000012208A9104600F05FF910B101200BB05F
:1052400030BD0AAB2022694609A800F0FBF808B17E
:105250000220F4E79DF82400072803D1BDF82800B8
:10526000032801D20320EAE714B19DF80000207062
:105270009DF8000008B10420E1E71DB1BDF8010070
:1052800040BA28800020DAE710B586B014216846BD
:10529000FBF7CEFA1A480024016841F001010160D1
:1052A000006800F00100059015481430016841F0D5
:1052B000100101600068012100F0100005904FF41A
:1052C000C06000900220CDE9010103900720049006
:1052D00069460C48FCF76EF90C480B4901604FF425
:1052E0006141C0E901140C21C460C0E9044184613A
:1052F000C461FEF755F9002800D0012006B010BDAA
:105300003038024000000240001001401404002028
:1053100010B504468CB001208DF8240042F21073C1
:10532000024609A900F0ECF810B101200CB010BD44
:10533000962000900BAB202201A90AA800F08AF861
:1053400008B10220F2E79DF8280007280CD1BDF82B
:105350002C0048B114B19DF8040020709DF80400A1
:105360000028E3D00420E1E70320DFE70146052021
:1053700000F00EB910B58CB0144606228DF820202E
:105380008DF82100080A8DF822008DF823100422E0
:1053900008A9012000F0B0F810B101200CB010BD38
:1053A0000AAB2022694609A800F04CF808B1022097
:1053B000F4E79DF8240007280CD1BDF8280048B177
:1053C00014B19DF8000020709DF800000028E5D081
:1053D0000420E3E70320E1E710B58CB00C4613216D
:1053E0008DF82010010E8DF82110010C8DF822107F
:1053F000010A8DF823108DF82400052208A9012048
:1054000000F07AF810B101200CB010BD0BAB2022D7
:1054100069460AA800F016F808B10220F4E79DF8E2
:10542000280007280CD1BDF82C0048B114B19DF814
:10543000000020709DF800000028E5D00420E3E77C
:105440000320E1E738B542F21074009400F002F84E
:1054500038BD00002DE9F0418CB01D46DDF84880D4
:1054600016460F4604464346092209A92148FEF77D
:1054700047F9C8B99DF82400EF2830D19DF82500E0
:1054800001282CD19DF82A002070BDF82B0042BACB
:10549000022A24D3901E84B2B44220D843466946DF
:1054A0001448FEF72DF918B102200CB0BDE8F081C8
:1054B0009DF82A009DF82B106A4608449DF82C1090
:1054C0000144002004E0135C401C194489B280B2FE
:1054D000A042F8D31019008840BA814201D00320BD
:1054E000E3E7224669463846FBF709F92C8000209D
:1054F000DBE700001404002042F21073AFF30080D9
:105500007FB50D461446911C8AB2EF218DF800102C
:1055100001218DF80110FF218DF804108DF8021083
:105520008DF805108DF80310110A8DF80600D2B21F
:105530008DF80710114401441E468DF80820002004
:1055400004E02A5C401C114489B280B2A042F8D326
:10555000080A8DF80C008DF80D10092269460B48D9
:10556000FEF727F978B934B1334622462946074871
:10557000FEF71FF938B93346022203A90348FEF7A4
:1055800018F9002800D0012004B070BD14040020D8
:1055900010B58CB00C468DF82000012208A91046E9
:1055A000FFF7AAFF10B101200CB010BD0AAB2022FA
:1055B000694609A8FFF746FF08B10220F4E79DF805
:1055C000240007280CD1BDF8280048B114B19DF87B
:1055D000000020709DF800000028E5D00420E3E7DB
:1055E0000320E1E70907090E002804DB00F1E020B1
:1055F00080F80014704700F00F0000F1E02080F800
:10560000141D704730380A2801D20120704700204D
:10561000704700008CB0FCF755FAFEF7B3FEFEF7BA
:105620008FFABA480024016841F400110160006853
:10563000224600F40010009021460E20FCF7F4FBF7
:105640000E20FCF7E3FBFEF7A3FBFEF74DFAFEF797
:1056500073FBFEF753FCAF48AD490C2501604FF4D6
:105660006141C0E90114C460C0E904458461C461BA
:10567000FDF796FF08B172B6FEE7FEF75FFCFEF796
:10568000F5FBA448A4499038016042F22731C0E9F3
:10569000011440F2E731C0E9031480218161FDF774
:1056A000A3FB08B172B6FEE79A489C4948380160EE
:1056B0004FF4E131C0E90114C460C0E904458461DC
:1056C000C461FDF76DFF08B172B6FEE791489038EE
:1056D000FDF7D6FBFBF710FA3220FBF761FAFEF775
:1056E000EDFC02A8FEF7B6FCFEF746FD8CA0FFF726
:1056F000E9F9FEF7B1F8002877D08FA0FFF7E2F9BB
:1057000091A0FFF7DFF9FFF7BFFD4FF4FA70FBF749
:10571000DFFE93490020FFF75FFE00286CD091A0C8
:10572000FFF7D0F99BA0FFF7CDF9FBF781FA00282E
:1057300064D09FA0FFF7C6F976484838FBF77EFB98
:10574000A048FBF759FCFFF777FB9DF80E109DF87A
:105750000D00CDE900019DF80C309BA2102104A89A
:10576000FAF716FEBDF808109DF80A00CDE9000111
:105770009DF80B3098A2102108A8FAF709FE08A995
:1057800004A8FFF7C1FC98A0FFF7FCFC9CA0FFF762
:1057900099FC002500231A4619462846FFF736FCD7
:1057A0006D1CEDB2082DF5D398A0FFF78BF99EA0E4
:1057B000FFF788F96A4DED1E6C70AC70FBF70EFCBC
:1057C000FFF700FD01A96846FFF718FB00285AD033
:1057D0009DF80000042831D012DC012815D00228E1
:1057E00022D003284FD124E0FFE79BA0FFF76AF9FE
:1057F0000020FFF76DF983E7A1A091E7A8A099E742
:10580000052820D012283ED124E0B2A0FFF75AF993
:10581000012068700520FFF75BF9B5A0FFF7B2FC27
:10582000FBF7F4FFA8602EE0B8A0FFF74BF9C4A087
:105830000DE0CCA0FFF746F9D6A008E0DEA0FFF708
:1058400041F9E5A003E0E8A0FFF73CF9EDA0FFF780
:1058500099FC18E0EFA0FFF735F9FFF74FF9F3A037
:10586000FFF790FC0420FFF733F90021A878FBF73D
:1058700055FA0021A878FBF73FFA00231A4619468B
:10588000A878FFF7C3FB287810B12C70FEF712FF41
:105890006878032892D1A878FBF71CFAC8B1E7A072
:1058A000FFF710F9002301221946A878FFF7AEFB95
:1058B000EDA0FFF767FC0620FFF70AF904206870E7
:1058C0000021A878FBF72AFA0021A878FBF714FA40
:1058D00074E7FBF79BFFA968401A4FF47A71B0FB9D
:1058E000F1F09628F4D9E4A0FFF7ECF801231A466A
:1058F0000021A878FFF78AFBE6A0FFF743FC082009
:10590000FFF7E6F8FFF7FAF858E7000030380240F2
:105910000010014098020020002000400078004064
:10592000496E697469616C697A696E67204953448C
:10593000313733302E2E2E00495344313733302047
:105940004552524F52210000496E697469616C6979
:105950007A696E67205A464D2D34302E2E2E000067
:10596000030000205A464D2D3430204552524F52EC
:10597000202D2050617373776F7264207665726991
:105980006669636174696F6E206661696C65642124
:1059900000000000496E697469616C697A696E671C
:1059A000204368616E6E656C2048572E2E2E0000D5
:1059B0004368616E6E656C204857204552524F52C5
:1059C00021000000954E0008253032643A2530321F
:1059D000643A253032640000253032642F2530329D
:1059E000642F25303464000053797374656D207220
:1059F0006561647920666F722074657374000000BD
:105A0000544553545F4D4F44450000003D3D3D20FB
:105A1000544553542053595354454D205245414405
:105A200059203D3D3D0000005072657373202744AE
:105A300065706F7369742720627574746F6E206F60
:105A40006E20504320746F6F6C20746F20737461EC
:105A500072742074657374004953443137333020B5
:105A60004F4B202D20506C6179696E672077656CF3
:105A7000636F6D65206D6573736167652E2E2E00F3
:105A80005A464D2D3430204F4B202D2050617373DA
:105A9000776F7264207665726966696564210000BB
:105AA0004368616E6E656C204857204F4B202D2057
:105AB000416C6C206C6F636B732F4C4544732F6487
:105AC0006F6F722073656E736F727320726561649D
:105AD000790000005374617274696E6720646570A8
