:020000040800F2
:100000009848002075020008AB5D00080150000808
:10001000A95D0008B50E0008CF77000800000000B9
:100020000000000000000000000000002D6A000831
:100030000917000800000000B15D0008D16D00083C
:100040008F0200088F0200088F0200088F0200084C
:100050008F0200088F0200088F0200088F0200083C
:100060008F0200088F0200088F0200088F0200082C
:100070008F0200088F020008B51300088F020008E5
:100080008F0200088F0200088F0200088F0200080C
:100090008F0200088F0200088F0200088F020008FC
:1000A0008F0200088F0200088F0200088F020008EC
:1000B0008F0200088F0200088F0200088F020008DC
:1000C0008F0200088F0200088F0200088F020008CC
:1000D0008F0200088F0200088F0200088F020008BC
:1000E0008F0200088F0200088F0200088F020008AC
:1000F0008F020008896E00088F0200088F02000836
:100100008F0200088F0200088F0200088F0200088B
:100110008F0200088F0200088F0200088F0200087B
:100120008F0200088F0200088F0200088F0200086B
:100130008F0200088F0200088F0200088F0200085B
:100140008F0200088F0200088F0200088F0200084B
:100150008F0200088F0200088F0200088F0200083B
:100160008F0200088F0200088F0200088F0200082B
:100170008F0200088F0200088F02000800000000B4
:100180008F0200088F020008057100088F02000826
:100190008F0200088F0200088F0200088F020008FB
:1001A0008F0200088F0200088F02000800F002F89A
:1001B00000F050F80AA090E8000C82448344AAF1B1
:1001C0000107DA4501D100F045F8AFF2090EBAE8AF
:1001D0000F0013F0010F18BFFB1A43F0010318477B
:1001E0002882000048820000103A24BF78C878C1F5
:1001F000FAD8520724BF30C830C144BF04680C602D
:10020000704700000023002400250026103A28BF74
:1002100078C1FBD8520728BF30C148BF0B60704778
:10022000642900F04F81752900F04C81732900F09A
:100230006E84002070471FB508F004F800F024FD1C
:1002400004000020002107F0E7FF401C60601FBD94
:1002500010B510BD00F0F3FC1146FFF7ECFF07F0FE
:100260009FFE00F023FD03B4FFF7F2FF03BC00F094
:1002700027FD00000948804709480047FEE7FEE7E0
:10028000FEE7FEE7FEE7FEE7FEE7FEE7FEE7FEE746
:1002900004480549054A064B70470000796E00087E
:1002A000AD010008980800209848002098280020F8
:1002B0009828002053EA020C00F069802DE9F04BE9
:1002C0004FF00006002B1FBFB3FA83F503FA05F4C5
:1002D00024FA05F65E4012BF1643B2FA82F502FA1E
:1002E00005F4C5F120051EBF22FA05FC44EA0C0402
:1002F000203556EA044C4FEA144418BF641C4FF0F2
:1003000000084FF00009904271EB030C39D300292B
:1003100019BFB1FA81F701FA07F6B0FA80F700FACF
:1003200007F6C7F120071EBF20FA07FC46EA0C06B5
:100330002037B6FBF4FCA7EB0507103F07F01F0BB7
:10034000CBF120060CFA0BFB2CFA06F644BFB346A1
:100350000026202FA4BF5E464FF0000B5BEA060C80
:1003600008BF4FF0010B19EB0B09ABFB027C48EB0C
:100370000608C01B06FB02CC0BFB03CC71EB0C0187
:10038000C1E70B46024641464846BDE8F08B13B52F
:100390004FF000004FF00001AFF30080BDE81C40BB
:1003A000704710B54C1084EA530404D54042C1F1A3
:1003B000000138BF491E1B4204D55242C3F100035D
:1003C00038BF5B1EFFF776FF14F0804F04D0404229
:1003D000C1F1000138BF491E14F0004F04D0524251
:1003E000C3F1000338BF5B1E10BD00000FB47CB525
:1003F0000C0009AA009001D02044401E084B7B4409
:1004000069460190089800F050FB05461CB1002099
:10041000694600F05DFB28467CBC5DF814FB0000DB
:10042000D906000070B5044685690068C10601D58B
:10043000302600E02026C00707D070BDD4E9012196
:1004400030469047206A401C20626D1EF6D570BD74
:1004500070B5044685690078C00707D170BDD4E93E
:10046000012120209047206A401C20626D1EF6D595
:1004700070BD70B50C460546012A05D02878800667
:1004800000D5EA69002302E0012305E05B1C9342EA
:1004900002D2E05C0028F9D1A869E618C01AA86168
:1004A000286A184428622846FFF7BCFF04E0D5E913
:1004B000012114F8010B9047B442F8D32846FFF706
:1004C000C7FF70BD2DE9F04106460024106875296C
:1004D000314616A510D0AFF30080002802DA404262
:1004E00013A507E031688A0701D512A502E0490784
:1004F00004D511A5012401E0AFF3008000210A22F8
:1005000006F1240709E0B0FBF2FCB0FBF2F302FBBA
:100510001C00303078541846491C0028F3D123467B
:100520002A463046BDE8F04100F060BA0000000005
:100530002D0000002B000000200000002DE9F05FDE
:10054000894604464FF0000ADFF874B1FB44C0F856
:1005500020A02046E1688847002874D0252806D0CE
:10056000D4E901219047206A401C2062F1E700266F
:100570005F462046E16888472028054607DB312D85
:1005800005D2781910F8200C08B10643F1E7B0073E
:1005900001D526F00406C4F81CA00027C4F818A052
:1005A0002A2D09D0284607F0F3FC38B304EB87085E
:1005B000303DC8F8185019E059F8041B204604EBE8
:1005C00087029161E1688847012F054618D1E069EB
:1005D000002820DA26F020061DE0D8F8180000EBED
:1005E000800005EB40003038C8F818002046E1686C
:1005F0008847054607F0CCFC0028EED1012F0AD031
:100600002E2D08D12046E16888477F1C0546022F21
:1006100046F02006C4DBA069002803DA404246F019
:100620000106A061F00701D026F010066C2D0BD05A
:10063000682D09D04C2D39D06A2D35D0742D35D088
:100640007A2D33D016E038E0E1682F4620468847FF
:10065000B842054609D16C2F26D04FF48060E1687E
:10066000064320468847054604E06C2F1AD04FF415
:10067000807006430DB3A5F14100192802D820353A
:1006800046F400664A462946204626604E46FFF755
:10069000C7FD80B101280BD0F61D26F0070000F140
:1006A000080956E74020E4E78020D8E70020D6E795
:1006B00006F104094DE7284652E7206ABDE8F09F9D
:1006C0005A7E000070B5064600F08CF904680546B5
:1006D00030460A22002100F01EFA2C6070BD40EA6C
:1006E000010370B59B072ED14FF00136042A2AD39F
:1006F00008C810C99D1B9D43121F15EAC61517D0C7
:10070000D8B2E1B2401A50EA056110D198B2A1B254
:10071000401A50EA05410AD123F07F4024F07F417E
:10072000401A50EA052102D1180EA0EB146070BDEA
:10073000A342DBD018BA21BA884201D9012070BD8A
:100740004FF0FF3070BD0AB9002070BD10F8013BBA
:1007500011F8014B63B1A3420AD1521E08D010F820
:10076000013B11F8014B1BB1A34201D1521EEDD147
:10077000181B70BD032A40F2308010F0030C00F00B
:10078000158011F8013BBCF1020F624498BF11F8CB
:1007900001CB00F8013B38BF11F8013BA2F1040284
:1007A00098BF00F801CB38BF00F8013B11F00303FC
:1007B00000F02580083AC0F0088051F8043B083A60
:1007C00051F804CBA0E80810F5E7121D5CBF51F802
:1007D000043B40F8043BAFF30080D20724BF11F87C
:1007E000013B11F801CB48BF11F8012B24BF00F8E1
:1007F000013B00F801CB48BF00F8012B704710B552
:10080000203AC0F00B80B1E81850203AA0E8185008
:10081000B1E81850A0E81850BFF4F5AF5FEA027CC9
:1008200024BFB1E81850A0E8185044BF18C918C038
:10083000BDE810405FEA827C24BF51F8043B40F8D9
:10084000043B08BF7047D20728BF31F8023B48BFBE
:1008500011F8012B28BF20F8023B48BF00F8012BFC
:10086000704702F0FF0343EA032242EA024200F02B
:1008700002B84FF000020429C0F0128010F0030CFF
:1008800000F01B80CCF1040CBCF1020F18BF00F883
:10089000012BA8BF20F8022BA1EB0C0100F00DB832
:1008A0005FEAC17C24BF00F8012B00F8012B48BF90
:1008B00000F8012B70474FF0000200B51346944634
:1008C0009646203922BFA0E80C50A0E80C50B1F1A8
:1008D0002001BFF4F7AF090728BFA0E80C5048BFBC
:1008E0000CC05DF804EB890028BF40F8042B08BF5A
:1008F000704748BF20F8022B11F0804F18BF00F856
:10090000012B704710B5044610F0030F08BF11F01B
:10091000030F40F015804FF0013E121FC0F20E8011
:1009200051F8043BA3EB0E0C2CEA030C1CEACE1C82
:1009300008BF40F8043BF0D0A1F1040102F1040229
:10094000521E08DB11F8013B002B00F8013BF7D1E8
:100950001146FFF78EFF204610BD00004FF0013C0E
:1009600050F8042B51F8043B9A4221D1A2EB0C031E
:10097000934313EACC1317D150F8042B51F8043BDE
:100980009A4215D1A2EB0C03934313EACC130BD17B
:1009900050F8042B51F8043B9A4209D1A2EB0C0306
:1009A000934313EACC13DBD04FF00000704700BF35
:1009B000D01A01BAB1FA81F101F0180122FA01F05E
:1009C000CB40C1F12001DBB2C0B2C01A2CFA01F356
:1009D000D11A914311EAC311E6D1704770477047AD
:1009E0007047000000487047340800202DE9F047A8
:1009F0000D4699469246044600F12408016888068F
:100A000004D5E06921F01001216000E00120A84236
:100A100001DD471B00E00027A1697A1902EB0900FC
:100A2000081AA0612078C00602D42046FFF7FAFC1D
:100A3000002608E0D4E901211AF806009047206A50
:100A4000401C761C20624E45F4DB2078C0060AD597
:100A50002046FFF7E7FC06E0D4E90121302090476B
:100A6000206A401C2062381EA7F10107F4DC07E071
:100A7000D4E9012118F805009047206A401C206243
:100A8000281EA5F10105F3DC2046FFF7E1FC2078E4
:100A9000000602D50220BDE8F0870120FBE7000038
:100AA00001694A1C02610878704700B58FB0CDE932
:100AB00001310021059105497944CDE90310114622
:100AC0006846FFF73BFD0FB000BD0000E5FFFFFFEC
:100AD0000A6802F8010B0A607047D1E900239A42C4
:100AE00002D2531C0B601070704710B5436913B1EC
:100AF000AFF3008001E0FFF7BCFC012010BD1278CD
:100B000000F124010A7000224A700122EDE7116809
:100B10004FF0FF32E9E72DE9F04791460F46804656
:100B20000446002614F8015B2DB100F031F800688E
:100B3000405DC007F6D12B2D02D02D2D18D0641E9C
:100B40004A463946204600F02BF827B13968A142C1
:100B500001D1C7F800804FF0020471050BD5404267
:100B6000002803DDFFF73EFF0460A007BDE8F08723
:100B700046F48066E4E70028F8DAFFF733FF046004
:100B80006FF00040F2E70000004870473408002092
:100B900010B500F079F8001D10BD00BF7D76000093
:100BA0002DE9F05F824615468B4600270AF10104C5
:100BB000B9460078302801D09DB113E014F8010B3C
:100BC0000127782803D0582801D045B10AE00DB19B
:100BD000102D07D1002714F8010B102502E008257D
:100BE00000E00A250026B0460EE005FB080005FBE4
:100BF00006F101271FFA80F801EB1046B6F5803F99
:100C000000D3B94614F8010B294600F041F800283A
:100C1000EBDABBF1000F05D00FB1641E00E05446C3
:100C2000CBF80040B9F1000F06D0FFF7DBFE022140
:100C30000160C81EBDE8F09F48EA0640FAE7754625
:100C4000FFF7A2FFAE4605006946534620F00700B5
:100C5000854618B020B5FFF71BFBBDE820404FF0DC
:100C600000064FF000074FF000084FF0000B21F096
:100C70000701AC46ACE8C009ACE8C009ACE8C00963
:100C8000ACE8C0098D467047004870475408002002
:100C90003A2800D2303820F02002412A01D3A2F1B4
:100CA0003700884201D34FF0FF30704710B504463B
:100CB000AFF300802046BDE81040FFF7D4BA000033
:100CC00001491820ABBEFEE7260002007047002352
:100CD00000F004B8012300F001B800002DE9FF4F37
:100CE000DFF88CA0074683B0DAF804001546B84355
:100CF0000E464FF0000800F101094FF01E0B2EE0E8
:100D00002C4648464D4500D90446069868B1A1B224
:100D1000CDE90061CDF808B0BAF80000BAB281B2EE
:100D20001023144801F0FEFB0CE0A0B2CDE90060F6
:100D3000CDF808B0BAF80000BAB281B210230D485D
:100D400001F0EEFA804606982D1B274426444FF00A
:100D5000800908B1062000E0032001F039F815B140
:100D6000B8F1000FCCD007B04046BDE8F08F0000CE
:100D70001C0000207800002070B514460D46064681
:100D8000FF2219462046FFF76CFD002110E0705C41
:100D90003038092801D8C2B200E000224808CB0749
:100DA000235C08D003F0F0031343491C2354C9B259
:100DB000A942ECD370BD62F31F13F6E730B50021F2
:100DC0000FE04C08CD07045D05D004F00F04092C9A
:100DD00003D8303402E02409F9E730245454491C84
:100DE000C9B29942EDD30020D05430BD10B58EB0B9
:100DF0001C216846FFF75FFD142107A8FFF75BFD84
:100E000020480024016841F002010160006800F000
:100E100002000C901B481030016841F00401016091
:100E2000006807A900F004000C9040200790022001
:100E3000CDE90804CDE90A40134801F03BF8144815
:100E40001249016040F28331C0E901146321C0E915
:100E500003148021816103F0F4F880B96020CDE9AA
:100E600000040294002269460948049403F083F8C0
:100E700028B90021064803F027F9002800D00120F6
:100E80000EB010BD3038024000040240000800409F
:100E9000A0030020642800D96420642110FB01F025
:100EA000B0FBF1F002490968486300207047000078
:100EB000A0030020FEE70000194808B5016841F0D2
:100EC00001010160016801F001010091016841F038
:100ED00002010160016801F002010091016841F026
:100EE00004010160016801F004010091016841F012
:100EF00008010160016801F008010091016841F0FA
:100F000020010160016801F020010091016841F0B9
:100F100040010160006800F04000009008BD000042
:100F2000303802402DE9F04F85B014216846FFF7B4
:100F3000C2FCFFF7C1FFDFF88CB0002425464FF05C
:100F400001090BF1400A0BEBC4075E46B9885BF858
:100F50003400002201F0D5F8B8880090CDE9019561
:100F600003954F4656F83400694600F0A3FF0AEB9C
:100F7000C4085646B8F804105AF83400002201F0AC
:100F8000C0F8B8F804000090CDE90175039556F853
:100F90003400694600F08EFF0A48803000EBC4013F
:100FA00089888DE8A200039550F83400694600F066
:100FB00081FF641CE4B2082CC5D305B00020BDE855
:100FC000F08F00009C82000810B5082808D2064A5D
:100FD00002EBC00152F83000898801F085F808B1B1
:100FE000002010BD012010BD1C83000810B508288A
:100FF00001D3062010BD054B0A4603EBC00153F890
:101000003000898801F07DF8002010BDDC820008E6
:1010100010B5082801D3062010BD054B0A4603EB86
:10102000C00153F83000898801F06BF8002010BD32
:101030009C82000870B50E460546082801D306209C
:1010400070BD0C4905EBC50001EB80040121A078BF
:1010500040F01000A0702846FFF7DAFF0121284673
:10106000FFF7C4FF3346E21C2946022004F030FBA0
:10107000002070BD88040020082807D2044A00EB35
:10108000C00002EB8000002180F8201070470000B3
:10109000880400200020084A014600BF01EBC1037C
:1010A00002EB83035B780BB9401CC0B2491CC9B288
:1010B0000829F3D370470000880400202DE9F0418F
:1010C0000D46060016D0ADB10D4F002404EBC40050
:1010D00007EB80008178C90705D00B223146C01C80
:1010E000FFF7FDFA40B1641CE4B2082CEED30420F3
:1010F000BDE8F0810620FBE72C700020F8E7000037
:101100008804002010B50B4608280BD253B10649BD
:1011100000EBC00001EB800124221846FFF76FFBB3
:10112000002010BD062010BD880400202DE9F041EC
:10113000144805F047FD10B10120BDE8F0810024FE
:10114000104F264604EBC40007EB80052046EE61F5
:1011500085F82060FFF738FFC143A87861F3C3002A
:1011600020F07000A87000212046FFF751FF0021F9
:101170002046FFF73BFF641CE4B2082CE2D30020BA
:10118000DBE70000880400202DE9F04115461C46ED
:101190000A46082814D29DB194B1104B00EBC0014F
:1011A00003EB81014FF000068B785F0711D58F6943
:1011B000974208D9012028708869801A20600AE0C7
:1011C0000620BDE8F08123F004028A708E6105F0EC
:1011D0008EFD2E7026600020F3E7000088040020BA
:1011E0002DE9F0410D00804618D00027224E3C46E4
:1011F0002F602046FFF7E8FE0246C14304EBC4001F
:1012000006EB8000837861F3C30383704178022981
:1012100007D0032905D0042918D102E00620BDE833
:10122000F08132B1C3F380124146204600F060FBEA
:101230000CE0042910D0C1694046414506D8C3F3EB
:10124000801201462B46204600F0A2FA641CE4B24C
:10125000082CCED30020E2E790F82110491CC9B237
:1012600080F821101E29F1D380F82170012029680F
:10127000A04001432960E9E7880400202DE9F041FE
:1012800015468846064608281ED2EDB1154806EBDD
:10129000C601002700EB81042F7094F82000401C49
:1012A000C0B284F8200003281AD3A078214640F069
:1012B0000400A07008F5E160A061304605F017FD5C
:1012C00020B10120BDE8F0810620FBE74346E21C87
:1012D0003146032004F0FCF984F8207001202870C6
:1012E0000020EFE7880400202DE9F0478846089E9B
:1012F0001D469146010010D07EB11B48002400BF5E
:1013000004EBC40200EB8202527842B1641CE4B2E6
:10131000082CF5D30520BDE8F0870620FBE704EB99
:10132000C40200EB8207F81C0B22FFF7EBFA002047
:10133000B873B978A7F810907D610220787068F3CF
:10134000410121F02000963540F04000FD61B87069
:1013500001212046FFF75CFE01212046FFF746FEF3
:1013600034700020D7E700008804002010B5044640
:10137000082801D3062010BD0D4A04EBC40002EB7F
:1013800080025078012801D0012010BD0320507048
:101390003C31D1619078012120F0600090702046AE
:1013A000FFF736FE01212046FFF720FE002010BD8A
:1013B00088040020014800F0D1BB00004003002059
:1013C00001681823CAB2103AB2FBF3F2054B6FF36F
:1013D0000901032A9B5CC36500D9091D8165084684
:1013E000704700004E82000810B5014600208B694E
:1013F0008A6A4FF0C07453B1B3F5005F15D072B173
:10140000012A0CD0022A0AD0032A09D104E01AB119
:10141000012A06D0022A03D1C96AC90100D50120D8
:1014200010BDC96AA142FAD010BD002AF7D0012A26
:10143000F2D0022AF3D0032AF3D010BD70B5154EB6
:10144000A2B07488812C00D38024224612496846B9
:10145000FFF790F90025684601E0641EA4B2055527
:10146000A4B1011911F8011C0D29F6D00A29F4D0F4
:10147000716901B1884708486B4608A2A0218030F5
:10148000FEF7B4FF0448803000F014F9357022B044
:1014900070BD000030000020280600204F55543A4F
:1014A0004C4F473A52585F4F4B202D3E202573003A
:1014B00070B598B10A4C002560602570658000F019
:1014C00025FEA06000F022FEC4E90305657000F06F
:1014D00011F904A000F0EEF8002070BD012070BDED
:1014E000300000204F55543A4C4F473A64656275BE
:1014F000675F6C696E6B20696E697469616C697A8B
:1015000065642C2055415254372074657374206DE6
:101510006F64650010B500F0F9FD0E4C41F28832A1
:10152000E168411A914213D3E060607830B101283C
:1015300009D009A000F0BEF8002008E00CA000F0DF
:10154000B9F8012003E00FA000F0B4F802206070A9
:1015500010BD0000300000204F55543A4C4F434B13
:1015600045523A313A4C45445F424C494E4B00009B
:101570004F55543A4C4F434B45523A313A4F5045F0
:101580004E0000004F55543A4C4F434B45523A31B0
:101590003A434C4F5345440030B593B000F0B6FD8C
:1015A000194CA168411AB1F57A7F2AD3A06020694D
:1015B0004FF46161401CB0FBF1F11822B1FBF2F372
:1015C00002FB13133C21B0FBF1F2B2FBF1F501FB7E
:1015D0001522B0FBF1F5206101FB1500CDE90020DB
:1015E0000AA2A0211048FEF701FF0F4800F062F8A0
:1015F0000EA2402102A82369FEF7F8FE02A800F01F
:1016000059F813B030BD0000300000204F55543A57
:10161000434C4F434B3A2530326C753A2530326C8F
:10162000753A2530326C7500A80600204F55543AA3
:101630004D53473A554152543720746573742072A4
:10164000756E6E696E672028256C75207329000001
:10165000054810B5007808B1FFF7F0FEFFF79CFFD2
:10166000BDE81040FFF756BF300000200149486137
:10167000704700003000002070B50C4D0C466968C2
:10168000884211D164B1802C0AD2287840B9084927
:10169000224601F18000FFF76DF86C800120287070
:1016A000BDE8704000F026B870BD0000300000209A
:1016B000A805002010B50C4C616899B190B10346A3
:1016C0000AA2A0210A48FEF791FE00280ADDA02800
:1016D00000DB9F2082B264230549606802F0DBFFD3
:1016E000002800D0012010BD3000002025730A0022
:1016F000A8060020034880220149406802F057BD37
:10170000A80500203000002070470000094B10B5EC
:101710005A788A4201D3002010BD074930308854DE
:10172000521CD0B2587000220A54084606F01EF827
:10173000012010BD5400002028080020084810B5E2
:10174000417851B1491EC9B2064A41700020505437
:10175000104606F00BF8012010BD002010BD00005F
:101760005400002028080020034900204870034945
:10177000087005F0FBBF000054000020280800207E
:10178000801F092801D840B270474FF0FF307047E2
:1017900070B5054600EBC50410481E4600EB8404F6
:1017A00004236370002084F82100A07862F386107F
:1017B000A07080060CD40AB1042000E005200B467E
:1017C000E21C294603F084FFA07840F02000A070BE
:1017D00001213068A9400843306070BD88040020B2
:1017E00072B6FEE7F0B5D1E907354C6A0A68C2B1B6
:1017F00002682B4322F4F842144323430360D1E9E7
:1018000001231A43D1E9033423431A434B698969FD
:101810001A430A4341686FF30E010A4342600020F5
:10182000F0BDD1E901263243D1E903673E4332439B
:101830004E69896932430A431A432A4301682243A5
:101840006FF30E010A430260E9E70000F0B56FF0A4
:101850000F058C8A2E014FEA054ECB682F034FF0FF
:101860007F4C0EEB04540AB31A03A2F5805283682E
:1018700022431D4C23401A438260D1E9002305EB2B
:101880000313521E1A438B6806EB03231A430B8A79
:10189000097E07EB03431A430CEB01610A43C1685D
:1018A00001F070410A43C2600020F0BDD1E9002E72
:1018B00005EB0E15521E2A438D6806EB05252A43BB
:1018C0000A4D05EB03331A430B8A097E07EB0343EA
:1018D0001A4322430CEB01610A43816801F0704115
:1018E0000A438260E0E70000FF0F0FFF00F0FFFFF8
:1018F0002DE9FE43884605461E4900EBC50001EB75
:101900008004002772B1A078214640F00100A07049
:1019100001206070284605F0EAF9E21C434629469A
:10192000002013E00C22E11C6846FEF7EBFF26784E
:1019300024212046FEF7BFFF267067702146284607
:1019400005F0D5F943466A462946012003F0C0FE5A
:10195000A078002120F02000A07084F82170284693
:10196000FFF756FB03B02846BDE8F0430021FFF720
:101970003DBB00008804002010B500F0C7FB044CFC
:10198000E06000F0C3FB206100F05AF8002010BDB9
:10199000540000201CB505E09DF804109DF80000DF
:1019A00002F0CAFE01A9684605F01CFD0028F3D12B
:1019B00004F03CFB0E4CA07968B100F0A7FBA168D5
:1019C000884208D32078042808D0052806D00828A3
:1019D00004D00020A07104F0EDF91CBD05A005F0B5
:1019E000D5FE062004F018FB00F02AF8F3E700000B
:1019F0005400002046696E6765727072696E7420CB
:101A0000656E7472792074696D6564206F757400F9
:101A1000064910B50B200870FFF7A6FE04A005F0DC
:101A200045FEBDE81040054805F0B0BE540000205A
:101A300041444D494E5F4D454E550000BC83000862
:101A400070B50E4C8EB000252570A571FFF78CFE89
:101A50000826E6706571257109A005F027FEFFF7DD
:101A600019FB034608A2302101A80096FEF7BEFC30
:101A700001A805F08BFE0EB070BD000054000020E0
:101A800049444C4500000000417661696C61626C1C
:101A900065206C6F636B6572733A2025752F257511
:101AA000000000002DE9F0410446876D00F02EFB98
:101AB000064694F835000025022806D0802060658F
:101AC00084F834500120BDE8F0812068016821F0DD
:101AD000160101602068416921F080014161206C9C
:101AE00008B9A06C20B12068016821F008010160EC
:101AF0002068016821F0010101600CE000F006FBA4
:101B0000801B052807D920206065032084F8350054
:101B100084F83450D7E720680068C007EED194F805
:101B20005C103F208840B860012084F8350084F8BC
:101B300034500020C7E790F83510022903D08021E7
:101B4000416501207047052180F835100068016863
:101B500021F0010101600020704700002DE9F843E9
:101B600004464FF00009CDF8009063484FF4165139
:101B7000A56D0068B0FBF1F72E6894F85C100820A2
:101B800000FA01F131420FD021680A6852070BD5E3
:101B90000A6822F004020A6094F85C108840A86089
:101BA000606D40F00100606594F85C104FF0010832
:101BB00008FA01F0304208D021684969090604D5C5
:101BC000A860606D40F00200606594F85C1004202D
:101BD0008840304208D021680968890704D5A86088
:101BE000606D40F00400606594F85C10102088403F
:101BF000304218D021680968090714D5A860206808
:101C00000168490304D50068000308D5A16C07E00A
:101C10000168C90503D4016821F008010160216C45
:101C200009B12046884794F85C1020208840304253
:101C300031D021680968C9062DD5A86094F835000F
:101C400005282068016806D0490347D500680003CD
:101C50001DD4616C1CE021F016010160206841690F
:101C600021F080014161206C08B9A06C20B120688E
:101C7000016821F00801016094F85C103F20884061
:101C8000A86084F8358084F83490216D1FE0E16B02
:101C900009B120468847606D00282BD0606DC007D1
:101CA00014D0052084F835002068016821F0010176
:101CB00001600098401C0090B84203D8206800687A
:101CC000C007F6D184F8358084F83490E16C00299F
:101CD00010D001B02046BDE8F04308470168C905AF
:101CE000D5D4016821F01001016084F8358084F8B2
:101CF0003490CCE7BDE8F883140000202DE9F041D2
:101D0000044600F003FA06465CB1022084F8350070
:101D1000002584F834502068016821F00101016039
:101D20000DE00120BDE8F08100F0F0F9801B0528EE
:101D300005D920206065032084F83500F2E720688B
:101D40000068C007F0D12268116820480140D4E93A
:101D500001031843D4E90336334318436369184336
:101D6000A3691843E3691843236A18430843616A67
:101D7000042903D1D4E90B131943084310602068E8
:101D80004069666A20F0070130460E4301270428A7
:101D90000CD1A06A0643E06A40B12046FFF724FB5D
:101DA00020B14020606584F83570BAE7206846614C
:101DB0002046FFF705FB94F85C203F2191408160AD
:101DC000656584F835700020ACE700003F8010F0B6
:101DD00070B5044600F09AF90546601C02D004482C
:101DE0000078044400F092F9401BA042FAD370BD81
:101DF00008000020F0B587B014216846FEF75BFDAF
:101E000025480168002944D10121016023480024AC
:101E1000016841F0010101600068022500F0010045
:101E200005904FF63F00CDE9000502AA03260C27D6
:101E300082E8D00069461A4800F03CF80D20CDE950
:101E4000000502AA694682E8D000164800F032F880
:101E500048F23310CDE9000502AA694682E8D000B5
:101E6000114800F027F84FF68370CDE9000502AA6B
:101E7000694682E8D0000D4800F01CF84CF203706F
:101E8000CDE9000502AA694682E8D000084800F0C2
:101E900011F807B0F0BD0000000000203838024003
:101EA00000140240000802400018024000100240E6
:101EB000000C02402DE9F84FDFF8F8A100220124C0
:101EC00003254FF00F090AF1040BAAF1040E00BF1D
:101ED0000B6804FA02F63340B34270D10F7907F071
:101EE0000307012F01D0022F16D187684FEA42085D
:101EF00005FA08FC27EA0C07D1F80CC00CFA08FC1C
:101F00004CEA070CC0F808C04768B7430E79C6F31F
:101F1000001696403E4346600E79F643B6070AD057
:101F2000C7684FEA420C05FA0CF6B7438E6806FA0A
:101F30000CF63E43C6600E7906F00306022E10D161
:101F4000D60800EB8608D8F8206057074FEAD76C10
:101F500009FA0CF7BE430F6907FA0CF73743C8F8C4
:101F6000207006684FEA420C05FA0CF7BE430F7961
:101F700007F0030707FA0CF7374307604E6816F4BB
:101F8000403F1CD04C4E376847F480473760366876
:101F900022F0030706F480460096484E07EB060C35
:101FA000DCF8086897073F0F09FA07F826EA0806E1
:101FB000DFF80C81404503D14FF0000841E072E0AA
:101FC000DFF80081404502D14FF0010839E0DFF829
:101FD000F880404502D14FF0020832E0DFF8EC8093
:101FE000404502D14FF003082BE0DFF8E480404584
:101FF00002D14FF0040824E0DFF8D880404502D138
:102000004FF005081DE0DFF8D080404502D14FF0C9
:10201000060816E0DFF8C480404502D14FF00708FB
:102020000FE0DFF8BC80404502D14FF0080808E01F
:10203000DFF8B080404502D14FF0090801E04FF0D1
:102040000A0808FA07F848EA0608CCF80888DAF817
:1020500000605746D1F804C09E435FEACC2C00D5FF
:102060001E433E60DBF800605F46D1F804C09E432B
:102070005FEA8C2C00D51E433E60DEF80060774698
:10208000D1F804C09E435FEA8C3C00D51E433E60FD
:10209000084F083F3E68D1F804C09E435FEACC3C3D
:1020A00000D51E433E60521C102AFFF411AFBDE85C
:1020B000F88F0000083C01404438024000300140E5
:1020C000000002400004024000080240000C0240F0
:1020D000001002400014024000180240001C0240A0
:1020E00000200240002402400069084000D0012086
:1020F0007047426921EA02030A4043EA02418161D2
:1021000070470AB1816170470904FBE701488068A4
:10211000704700000800002090F83D20202A01D0E0
:1021200002207047242280F83D200268136823F0C3
:10213000010313600268536A23F0100353620268BC
:10214000536A0B43536201680A6842F001020A6055
:10215000202180F83D100020704790F83D20202A73
:1021600001D002207047242280F83D2002681368C5
:1021700023F00103136003685A6A22F00F020A4336
:1021800091B2596201680A6842F001020A60202196
:1021900080F83D100020704770B5040025D094F8F9
:1021A0003D00002520B984F83C50204600F052FA4A
:1021B000242084F83D002068016821F001010160BD
:1021C0002068016841F4004101602068016821F441
:1021D0000041016000F078FE4D4A6168914201D8EB
:1021E0004C4900E04C49884201D2012070BD4B4966
:1021F0002368B0FBF1F15E6826F03F060E435E6097
:102200006368934206D94FF4967359434FF47A7337
:10221000B1FBF3F12368491C1E6A26F03F063143E7
:1022200019626168914210D84900401EB0FBF1F27A
:10223000521CC2F30B02042A01D2042022E0B0FB9C
:10224000F1F0401CC0F30B001CE0A268F2B301EBFC
:10225000C10303EB0116431EB3FBF6F35B1C43F40F
:1022600080431B0549D092B301EBC10202EB01117F
:10227000401EB0FBF1F0401CC0F30B0040F4804066
:1022800040F400402168CA694CF6FF739A4310433A
:10229000C861D4E9071001432068026822F0C00237
:1022A00011430160D4E9030101432068826848F2C8
:1022B000FF339A4311438160D4E905010843216843
:1022C000CA6822F0FF021043C86001E00EE016E089
:1022D0002068016841F0010101602564202084F834
:1022E0003D00256384F83E50002070BD01EB41069F
:1022F000431EB3FBF6F35B1CB3E70120C2E701EB1F
:102300004101401EB0FBF1F0401CC0F30B00B7E7E9
:10231000A086010080841E0000093D0040420F009D
:102320002DE9FF4F83B09A46DDE9118793460446B5
:10233000DDF84090FFF7EAFE054694F83D002028BE
:1023400070D11923012274492046009502F06EFFD6
:102350000028F5D194F83C00012863D0012084F8CE
:102360003C0020680168C90703D1016841F0010100
:1023700001602068016821F400610160222084F876
:102380003D00402084F83E0000262664C4F82490D6
:10239000A4F82A80608D20856048E062CDE9007550
:1023A00053465A462046049902F042FE002879D14D
:1023B000208DD0B1012821D00228206824D0416985
:1023C00080690090208D032866D801282BD05449BD
:1023D00002283B464FF00002009557D08846204621
:1023E00002F024FF00285DD13AE02068416981694C
:1023F0000091016841F4007101607DE0206801688E
:1024000021F480610160F0E7016821F480610160DE
:102410002068016841F400610160206841698069B9
:10242000009069E075E02A463946204602F0A4FF94
:1024300088BB54E02068016841F4007101602068A5
:102440000069616A0870606A401C6062218D491EE3
:102450002185618D491E618521680969017042E00D
:102460002068016821F48061016020680069616A68
:102470000870606A401C6062208D401E2085608D5F
:10248000401E60853B46002241460095204602F0F2
:10249000CDFE00B9CEE705E02A463946204602F0D7
:1024A0006BFF18B1012007B0BDE8F08F206800690C
:1024B000616A0870606A401C6062208D401E81B2B3
:1024C0002185608D401E608520684269D243520795
:1024D00012D4032903D1016821F4806101602068CE
:1024E0000069616A0870606A401C6062208D401E4D
:1024F0002085608D401E6085208D00287FF462AFAE
:10250000202084F83D0084F83E6084F83C60002080
:10251000C9E70220C7E70000020010000000FFFF2B
:10252000040001002DE9FF4F83B09A46DDE91197C1
:1025300093460446DDF84080FFF7E8FD054694F831
:102540003D0020287FD119230122404920460095D3
:1025500002F06CFE002876D194F83C00012872D07D
:10256000012084F83C0020680168C90703D1016894
:1025700041F0010101602068016821F400610160FF
:10258000212084F83D00402084F83E000026266487
:10259000C4F82480A4F82A90608D20852C48E0623D
:1025A000CDE9007553465A462046049902F0BEFD17
:1025B00070B930E02A463946204602F015FF58B17E
:1025C000206C042804D12068016841F40071016086
:1025D000012007B0BDE8F08F606A216800780861CB
:1025E000606A401C6062218D491E89B22185628D1E
:1025F000521E628522685369DB435B070BD469B1C5
:1026000000781061606A401C6062208D401E208549
:10261000608D401E6085208D0028CBD12A4639462A
:10262000204602F0D7FD0028CAD154F83D0B0168BE
:1026300041F400710160202004F81E09E6776677F6
:102640000020C6E7FFE70220C3E7000002001000F9
:102650000000FFFFF0B587B0044614216846FEF77E
:102660002AF91D492068884233D11C48002401689A
:1026700041F004010160016801F004010591016865
:1026800041F0010101600068122500F00100059091
:102690004FF40070CDE9000502AA0326042782E862
:1026A000D00069460E48FFF705FCB801CDE90005EA
:1026B00002AA694682E8D0000A48FFF7FBFB0748F8
:1026C0001030016841F400010160006800F400006E
:1026D000059007B0F0BD0000005C004030380240BB
:1026E000000802400000024002488168027811445C
:1026F00081607047080000200B4810B5016841F464
:1027000000710160016841F480610160016841F479
:1027100080710160032000F0C1F90F2000F006F87D
:1027200000F076F9002010BD003C024070B50D4D60
:1027300004464FF47A712878B1FBF0F00A49096831
:10274000B1FBF0F001F069FA48B9102C07D2002271
:102750002146501E00F082F900206C6070BD0120FF
:1027600070BD000008000020140000202DE9F04199
:10277000044690F8A00016460F4601281DD00125FA
:1027800084F8A050022084F8A10006EB860000EB3C
:10279000C60004EB800034223830FEF730F83246B1
:1027A0003946204602F0EEFE2068456284F8A150CA
:1027B000002084F8A000BDE8F0810220FBE770B59E
:1027C000040004D094F8A100002510B106E0012017
:1027D00070BD84F8A050204600F050F8022084F824
:1027E000A1002068816921F070418161D4E9010173
:1027F0000843D4E903121143084321688A6910434E
:102800008861A08AA16941EA004120688160A08BAB
:10281000216A41EA00412068C160A08CA16A41EAB6
:10282000004120680161A08D216B41EA00412068D0
:10283000416194F835002168030294F83600CA6AB1
:1028400002F07F42CA622168CA6A94F8346043EA9F
:10285000004032430243CA622068416B41F00601E6
:1028600041632068816941F001018161C4F8A4508D
:10287000012084F8A100002070BD00002DE9F04186
:1028800092B0044614216846FEF715F8302105A8D9
:10289000FEF711F85649206888427DD1082005903E
:1028A000002432200E94022509900B9505A800F013
:1028B0003FF908B1FEF794FF4E48016841F080618E
:1028C0000160006800F0806011904A481438016887
:1028D00041F020010160016801F0200111910168BF
:1028E00041F001010160016801F0010111910168ED
:1028F00041F002010160016801F0020111910168DB
:1029000041F040010160016801F04001119101684E
:1029100041F004010160016801F0040111910168B6
:1029200041F00801016000680E2600F008001190D7
:102930004FF480600090CDE90154CDE9034669462B
:102940002D48FFF7B7FA41F658000090CDE9015441
:10295000CDE9034669462948FFF7ACFA0320009009
:10296000CDE901540927DFF89880CDE9034769468E
:102970004046FFF79FFA4FF470600090CDE9015494
:10298000CDE9034669464046FFF794FA4FF40C60E0
:102990000090CDE9015400E027E0DFF86880CDE940
:1029A000034669464046FFF785FA4FF49860009069
:1029B000CDE90154CDE9034669461348FFF77AFA99
:1029C00048200090CDE90154CDE9034669460F48FF
:1029D000FFF770FA4FF4A0500090CDE90154CDE913
:1029E000034769464046FFF765FA12B0BDE8F0813B
:1029F00000680140443802400014024000000240D8
:102A0000000402400018024000080240000C02408E
:102A10000A4808B5016841F480410160006800F48B
:102A2000804000900548001F016841F0805101601E
:102A3000006800F08050009008BD0000443802405B
:102A4000002809DB00F01F020121914040098000AD
:102A500000F1E020C0F8001170470000F0B40E4B08
:102A60001B680C46C3F30223C3F10705042D00D9EC
:102A70000425191D072901D2002300E0DB1E0126D1
:102A800006FA05F1491E214099409E40761E1640E7
:102A90003143F0BC05F06CBA0CED00E0064900F0E3
:102AA000070208684FF6FF03184040EA0220034A75
:102AB00010430860704700000CED00E00000FA05CC
:102AC0002DE9F8431748016841F080510160006822
:102AD000154F00F08050012600903E64FFF716FB72
:102AE00005464FF47A78114C05E000BFFFF70EFB66
:102AF000401B40450DD86068C003F7D57E64FFF7E2
:102B000005FB0546464607E0FFF700FB401BB042C9
:102B100002D90320BDE8F88360688003F4D5002063
:102B2000F8E700004038024000000E42007000400C
:102B30002DE9F84F04460068DFF824A2894F8A4D3A
:102B4000C1074FF001084FF0000603D1810701D4FF
:102B5000400648D5CAF86860FFF7D8FA814605E014
:102B6000FFF7D4FAA0EB090002287DD828680001FD
:102B7000F6D42078C1077D4805D06168227A8901A2
:102B800041EA027101602178890711D50168626804
:102B9000237B9201C1F3027142EA036242EA0171AE
:102BA00001603968E26921F01F01521E114339604A
:102BB0002178490608D56168227B890141EA0261D2
:102BC000227A41EA02710160CAF86880FFF79EFA32
:102BD000814605E0FFF79AFAA0EB0900022843D8E6
:102BE00028680001F6D52068410701D400074ED5BA
:102BF000CAF87060FFF78AFA814605E0FFF786FAA7
:102C0000A0EB090002282FD82868C0438000F5D522
:102C100020784107564814D501682269237D920126
:102C2000C1F3027142EA036242EA0171016039684C
:102C3000226A6FF0FF0321F4F85103EB02221143E3
:102C400039602178090712D501682269C1F303614F
:102C5000920142EA0161227E41EA02710160386814
:102C6000616A20F4403000E051E008433860CAF85F
:102C70007080FFF74BFA074605E000BFFFF746FA02
:102C8000C01B022843D82868C0438000F6D42078AF
:102C9000800653D534484030016841F080510160CE
:102CA0000068344D00F080500090286840F4807037
:102CB0002860FFF72BFA074605E000BFFFF726FA6A
:102CC000C01B022823D82868C005F7D5274D143D1E
:102CD000286810F4407020D0218D01F440718142A9
:102CE0001BD0286820F440712348C0F8008006609B
:102CF00029602868C00710D0FFF708FA064641F29D
:102D0000883707E0FFF702FA801BB84202D9032098
:102D1000BDE8F88F28688007F4D5A16A1248C1F38E
:102D200001220830032A13D0016821F4F811016050
:102D30002868218DC1F30B01084328602078C00664
:102D400004D50E4994F82C00C1F8E0010020DFE71B
:102D500002680B4B22F4F81219400A430260E7E7BD
:102D6000000047428C38024000380240843802405C
:102D70008838024000700040400E47420010474231
:102D8000FFFCFF0F704700002DE9F0470E460500DD
:102D900065D0DFF81481D8F80000F7B200F00F001A
:102DA000B04207D288F80070D8F8000000F00F0099
:102DB000B04254D128683D4C810712D5400703D555
:102DC000206840F4E05020602878000703D5206890
:102DD00040F4604020602068A96820F0F0000843BB
:102DE00020602878C0072DD030496868083901284C
:102DF00012D0022813D0032811D0096889070029AE
:102E00002DDA216821F0030101432160FFF77EF9EB
:102E1000814641F2883A0EE009688903EFE70968C4
:102E20008901ECE7FFF772F9A0EB0901514502D9DE
:102E30000320BDE8F0872068696800F00C00B0EB63
:102E4000810FEFD1D8F80010404601F00F01B142D8
:102E500007D90770006800F00F00B04201D00120D0
:102E6000E7E72878400705D52068E96820F4E050B6
:102E7000084320602878000706D52068296920F4D7
:102E8000604040EAC100206000F03EF82168084A36
:102E9000C1F30311515CC840064908600648006848
:102EA000FFF744FC0020C4E7003C02400838024021
:102EB00056820008140000200C0000200149012067
:102EC000C864704700004742044805490068096823
:102ED000044AC1F38221515CC840704714000020AD
:102EE00008380240668200080448054900680968FD
:102EF000044AC1F34231515CC840704714000020BD
:102F00000838024066820008154810B5006810F0C5
:102F10000C02144813D04110042A0FD0082A0ED1F5
:102F20000F4C241F2268236802F03F025B0207D582
:102F30002068C0F38810A0FB010106E0084610BD20
:102F40002168C1F38811A1FB00010023FDF7B2F94C
:102F50002168C1F30141491C4900B0FBF1F010BDEB
:102F6000083802400024F400054810B50068000647
:102F700005D5FFF707FF02498020891C087010BDA6
:102F80000C3802402DE9F84F04006ED02078DFF8AD
:102F90004C93C007A9F104054AD009F10400016867
:102FA000C1F38101012908D00068C0F38100022823
:102FB0000AD1D9F80000400206D52868800337D529
:102FC00060680028E1D033E06068B0F5803F10D041
:102FD000B0F5A02F286810D020F480302860286831
:102FE00020F4802028606068A8B1FFF78FF80646BB
:102FF0000DE0286840F48030F4E740F48020286039
:10300000F7E700BFFFF782F8801B642873D82868B1
:103010008003F7D50CE0FFF779F8064605E000BF1E
:10302000FFF774F8801B6428F0D828688003F7D471
:103030002078DFF8AC8280074FF0000A3ED5A74821
:10304000001D016811F00C0F08D00068C0F381006A
:1030500002280BD1D9F80000400207D42868800765
:1030600016D5E068012800D112E033E1E068B8B17C
:103070000120C8F80000FFF749F8064605E000BF48
:10308000FFF744F8801B0228C0D828688007F7D5CE
:103090002868216920F0F80040EAC10028600DE0AE
:1030A000C8F800A0FFF732F8064604E0FFF72EF854
:1030B000801B02281FD828688007F7D420780007D3
:1030C00022D5864F87486169703771B1012101604F
:1030D000FFF71CF8064604E0FFF718F8801B0228EB
:1030E00009D838688007F7D50EE0C0F800A0FFF7D0
:1030F0000DF8064605E082E0FFF708F8801B02287D
:103100007DD838688007F7D42078400768D5DFF885
:10311000CCB100270BF13C0BDBF80000C0000BD456
:10312000DBF8001041F08051CBF80010DBF8000014
:10313000012700F0805000906B4E3068C00510D41D
:10314000306840F480703060FEF7E0FF009005E0EA
:10315000FEF7DCFF0099401A022850D83068C005FD
:10316000F6D55E4EA0686C3601280FD00528306871
:1031700010D020F001003060306820F00400306092
:10318000A068B8B1FEF7C2FF00900FE0306840F0D1
:103190000100F4E740F004003060F7E7FEF7B6FF07
:1031A0000099411A41F28830814266D83068800720
:1031B000F4D50EE0FEF7AAFF009007E0FEF7A6FFA9
:1031C0000099411A41F28830814256D83068800710
:1031D000F4D42FB1DBF8001021F08051CBF80010AF
:1031E000A069C8B33D49091D0968C1F381010229DD
:1031F0004AD00228504607D0C8F8600000E03CE002
:10320000FEF784FF04463BE04746C8F86000FEF73F
:103210007DFF064605E000BFFEF778FF801B022811
:103220002BD828688001F7D4D4E907010843A16AA4
:103230002E4A490802EB0141626A41EA82110843C1
:1032400094F82C1040EA0161C9F80010012038669A
:10325000FEF75CFF044606E03EE000BFFEF756FFC7
:10326000001B022809D828688001F7D534E000BF88
:10327000FEF74CFF001B022802D90320BDE8F88F9F
:1032800028688001F4D427E00128F7D0D9F800009D
:10329000E26900F4800191421CD1226A00F03F01F2
:1032A000914217D147F6C071626A0140B1EB821FAB
:1032B00010D1A26A4FF0FF3300F4403103EB520209
:1032C000B1EB024F06D194F82C1000F07060B0EB17
:1032D000016F01D00120D1E70020CFE70438024080
:1032E00000004742800E4742007000400000FFFF90
:1032F0000068503050F8210070470068503040F8A6
:103300002120704710B500680B4641680D48014008
:10331000080CD870C1F304245C7001F03F049C7069
:10332000C1F34231197052B903F072F8D87058786D
:1033300003F06EF85870987803F06AF898700020DF
:1033400010BD00003FFFFF0010B50B460168896A01
:10335000596001680969C1F30E019960006801684C
:103360000D480140C1F305401870C1F306245C709C
:1033700001F07F049C70890DD97052B903F048F8B0
:103380001870587803F044F85870987803F040F8B3
:103390009870002010BD00007F7F7F0010B50400F2
:1033A00002D0607F10B106E0012010BD0020207720
:1033B000204600F041F8022060772068C168C943C8
:1033C000C90632D5CA21416221685320486220468D
:1033D00003F078F820BB20688168164A11408160AC
:1033E0002168886862681043D4E904231A431043B3
:1033F00088602168E068086120680169228941EAE3
:1034000002410161204603F081F848B921680A6C45
:1034100022F480220A6421680A6CA3691A430A64B0
:103420002268FF21516208B110BD0020012161779F
:1034300010BD0000BFFF8FFF10B58CB004463021D7
:103440006846FDF738FA0949206888420CD12020E7
:103450000090C0000A906846FFF76AFB08B1FEF7CB
:10346000BFF90349012008600CB010BD00280040DE
:103470003C0E474270B50446007F0B46012819D028
:103480000126267702206077B2B19878D97840EA91
:10349000014558781978000240EA41300543216817
:1034A000CA204862216853204862204603F00AF887
:1034B000D0B122E0022070BD5878C10603D500F0DB
:1034C000EF000A305870D87802F0ABFF0204587849
:1034D00002F0A7FF42EA0022987802F0A2FF02431E
:1034E000187842EA4035DAE7074805402068456029
:1034F000204603F00BF800B966772268FF2151627D
:103500000021217770BD00003FFFFF002DE9F04151
:103510000446007F0D46012823D04FF0010884F8AF
:103520001C80022060772068002780684FEA406096
:10353000D2B1002800DBEF70A878297840EA014674
:103540006878E978000240EA815006432168CA2081
:103550004862216853204862204602F0B3FFB8B1A8
:103560002CE00220BDE8F081002800DBEF70287815
:1035700002F057FF0204687802F053FF42EA00228B
:10358000A87802F04EFF0243E87842EA8056DDE771
:103590000D480640206806602068816821F480217B
:1035A0008160D5E90301084321688A681043886077
:1035B000204602F0ABFF08B984F81D802268FF2185
:1035C00051622777CEE700007F7F7F0070B5044609
:1035D0000B482168C860FEF799FD05464FF47A76DE
:1035E00007E000BFFEF792FD401BB04201D9032067
:1035F00070BD2068C0688006F4D5002070BD000052
:103600005F7F010070B50D46040003D094F82C00D4
:1036100010B107E0012070BD002084F82D00204685
:1036200000F011F8022084F82C00211D2068FEF71C
:10363000D9F8D4E900022946FEF708F9012084F8F8
:103640002C00002070BDFEF7D5BB70B5040009D07A
:10365000606A002540B125616561A56294F851005A
:1036600040B10CE0012070BD6068B0F5827FF4D0FD
:10367000E561F2E784F85050204600F045F802205A
:1036800084F851002068016821F040010160A088A1
:10369000218900F4827001F404410843A18901F4F6
:1036A00000610843217C01F002010843217D01F003
:1036B00001010843218B01F400710843217F01F0CF
:1036C0003801084394F8201001F080010843218D4F
:1036D00001F40051084321680860A069042101EA4F
:1036E000104094F8241001F010010843216848604C
:1036F0002068C16921F40061C1616565012084F819
:103700005100002070BD000010B586B004461421A1
:103710006846FDF7D0F813492068884220D1124846
:103720000021026842F480520260006800F4805078
:1037300005900D481438026842F0020202600068E9
:1037400000F002000590382000900220CDE9010130
:10375000032003900520049069460448FEF7AAFB65
:1037600006B010BD00300140443802400004024061
:103770002DE9F84F044690F851001D4616460F46B5
:10378000012838D1002F77D0002E75D060684FF017
:103790000408B0F5827F01D1A06810B3FEF7B6FC33
:1037A000824694F85000012825D04FF0010984F892
:1037B000509084F851804FF00008C4F85480A763FB
:1037C000A687E687C4F83080A4F83480A4F8368051
:1037D000C4F84080C4F84480A068B0F5004F0CD015
:1037E00015E084F85180009313460A46204600F005
:1037F0001CF9BDE8F88F0220FBE72068016821F082
:10380000400101602068016821F480410160206866
:103810000168490603D4016841F040010160E06895
:10382000C0B134E020688168C90709D0007BA16B72
:103830000870A06B401CA063E08F401EE08709E089
:10384000FEF764FCA0EB0A00A84202D3681C01D07A
:1038500032E085B3E08F0028E4D11BE02068816866
:10386000C9070AD0C068A16B0880A06B801CA06348
:10387000E08F401EE0870AE01BE0FEF747FCA0EB6C
:103880000A00A84202D3681C01D015E09DB1E08F68
:103890000028E3D152462946204603F005F808B136
:1038A0002020606584F8519084F85080606D002875
:1038B0009FD001209DE7FFE784F8519084F8508065
:1038C000032096E72DE9F84F984616468A460446A7
:1038D000FEF71CFC814694F8510001281ED1BAF174
:1038E000000F73D0002E71D094F85000012815D02D
:1038F000012784F85070032084F851000025656585
:10390000C4F830A0A686E686A563A587E58765642A
:103910002564A068B0F5004F03D00CE00220BDE89C
:10392000F88F2068016821F040010160206801687B
:1039300041F48041016020680168490603D40168B0
:1039400041F040010160E068B0F5006F606803D0AD
:1039500048B3012E27D047E008B1012E1FD1206BBC
:1039600021680088C86006E020688168890709D559
:10397000216B0988C160206B801C2063E08E401E93
:10398000E0860CE0FEF7C2FBA0EB0901414503D342
:10399000B8F1FF3F03D035E0B8F1000F32D0E08E30
:1039A0000028E1D123E0206B21680078087306E04D
:1039B0002068816889070AD5216B09780173206B1B
:1039C000401C2063E08E401EE0860DE02BE0FEF7F9
:1039D0009DFBA0EB0901414503D3B8F1FF3F03D0A4
:1039E00010E0B8F1000F0DD0E08E0028E0D14A467B
:1039F0004146204602F086FF08B120206065A0689D
:103A000030B109E084F8517084F85050032086E703
:103A10002068C1688068009084F8517004F8505F95
:103A200060680028F3D0012079E72DE9FF4F81B0CD
:103A30001D46934604464FF001090E9EFEF766FBB5
:103A4000074694F851006168012806D0B1F5827FDD
:103A50003CD1A168C9BB042838D10298002871D094
:103A6000BBF1000FFBD0002DF9D094F850000128D5
:103A70002CD04FF0010A84F850A094F8510004288B
:103A800002D0052084F851004FF00008C4F854809B
:103A9000C4F838B0E587A58702992163E586A58635
:103AA000C4F84080C4F8448020680168490603D403
:103AB000016841F040010160E068B0F5006F6068A6
:103AC00008D0F0B3012D49D081E0FFE7022005B016
:103AD000BDE8F08F08B1012D39D1206B2168008835
:103AE000C860206B801C2063E08E401EE0862EE0C4
:103AF0002068816889070FD5E18E69B1B9F1010F9E
:103B00000AD1216B0988C160206B801C2063E08E84
:103B1000401EE0864FF0000920688168C9070CD07C
:103B2000E18F51B1C068A16B0880A06B801CA063BD
:103B3000E08F401EE0874FF00109FEF7E7FAC01B57
:103B400001E00BE067E0B04201D3701C50D1E08E81
:103B50000028CDD1E08F0028CAD13EE0206B21683B
:103B600000780873206B401C2063E08E401EE086C6
:103B70002DE02068816889070FD5E18E69B1B9F120
:103B8000010F0AD1216B09780173206B401C20635F
:103B9000E08E401EE0864FF0000920688168C9076A
:103BA0000CD0E18F51B1C068A16B0870A06B401CB4
:103BB000A063E08F401EE0874FF00109FEF7A6FAF0
:103BC000C01BB04202D3701C01D011E086B1E08E60
:103BD0000028CED1E08F0028CBD13A46314620468E
:103BE00002F090FE50B12020606584F8508012E011
:103BF00084F851A084F85080032068E7A06818B9C1
:103C00002068C1688068009084F851A084F85080D2
:103C1000606D0028F1D0012059E710B5401EB0F1C9
:103C2000807F01D3012010BD4FF0E02460610F219F
:103C3000601704F09DF90020A0610720206100209A
:103C400010BD70477047000070B590F83C20012A05
:103C500032D0012480F83C40022280F83D200368E5
:103C60005A689D6822F070060A6832435A60134B06
:103C700002689A4214D0B2F1804F11D0104B9A4290
:103C80000ED0104B9A420BD00F4B9A4208D00F4BDC
:103C90009A4205D00E4B9A4202D00E4B9A4204D162
:103CA000496825F080031943916080F83D40002168
:103CB00080F83C10084670BD022070BD0000014035
:103CC0000004004000080040000C004000040140D7
:103CD000004001400018004010B5040003D094F8E3
:103CE0003D0010B107E0012010BD002084F83C0029
:103CF000204600F01FF8022084F83D00211D2068B6
:103D000003F0C8F8012084F8460084F83E0084F8E7
:103D10003F0084F8400084F8410084F8420084F8B1
:103D2000430084F8440084F8450084F83D000020F6
:103D300010BD000008B500680B49884212D10B483D
:103D4000016841F4807101600068002200F4807015
:103D5000009011462D20FEF781FEBDE808402D2081
:103D6000FEF76EBE08BD0000002000404038024053
:103D700090F83D10012901D001207047022180F800
:103D80003D100168CA6842F00102CA60006811492A
:103D9000884214D0B0F1804F11D00F4988420ED024
:103DA0000E4988420BD00E49884208D00D498842FE
:103DB00005D00D49884202D00C49884204D181685F
:103DC00001F00701062903D0016841F001010160FB
:103DD000002070470000014000040040000800403F
:103DE000000C004000040140004001400018004069
:103DF00070472DE9F04104460068C66805694FF038
:103E00000007A90713D5B10711D5F91E01610120DB
:103E10002077206880698007204602D0FFF7E8FFFE
:103E200004E000F0A7F8204600F04CF92777680777
:103E300016D5700714D521686FF0040008610220C0
:103E400020772068806910F4407F204602D0FFF779
:103E5000CFFF04E000F08EF8204600F033F927771A
:103E6000280715D5300713D521686FF008000861C1
:103E7000042020772068C0698007204602D0FFF721
:103E8000B7FF04E000F076F8204600F01BF9277732
:103E9000E80616D5F00614D521686FF01000086109
:103EA000082020772068C06910F4407F204602D0A7
:103EB000FFF79EFF04E000F05DF8204600F002F9F5
:103EC0002777E80708D0F00706D021686FF00100D7
:103ED0000861204600F05CF9280608D5300606D5B2
:103EE00021686FF0800008612046FFF7AAFE68068F
:103EF00008D5700606D521686FF04000086120469D
:103F000000F054F9A8060AD5B00608D521686FF06C
:103F1000200008612046BDE8F041FFF793BEBDE8F0
:103F2000F081000010B586B0044614216846FCF705
:103F3000C2FC0D492068884214D10C480021026857
:103F400042F002020260006800F00200059040208A
:103F500000900220CDE90101CDE903106946044833
:103F6000FDF7A8FF06B010BD000800403038024041
:103F700000040240704770B5044690F83C000026EB
:103F80000D4601280FD0012084F83C006AB1042AB4
:103F90001DD0082A2FD00C2A3FD00126002084F8FB
:103FA0003C00304670BD022070BD206802F0E8FF82
:103FB0002068816941F0080181612068816921F0F0
:103FC00004018161206881692A69114311E0206838
:103FD00003F006F82068816941F40061816120687E
:103FE000816921F480618161206881692A6941EADF
:103FF00002218161D2E7206803F028F82068C169B6
:1040000041F00801C1612068C16921F00401C1616A
:104010002068C1692A69114311E0206803F04AF859
:104020002068C16941F40061C1612068C16921F45F
:104030008061C1612068C1692A6941EA0221C161C8
:10404000ACE710B5040003D094F83D0010B107E0D0
:10405000012010BD002084F83C00204600F01EF82E
:10406000022084F83D00211D206802F013FF01208A
:1040700084F8460084F83E0084F83F0084F840004D
:1040800084F8410084F8420084F8430084F8440036
:1040900084F8450084F83D00002010BD08B5006894
:1040A0000649884208D10648016841F004010160D0
:1040B000006800F00400009008BD00000008004007
:1040C000403802407047000010B50446022249B152
:1040D00004290ED0082913D094F84100012816D0E5
:1040E000012010BD94F83E000128F9D184F83E204B
:1040F0000FE094F83F000128F2D184F83F2008E057
:1041000094F840000128EBD184F8402001E084F8C5
:1041100041200122206802F025FF16492068164A36
:10412000884201D0904203D1436C43F4004343647E
:104130002068884213D0B0F1804F10D00F498842D8
:104140000DD00F4988420AD00E49884207D09042CC
:1041500005D00D49884202D00C49884204D18168BB
:1041600001F00701062903D0016841F00101016057
:10417000002010BD00000140000401400004004088
:1041800000080040000C00400040014000180040C2
:1041900000680449884203D140210348FDF7A9BFC4
:1041A000704700000020004000100240704718B522
:1041B000034690F84200202801D0022018BD61B1CA
:1041C0005AB10120186300205863184603F0B6F86E
:1041D0000028F3D1196B012901D0012018BD1968FD
:1041E0000A684968009119680C3151E8002F42F0C3
:1041F000100241E80024002CF5D118BDFDF73CBAAF
:1042000070470000F8B5016804460868CA684B6941
:1042100010F00F0F4FF0000559D003F0010602F423
:104220009077374365D0C10705D0D10503D5616CC0
:1042300041F001016164410705D5D90703D0616CE4
:1042400041F002016164810705D5D90703D0616C93
:1042500041F004016164010707D502F020013143F8
:1042600003D0616C41F008016164616C00293AD0AF
:10427000800604D5900602D5204602F077FF20681C
:104280004069616CC0F38010090700D460B3204618
:1042900002F045FF20684069400621D520681430AF
:1042A00050E8001F21F0400140E80012002AF5D13B
:1042B000E06BA8B172490165E06BFDF73CFC00289A
:1042C00011D0E06B016D01B0BDE8F04008478306F6
:1042D0000FD593060DD52046BDE8F84002F046BF45
:1042E0002046FFF78DFFF8BD2046FFF789FF656484
:1042F000F8BD266B2023012E7ED1C6067CD5D606BE
:104300007AD508684868009048694FF00206400670
:104310004DD5E26B106840684FF480770004000CC4
:104320003AD0A18D814237D9E085D069B8422DD0ED
:1043300020680C3050E8001F21F4807140E8001222
:10434000002AF5D12068143050E8001F21F0010147
:1043500040E80012002AF5D12068143050E8001F10
:1043600021F0400140E80012002AF5D184F84230E3
:10437000256320680C3050E8001F21F0100140E850
:104380000012002AF5D1E06BFDF78CFB6663A08D6F
:10439000E18D401A81B206E0A18D8142A8D1D06999
:1043A000B842A5D166632046FFF728FFF8BDA08D6F
:1043B000E18D401A81B2E08D0028F7D00029F5D0B8
:1043C00020680C3050E8002F22F4907240E800275B
:1043D000002FF5D12068143050E8002F22F00102A0
:1043E00040E80027002FF5D184F84230256320688B
:1043F0000C3050E8002F00E006E022F0100240E808
:104400000023002BF3D1CDE705062BD5150629D5C2
:1044100094F841002128C9D1A068B0F5805F01D18E
:104420002069B0B1206A411C21622168007848608F
:10443000E08C401E0004000CE084B7D12068C16805
:1044400021F08001C1602068C16841F04001C16075
:10445000F8BD206A0088C0F308004860206A801C0C
:104460002062E5E74006F3D55006F1D5CA6820463C
:1044700022F04002CA6084F8413000F05CF9F8BDD7
:104480001171000870B5040004D094F841000025B3
:1044900010B106E0012070BD84F84050204600F0C5
:1044A00023F8242084F841002068C16821F40051D9
:1044B000C160204602F0BCFE2068016921F49041F1
:1044C00001612068416921F02A0141612068C168C9
:1044D00041F40051C1606564202084F8410084F8F3
:1044E00042006563002070BD70B586B00646142199
:1044F0006846FCF7E0F9344C306800253349022364
:104500000322A0423ED131481030046844F0804478
:104510000460006800F080400590086840F02000CA
:1045200008600868694600F020000590C0208DE80A
:1045300029000820CDE903202548FDF7BBFC264CC7
:10454000244820604FF02060C4E901054FF48060EA
:10455000C4E9035080106561C4E906502562204615
:104560006562FDF7CBFB08B1FDF73AF9F463002271
:1045700011465220A663FEF771FA5220FEF760FA48
:1045800006B070BD154CA042FAD110481430046832
:1045900044F010040460006800F010000590086802
:1045A00040F0010008600868694600F001000590CD
:1045B0004FF4C0608DE829000720CDE903200848AA
:1045C000FDF778FCDCE7000000780040303802405E
:1045D00000140240586002404003002000100140D7
:1045E000000002402DE9F84F044690F842009A4638
:1045F00016460D46202802D00220BDE8F88FB5B13E
:10460000AEB100206064222184F842102063FDF7DF
:104610007DFDA6858146E685A0684FF48058202759
:10462000404501D1206920B12E46002529E0012016
:10463000E3E7002625E04B46002220212046CDF866
:1046400000A002F096FE18B184F842700320D4E76F
:1046500026B1A06840451AD038B108E0206840680B
:10466000C0F3080025F8020B08E0206978B1206843
:10467000406800F07F0000BF06F8010BE08D401E8F
:10468000E085E08D0028D6D184F84270B5E7206837
:104690004068F1E770472DE9F843044690F841007F
:1046A000984616460D46202802D00220BDE8F88321
:1046B00085B17EB100206064212084F84100FDF7BF
:1046C00025FDA6848146E684A0682027B0F5805F9A
:1046D00002D003E00120E9E7206910B12E46002551
:1046E0000EE000260CE08021204602F042FEA8B930
:1046F000C6B116F8010B21684860E08C401EE084CA
:10470000E08C4B464FF00002CDF800800028EAD143
:104710004FF04001204602F02CFE40B184F8417079
:104720000320C3E735F8020BC0F30800E3E784F881
:1047300041700020BAE770472DE9F047F64C054676
:104740000E2720780026ADF58B6D4FF0030A4FF051
:1047500002084FF0010910284BD2DFE800F00833BF
:104760004E7248484A92484AFFFDFCFBFAF9012D77
:104770000CD0022D1CD0032D3BD10A202070FCF759
:10478000F3FFE6A002F092FFEAA08DE3FCF782FCC3
:1047900048B184F80090EDA002F088FFF0A002F08C
:1047A000F5FF01207DE0F8A002F0F0FF002078E0A6
:1047B00007202070FCF7D8FF2671FAA002F076FFE0
:1047C000FEA06BE02846FCF7DBFF012802D00228A0
:1047D00002D00CE0A67001E084F80290FCF7C4FF60
:1047E00084F80080FBA002F061FFF4A015E0122D18
:1047F0006ED00DF58B6DBDE8F0872846FCF7C0FF45
:10480000002802DBC0B20B2114E1102D7ED0112D47
:10481000EDD160780B2804D0F3A002F0B7FF02209E
:104820003FE084F800A0F8A002F040FFFC4BFDA29E
:1048300040216846FBF7DAFD684602F0A7FF032037
:1048400083E0112D10D0122DD3D184F80080E1A087
:1048500002F02CFFFDA002F099FF0DF58B6DF048E2
:10486000BDE8F04702F082BF042020703C2002F037
:10487000DFF8FAA002F01AFFFEA002F087FF042082
:104880000FE02846FCF77CFF0028BBDA102DBDD0D6
:10489000112DACD160780B2809D0D3A002F076FF9F
:1048A0000B200DF58B6DBDE8F04701F0B5BB11A9EC
:1048B000DB48FCF703FCC0B12079401CC3B2237174
:1048C000032B04D3F3A002F061FF0C2029E000E0E9
:1048D00083E0FBA2402101A8CDF800A0FBF786FDF4
:1048E00001A802F053FF0C205EE001F059FE0146E2
:1048F00012AB10AA9DF84400FCF746FC9DF840005E
:10490000A0B112983C21B0FBF1F300E0EAE2F6A27C
:10491000402168465B1CFBF769FD684602F036FFE4
:104920000F2001F079FBFDF78BF862E79DF844005A
:10493000E070082020703C2002F07AF8F5A002F028
:10494000B5FECCA002F022FF0D2001F065FB50E780
:10495000B0E28FE2A3E066E030E0FFE72846FCF734
:104960000FFF002802DBC0B2062163E0102D8ED0BD
:10497000112D8ED1684602F010F988B900256E46D7
:1049800005EBC50000EB0510315C29B13044A449AA
:104990001230FBF7E3FF60B16D1CEDB2142DEFD3C5
:1049A000E2A002F0F3FE142001F036FBFCF7DCFE7F
:1049B0001FE7E571152001F02FFB65E02846FCF7A5
:1049C000DFFE01280FD0022816D003281DD00428AE
:1049D00023D0052821D00028A7D10DF58B6DBDE887
:1049E000F047FDF72DB80C202070FCF7BDFED5A0D8
:1049F00002F05CFED8A057E20D2020706661DDA0B9
:104A0000A66102F053FEDFA04EE22770FCF7ACFE79
:104A1000E6A002F04BFEE9A046E2E07908B1EEA084
:104A200042E2F5A040E22846FCF7AAFE002807DB98
:104A3000C0B202210DF58B6DBDE8F047FCF766BEF4
:104A4000102D94D0112D22D1607830B17448FBF72D
:104A500039FE0446401E082807D30823EBA2302164
:104A60006846FBF7C3FC684601E2C5B201F098FD59
:104A700001462846FCF7DEFA2346E9A230216846C3
:104A8000FBF7B4FC684639E2FCF7C2FFB1E6122D31
:104A90008ED10DF58B6DBDE8F047FCF7B9BF112D38
:104AA000F5D1CDF850648DF84C640DF58A6000F0B6
:104AB00041FE0DF24C4205A9606900F09DFE48BB25
:104AC0009DF84C0430B3A169814219D36069401C40
:104AD000C4E90506DDF85014884208D3D5A002F0D9
:104AE00055FEDDF8500400B1401E606181E60DF214
:104AF0004C4205A900F080FE60B99DF84C0448B115
:104B0000A16905AA01EB810002EB8000831C4578B6
:104B1000026995E1AAE100005400002041444D499A
:104B20004E5F454E5445525F50415353574F524488
:104B300000000000456E7465722061646D696E202E
:104B400070617373776F7264000000004445504FCA
:104B50005349545F53454C4543545F5459504500A5
:104B600050686F6E6520747970653F205072657370
:104B70007320313D416E64726F69642020323D695B
:104B800050686F6E650000004E6F20656D7074791F
:104B9000206C6F636B657220617661696C61626C19
:104BA0006500000052455452494556455F454E54F4
:104BB00045525F50484F4E4500000000456E7465F9
:104BC0007220796F75722070686F6E65206E756DDA
:104BD000626572004445504F5349545F454E5445F9
:104BE000525F50484F4E450050686F6E65206E759D
:104BF0006D626572206D757374206265203131209D
:104C000064696769747300004445504F5349545FA9
:104C1000434F4E4649524D5F50484F4E45000000AD
:104C200028080020436F6E6669726D206E756D6294
:104C30006572202573203F2028436F6E6669726D70
:104C40002F43616E63656C29000000004564697440
:104C500020746865206E756D626572004445504F22
:104C60005349545F46494E4745525F5343414E3185
:104C700000000000506C61636520796F75722066DA
:104C8000696E676572206F6E207468652073656E4B
:104C9000736F72004E756D626572206E6F74206660
:104CA0006F756E642E2052657475726E696E672022
:104CB000746F206D61696E206D656E750000000077
:104CC0004E756D626572206E6F7420666F756E64CE
:104CD000202825752F257529202D207472792061B3
:104CE0006761696E0000000054686973206C6F632F
:104CF0006B6572206973206C6F636B656420666FEF
:104D000072202575206D6F7265206D696E757465F2
:104D10002873290052455452494556455F46494E2D
:104D20004745525F5343414E0000000057726F6E7B
:104D3000672061646D696E2070617373776F726450
:104D40000000000041444D494E5F4F50454E5F4CBE
:104D50004F434B4552000000456E746572206C6FE6
:104D6000636B6572206E756D62657220746F206F63
:104D700070656E0041444D494E5F564945575F4C42
:104D80004F47530056696577696E67206C6F67738C
:104D90002E20436F6E6669726D3D6E6578742C20AF
:104DA00043616E63656C3D6261636B0041444D49D4
:104DB0004E5F4348414E47455F505700456E74650E
:104DC00072206E657720362D646967697420706182
:104DD0007373776F726400004F6E6C79207468652E
:104DE000206D61696E2061646D696E2063616E2063
:104DF000646F2074686174004E6F7420696D706C0C
:104E0000656D656E7465642079657400456E7465C2
:104E1000722061206E756D62657220312D257500DE
:104E20004C6F636B6572202564206F70656E6564DE
:104E300000000000456E64206F66206C6F67000004
:104E40000078491CCDE900106D1C0295CDE90332B4
:104E5000636933A25021FFA85B1CFBF7C7FAFFA8C8
:104E600002F094FCA069401CA061C2E437A002F0EB
:104E70008DFCBEE42846FCF783FC0028BFF673AD2A
:104E8000102D2FD0112D7FF402AE6078062801D0AE
:104E900033A009E0072239493948FBF733FD0F20D9
:104EA0002070FCF761FC37A00DF58B6DBDE8F04775
:104EB00002F06CBC2846FCF763FC0028DEDA102DFB
:104EC00010D0112DDFD12E492C48FBF747FD78B1CA
:104ED00036A002F05BFC27700DF58B6DBDE8F04746
:104EE000FCF742BC0DF58B6DBDE8F047FCF726BC26
:104EF0006946E07901F025FE18B135A002F046FCC4
:104F0000C2E506221E490DF11200FBF7FBFC8DF8ED
:104F100018606946E07901F0BDFE34A0EEE70000BC
:104F20005B70256C752023256C755D206576743D5E
:104F30002575206C6F636B65723D25752070686FF9
:104F40006E653D257320743D256C75004E6F206D98
:104F50006F7265206C6F6720656E7472696573008F
:104F600050617373776F7264206D7573742062651E
:104F700020362064696769747300000028080020E7
:104F80007000002052652D656E746572207468652E
:104F9000206E65772070617373776F726420746F11
:104FA00020636F6E6669726D00000000506173735C
:104FB000776F72647320646964206E6F74206D6112
:104FC0007463682C2074727920616761696E0000D7
:104FD0004661696C656420746F2073617665206E2C
:104FE00065772070617373776F72640050617373BB
:104FF000776F7264206368616E676564000000000B
:10500000FEE701684A69D24352050FD46FF480620B
:105010004A61002140F8301F2022427381730269E7
:1050200042F00402026101730120704700207047C2
:105030002DE9F84F0446006889460B9D01689846A3
:10504000174641F4806101602068016841F4807175
:10505000016000954FF0011B0022594620460A9B33
:1050600000F0E4F84FF4007A40B120680068C00511
:1050700001D5C4F840A00320BDE8F88F216809F0ED
:10508000FE0008612B46284920460A9A00F016F9CE
:10509000F0BB20684169806900902A4620460A9941
:1050A00000F0A2F940B1206C04283AD120680168D0
:1050B00041F40071016034E0FEB2B8F1010F09D093
:1050C0002168380A08612A4620460A9900F08CF9BE
:1050D0000028E8D1206806612A4620460A9900F097
:1050E00083F90028DFD12068016841F480710160F4
:1050F00000950022594620460A9B00F097F80028A8
:10510000B3D1216809F0FF0040F00100086100E020
:1051100007E02B46044920460A9A00F0CFF8002801
:10512000AAD00120A8E70000020001002DE9F84301
:10513000044600680D46DDE9089701689846164662
:1051400041F4807101604B4600224FF0011120466E
:10515000009700F06BF848B120680068C00502D5E0
:105160004FF4007020640320BDE8F883216805F047
:10517000FE0008613B464A461549204600F09EF86D
:1051800088B920684169806900903A4649462046BE
:1051900000F02AF948B1206C042804D12068016885
:1051A00041F4007101600120DEE7F5B2B8F1010FB2
:1051B00009D02168300A08613A464946204600F085
:1051C00013F90028E7D1206805610020CCE7000032
:1051D0000200010070B516460D4604461EE020464A
:1051E000FFF70FFF08B1012070BD681C16D0FCF757
:1051F0008DFF801BA84200D885B920684069C04354
:1052000040070BD5002044F8300F20216173A073B4
:10521000216941F0200121612073E4E720684069A1
:10522000C0434007DBD4002070BD00002DE9F047EB
:10523000984617460D460446C1F30746DDF8209010
:105240002AE000BFB8F1FF3F26D0FCF75FFFA0EBDC
:105250000901414502D8B8F1000F1DD12068012E87
:1052600016D0806925EA00000004000C12D000204E
:10527000B84211D1002044F8300F20216173A0738F
:10528000216941F02001216120730120BDE8F087F0
:105290004069E7E70120EBE72068012E0AD080692A
:1052A00025EA00000004000C06D00020B842C9D056
:1052B0000020EBE74069F3E70120F7E72DE9F0472D
:1052C000984616460D4604464FF000094FF0200A56
:1052D000C1F3074723E020684069C043400515D467
:1052E0002068016841F40071016021686FF48060FA
:1052F0004861C4F8309084F83DA084F83E90216C59
:1053000041F00401216484F83C9021E0701C06D037
:10531000FCF7FCFEA0EB0800B04203D816B1012F49
:105320001FD021E02068012F15D0806925EA0000F8
:105330000004000C18D000BF44F8309F84F80DA082
:1053400084F80E90216941F02001216184F80C90CD
:105350000120BDE8F087406925EA00000004000C48
:10536000EAD12068406901E02068806925EA0000F0
:105370000004000CAFD1ECE72DE9F0410025904688
:105380000E460446202728E04069C043C0060CD4DE
:1053900054F8301B6FF01000486144F810596777DB
:1053A000A577206A2062257714E0FCF7AFFEA0EB1A
:1053B0000800B04200D886B920684069C043400662
:1053C0000BD544F8305F6773A573206940F0200067
:1053D000206125730120BDE8F08120684169C9433F
:1053E0004906D1D40020F6E770B516460D460446AE
:1053F0001EE02046FFF705FE08B1012070BD681CC5
:1054000016D0FCF783FE801BA84200D885B920681F
:105410004069C04300060BD5002044F8300F20211E
:105420006173A073216941F0200121612073E4E7D9
:1054300020684069C0430006DBD4002070BD000036
:1054400000B587B014216846FBF735FA0D480021F6
:10545000026842F040020260006800F040000590DF
:105460004FF4005000900120CDE90101022003908B
:1054700069460548FCF71EFD00F04EF800F016F8EE
:1054800007B000BD30380240001802400A2801D998
:1054900001207047044901EB800231F82010528846
:1054A000902000F00DB800006E82000810B50120B9
:1054B00000F04DF804463220FCF78AFC204610BD6F
:1054C0001FB500238DF800008DF801308DF8021013
:1054D000C1F302208DF803008DF80420C2F30220EE
:1054E0008DF80500029303938DF8063000F024F840
:1054F00010B1012004B010BD00F016F8C823072237
:1055000002A9684601F0C2F910B100F005F8F0E711
:1055100000F002F80020EDE7012251030148FCF7FA
:10552000F0BD00000018024000224FF40051014875
:10553000FCF7E7BD0018024010B5002302228021CD
:10554000182001F01FF9002800D0012010BD1CB563
:10555000002100918DF800000191FFF7EDFF08B1E7
:1055600001201CBDFFF7E0FFC823022201A9684605
:1055700001F08CF910B1FFF7CFFFF1E7FFF7CCFF97
:1055800000201CBDF0B503688C88DD68C5F30B45B1
:105590002C442504882404EBC2141E5906F47046DA
:1055A0001E5103680F68DE68C6F30B46761C3E4446
:1055B0002E431E5103688C89DD68C5F30A052C440F
:1055C00025048C2404EBC2141E5906F470461E51A7
:1055D00003688F68DE68C6F30A06761C3E442E43D5
:1055E0001E519423046803EBC213E55825F0070508
:1055F000E55005680C69EC5091F831300C7E1E02C4
:1056000091F8323091F830501B04354343EA04637B
:105610001D439C24036804EBC2141D5198230468A5
:1056200003EBC213E55825F0FF05E55005684C690A
:10563000EC50A023046803EBC213E55840F2077650
:10564000B543E550D1E907452C430568EC50AC253E
:10565000046805EBC2154B6A63510B698BB3012BD0
:1056600032D0042B32D0022B30D0032B2ED0072B7C
:105670002CD00123B024056804EBC2142E5906F087
:10568000E0262E51D1E90065AD1B0E8D5D435E43D2
:10569000ED1C45EA064305682B51B423046803EB6F
:1056A000C213E5586FF30A05E5500468C96AE15072
:1056B0000068842101EBC211425842F001024250BD
:1056C000F0BDFFE70423D5E70323D3E70223D1E7A7
:1056D0002DE9F043164C814685B020881E46050111
:1056E0001746884610F0FF0F03D1284602F070F8E5
:1056F000C8B901A8009033463A464146484600F0F2
:1057000049F8102201A9284602F04AF958B9208820
:10571000401CC0F3090020806168491C616001F0F1
:1057200034FB002800D0012005B0BDE8F083000064
:105730002800002008B503000AD0684600F00EF8E3
:10574000009832213130B0FBF1F0186010B103E065
:10575000062008BD01201860002008BD48B1064998
:105760004FF448724968914200D31146016000200D
:10577000704706207047000028000020044910B53B
:10578000081F01F0ABF9002800D0012010BD000077
:105790002C0000202DE9F0411646069C884607465D
:1057A0001D46FF2210212046FBF75BF8277084F886
:1057B000018046B1307830B10623A21C0B2130465F
:1057C000FBF7DAFA04E0FF220621A01CFBF749F8F8
:1057D0002572280A6072280CA072280EE072AA2096
:1057E000207300210846225C401C5140C0B20D28A5
:1057F000F9D36173BDE8F0812DE9F04F85B0914692
:105800005FEA010A034613D0B9F1000F10D004A8D3
:10581000FFF7A4FF322003FB00F804984FF0000BC1
:10582000804507D389F800B0042005B0BDE8F08FAB
:105830000620FAE7A0EB0806322E02D93226002510
:1058400001E0002545E0264908EB05004FF480649F
:105850000A880023101A6BEB0B01401E41F1FF3147
:105860002246FAF79EFD2046101843F10001224619
:105870000023FAF796FD10011022694602F037F86E
:1058800008B10120D1E705EB85010AEB81046F46E1
:1058900014212046FBF70FF89DF8000020709DF8BA
:1058A000010060700220395CFF2906D00B23A21C86
:1058B0000621B81CFBF782FA05E0401CC0B208289C
:1058C000F1D384F802B0F97AB8686D1C61F31F60F7
:1058D0002061B542B7D389F800600020A5E7000039
:1058E0002800002000B587B01C216846FAF7E3FFC6
:1058F000114810490022C0E900120421C0E9022128
:1059000010214023C0E904138023C0E9063202625B
:10591000426282620091019102910391049105918A
:1059200006916946FDF76EFE002801D072B6FEE7CB
:1059300007B000BD400100A00C0300202DE9F04F8E
:1059400087B014216846FAF7B6FF72480024016850
:1059500041F010010160016801F01001059101683A
:1059600041F004010160016801F004010591016842
:1059700041F020010160016801F0200105910168FA
:1059800041F080010160016801F08001059101682A
:1059900041F001010160016801F001010591016818
:1059A00041F002010160016801F002010591016806
:1059B00041F040010160016801F04001059101687A
:1059C00041F0080101600068534E00F008000590A6
:1059D000002240213046FCF794FBDFF840B141F64D
:1059E0003217002239465846FCF78BFB002225214E
:1059F0004B48FCF786FB4FF4C0480022414649481B
:105A0000FCF77FFB41F6B009002249464648FCF707
:105A100078FB46F20C0A002251464448FCF771FB21
:105A20000C20CDE90004694630460294FCF742FAA6
:105A3000402000900125CDE9015469463046039489
:105A4000FCF738FA6E02CDE90064694638480294E2
:105A5000FCF730FA0097CDE90154694658460394A3
:105A6000FCF728FA25200090CDE9015469462C481E
:105A70000394FCF71FFA48F28200CDE9000469465E
:105A800027480294FCF716FA4FF41040CDE90004C1
:105A9000694624480294FCF70DFACDF80080CDE960
:105AA000015469461F480394FCF704FACDF80090AE
:105AB000CDE9015469461C480394FCF7FBF942F216
:105AC0000400CDE90004694617480294FCF7F2F996
:105AD000CDF800A0CDE90154694614480394FCF7C1
