:020000040800F2
:10000000004600205D0200083B3B00085934000810
:10001000393B00080D0A00080146000800000000F6
:10002000000000000000000000000000153F000874
:10003000510D000800000000413B0008173F000878
:1000400077020008770200087702000877020008AC
:10005000770200087702000877020008770200089C
:10006000770200087702000877020008770200088C
:100070007702000877020008110A000877020008DA
:10008000770200087702000877020008770200086C
:10009000770200087702000877020008770200085C
:1000A000770200087702000877020008770200084C
:1000B000770200087702000877020008770200083C
:1000C000770200087702000877020008770200082C
:1000D000770200087702000877020008770200081C
:1000E000770200087702000877020008770200080C
:1000F00077020008D13F0008770200087702000865
:1001000077020008770200087702000877020008EB
:1001100077020008770200087702000877020008DB
:1001200077020008770200087702000877020008CB
:1001300077020008770200087702000877020008BB
:1001400077020008770200087702000877020008AB
:10015000770200087702000877020008770200089B
:10016000770200087702000877020008770200088B
:1001700077020008770200087702000800000000FC
:100180007702000877020008214300087702000880
:10019000770200087702000877020008770200085B
:1001A00077020008770200087702000800F002F8E2
:1001B00000F044F80AA090E8000C82448344AAF1BD
:1001C0000107DA4501D100F039F8AFF2090EBAE8BB
:1001D0000F0013F0010F18BFFB1A43F0010318477B
:1001E000CC450000EC450000103A24BF78C878C127
:1001F000FAD8520724BF30C830C144BF04680C602D
:10020000704700000023002400250026103A28BF74
:1002100078C1FBD8520728BF30C148BF0B60704778
:10022000752900F01F81732900F04D83002070476D
:100230001FB504F07FFA1FBD10B510BD00F047FBDD
:100240001146FFF7F5FF04F0F3F900F065FB03B486
:10025000FFF7F2FF03BC00F06DFB00000948804788
:1002600009480047FEE7FEE7FEE7FEE7FEE7FEE798
:10027000FEE7FEE7FEE7FEE704480549054A064BB0
:1002800070470000C13F0008AD01000800060020D3
:1002900000460020002600200026002053EA020C21
:1002A00000F069802DE9F04B4FF00006002B1FBFD6
:1002B000B3FA83F503FA05F424FA05F65E4012BF9B
:1002C0001643B2FA82F502FA05F4C5F120051EBF05
:1002D00022FA05FC44EA0C04203556EA044C4FEAA5
:1002E000144418BF641C4FF000084FF000099042FE
:1002F00071EB030C39D3002919BFB1FA81F701FA68
:1003000007F6B0FA80F700FA07F6C7F120071EBF1C
:1003100020FA07FC46EA0C062037B6FBF4FCA7EBF4
:100320000507103F07F01F0BCBF120060CFA0BFB63
:100330002CFA06F644BFB3460026202FA4BF5E4623
:100340004FF0000B5BEA060C08BF4FF0010B19EBF6
:100350000B09ABFB027C48EB0608C01B06FB02CC7A
:100360000BFB03CC71EB0C01C1E70B460246414687
:100370004846BDE8F08B13B54FF000004FF0000188
:10038000AFF30080BDE81C40704700000FB47CB59F
:100390000C0009AA009001D02044401E084B7B4469
:1003A00069460190089800F05CFA05461CB10020EF
:1003B000694600F069FA28467CBC5DF814FB000031
:1003C000F104000070B5044685690068C10601D5D6
:1003D000302600E02026C00707D070BDD4E90121F7
:1003E00030469047206A401C20626D1EF6D570BDD5
:1003F00070B5044685690078C00707D170BDD4E99F
:10040000012120209047206A401C20626D1EF6D5F5
:1004100070BD70B50C460546012A05D028788006C7
:1004200000D5EA69002302E0012305E05B1C93424A
:1004300002D2E05C0028F9D1A869E618C01AA861C8
:10044000286A184428622846FFF7BCFF04E0D5E973
:10045000012114F8010B9047B442F8D32846FFF766
:10046000C7FF70BD2DE9F0410646002410687529CC
:10047000314616A510D0AFF30080002802DA4042C2
:1004800013A507E031688A0701D512A502E04907E4
:1004900004D511A5012401E0AFF3008000210A2258
:1004A00006F1240709E0B0FBF2FCB0FBF2F302FB1B
:1004B0001C00303078541846491C0028F3D12346DC
:1004C0002A463046BDE8F04100F06DB9000000005A
:1004D0002D0000002B000000200000002DE9F05F3F
:1004E000894604464FF0000ADFF874B1FB44C0F8B7
:1004F00020A02046E1688847002874D0252806D02F
:10050000D4E901219047206A401C2062F1E70026CF
:100510005F462046E16888472028054607DB312DE5
:1005200005D2781910F8200C08B10643F1E7B0079E
:1005300001D526F00406C4F81CA00027C4F818A0B2
:100540002A2D09D0284604F06CF838B304EB87084C
:10055000303DC8F8185019E059F8041B204604EB48
:1005600087029161E1688847012F054618D1E0694B
:10057000002820DA26F020061DE0D8F8180000EB4D
:10058000800005EB40003038C8F818002046E168CC
:100590008847054604F045F80028EED1012F0AD01F
:1005A0002E2D08D12046E16888477F1C0546022F82
:1005B00046F02006C4DBA069002803DA404246F07A
:1005C0000106A061F00701D026F010066C2D0BD0BB
:1005D000682D09D04C2D39D06A2D35D0742D35D0E9
:1005E0007A2D33D016E038E0E1682F462046884760
:1005F000B842054609D16C2F26D04FF48060E168DF
:10060000064320468847054604E06C2F1AD04FF475
:10061000807006430DB3A5F14100192802D820359A
:1006200046F400664A462946204626604E46FFF7B5
:10063000F7FD80B101280BD0F61D26F0070000F170
:10064000080956E74020E4E78020D8E70020D6E7F5
:1006500006F104094DE7284652E7206ABDE8F09FFD
:10066000A8420000032A40F2308010F0030C00F092
:10067000158011F8013BBCF1020F624498BF11F8DC
:1006800001CB00F8013B38BF11F8013BA2F1040295
:1006900098BF00F801CB38BF00F8013B11F003030D
:1006A00000F02580083AC0F0088051F8043B083A71
:1006B00051F804CBA0E80810F5E7121D5CBF51F813
:1006C000043B40F8043BAFF30080D20724BF11F88D
:1006D000013B11F801CB48BF11F8012B24BF00F8F2
:1006E000013B00F801CB48BF00F8012B704710B563
:1006F000203AC0F00B80B1E81850203AA0E818501A
:10070000B1E81850A0E81850BFF4F5AF5FEA027CDA
:1007100024BFB1E81850A0E8185044BF18C918C049
:10072000BDE810405FEA827C24BF51F8043B40F8EA
:10073000043B08BF7047D20728BF31F8023B48BFCF
:1007400011F8012B28BF20F8023B48BF00F8012B0D
:1007500070474FF0000200B5134694469646203984
:1007600022BFA0E80C50A0E80C50B1F12001BFF46A
:10077000F7AF090728BFA0E80C5048BF0CC05DF8D0
:1007800004EB890028BF40F8042B08BF704748BF1E
:1007900020F8022B11F0804F18BF00F8012B704792
:1007A0007047704770472DE9F0470D4699469246CD
:1007B000044600F124080168880604D5E06921F0A8
:1007C0001001216000E00120A84201DD471B00E08C
:1007D0000027A1697A1902EB0900081AA0612078A4
:1007E000C00602D42046FFF7EDFD002608E0D4E95C
:1007F00001211AF806009047206A401C761C2062EE
:100800004E45F4DB2078C0060AD52046FFF7DAFD16
:1008100006E0D4E9012130209047206A401C206284
:10082000381EA7F10107F4DC07E0D4E9012118F82C
:1008300005009047206A401C2062281EA5F1010592
:10084000F3DC2046FFF7D4FD2078000602D5022015
:10085000BDE8F0870120FBE701694A1C02610878C6
:10086000704700B58FB0CDE90131002105910549F0
:100870007944CDE9031011466846FFF72FFE0FB00B
:1008800000BD0000E5FFFFFF0A6802F8010B0A60E7
:100890007047D1E900239A4202D2531C0B601070BA
:1008A000704710B5436913B1AFF3008001E0FFF763
:1008B000B0FD012010BD127800F124010A70002261
:1008C0004A700122EDE711684FF0FF32E9E7754603
:1008D00000F02CF8AE4605006946534620F00700AC
:1008E000854618B020B5FFF7C7FCBDE820404FF0A3
:1008F00000064FF000074FF000084FF0000B21F00A
:100900000701AC46ACE8C009ACE8C009ACE8C009D6
:10091000ACE8C0098D46704710B50446AFF30080BF
:100920002046BDE81040FFF792BC00000048704729
:100930009C05002001491820ABBEFEE726000200FE
:100940007047000010B58EB01C216846FFF701FF0C
:10095000142107A8FFF7FDFE20480024016841F09C
:1009600002010160006800F002000C901B4810308A
:10097000016841F004010160006807A900F004006B
:100980000C90402007900220CDE90804CDE90A40F0
:10099000134800F06DFC14481249016040F28331A5
:1009A000C0E901146321C0E903148021816102F0D0
:1009B0002AFA80B96020CDE9000402940022694639
:1009C0000948049402F0B9F928B90021064802F058
:1009D0005DFA002800D001200EB010BD3038024072
:1009E00000040240000800405C030020642800D995
:1009F0006420642110FB01F0B0FBF1F002490968AA
:100A000048630020704700005C030020FEE7000000
:100A1000014800F081BA0000FC02002001681823A0
:100A2000CAB2103AB2FBF3F2054B6FF30901032A85
:100A30009B5CC36500D9091D8165084670470000AD
:100A40003E47000810B5014600208B698A6A4FF0C6
:100A5000C07453B1B3F5005F15D072B1012A0CD048
:100A6000022A0AD0032A09D104E01AB1012A06D0C9
:100A7000022A03D1C96AC90100D5012010BDC96A83
:100A8000A142FAD010BD002AF7D0012AF2D0022AE2
:100A9000F3D0032AF3D010BD70B5134EA2B0748802
:100AA000812C00D38024224610496846FFF7DAFDE6
:100AB0000025684601E0641EA4B205558CB10119F9
:100AC00011F8011C0D29F6D00A29F4D00346074875
:100AD00007A2A0218030FFF759FC0448803000F0C5
:100AE0000DF9357022B070BD200000207C0400207C
:100AF0004F55543A4C4F473A52585F4F4B202D3E7A
:100B00002025730070B598B10A4C002560602570EF
:100B1000658000F0D5FCA06000F0D2FCC4E90305BC
:100B2000657000F00BF904A000F0E8F8002070BD3B
:100B3000012070BD200000204F55543A4C4F473AD9
:100B400064656275675F6C696E6B20696E69746954
:100B5000616C697A65642C20554152543720746564
:100B60007374206D6F64650010B500F0A9FC0E4C25
:100B700041F28832E168411A914213D3E060607813
:100B800030B1012809D009A000F0B8F8002008E031
:100B90000CA000F0B3F8012003E00FA000F0AEF8C5
:100BA0000220607010BD0000200000204F55543A14
:100BB0004C4F434B45523A313A4C45445F424C49C5
:100BC0004E4B00004F55543A4C4F434B45523A312F
:100BD0003A4F50454E0000004F55543A4C4F434B4E
:100BE00045523A313A434C4F5345440030B593B0E7
:100BF00000F066FC194CA168411AB1F57A7F2AD33E
:100C0000A06020694FF46161401CB0FBF1F1182233
:100C1000B1FBF2F302FB13133C21B0FBF1F2B2FB88
:100C2000F1F501FB1522B0FBF1F5206101FB150088
:100C3000CDE900200AA2A0211048FFF7A7FB0F482A
:100C400000F05CF80EA2402102A82369FFF79EFB8A
:100C500002A800F053F813B030BD000020000020BF
:100C60004F55543A434C4F434B3A2530326C753A0A
:100C70002530326C753A2530326C7500FC0400204A
:100C80004F55543A4D53473A5541525437207465A5
:100C900073742072756E6E696E672028256C7520DE
:100CA00073290000054810B5007808B1FFF7F4FE7D
:100CB000FFF79CFFBDE81040FFF756BF2000002063
:100CC00070B50C4D0C466968884211D164B1802C16
:100CD0000AD2287840B90849224601F18000FFF77E
:100CE000C1FC6C8001202870BDE8704000F026B87F
:100CF00070BD000020000020FC03002010B50C4C4B
:100D0000616899B190B103460AA2A0210A48FFF791
:100D10003DFB00280ADDA02800DB9F2082B264236F
:100D20000549606802F047FB002800D0012010BD93
:100D30002000002025730A00FC04002003488022C4
:100D40000149406802F01BB9FC030020200000208C
:100D5000704772B6FEE7F0B5D1E907354C6A0A680C
:100D6000C2B102682B4322F4F842144323430360C8
:100D7000D1E901231A43D1E9033423431A434B69D0
:100D800089691A430A4341686FF30E010A434260BE
:100D90000020F0BDD1E901263243D1E903673E438B
:100DA00032434E69896932430A431A432A43016830
:100DB00022436FF30E010A430260E9E7F0B56FF0DA
:100DC0000F058C8A2E014FEA054ECB682F034FF09A
:100DD0007F4C0EEB04540AB31A03A2F580528368C9
:100DE00022431D4C23401A438260D1E9002305EBC6
:100DF0000313521E1A438B6806EB03231A430B8A14
:100E0000097E07EB03431A430CEB01610A43C168F7
:100E100001F070410A43C2600020F0BDD1E9002E0C
:100E200005EB0E15521E2A438D6806EB05252A4355
:100E30000A4D05EB03331A430B8A097E07EB034384
:100E40001A4322430CEB01610A43816801F07041AF
:100E50000A438260E0E70000FF0F0FFF00F0FFFF92
:100E60002DE9F0410446876D00F02AFB064694F810
:100E700035000025022806D08020606584F83450B3
:100E80000120BDE8F0812068016821F016010160B1
:100E90002068416921F080014161206C08B9A06C93
:100EA00020B12068016821F0080101602068016814
:100EB00021F0010101600CE000F002FB801B05281D
:100EC00007D920206065032084F8350084F8345069
:100ED000D7E720680068C007EED194F85C103F2087
:100EE0008840B860012084F8350084F83450002030
:100EF000C7E790F83510022903D080214165012011
:100F00007047052180F835100068016821F0010163
:100F100001600020704700002DE9F84304464FF0BF
:100F20000009CDF8009063484FF41651A56D006894
:100F3000B0FBF1F72E6894F85C10082000FA01F17C
:100F400031420FD021680A6852070BD50A6822F097
:100F500004020A6094F85C108840A860606D40F05C
:100F60000100606594F85C104FF0010808FA01F088
:100F7000304208D021684969090604D5A860606D2F
:100F800040F00200606594F85C1004208840304214
:100F900008D021680968890704D5A860606D40F011
:100FA0000400606594F85C1010208840304218D02E
:100FB00021680968090714D5A860206801684903F9
:100FC00004D50068000308D5A16C07E00168C905D5
:100FD00003D4016821F008010160216C09B12046A9
:100FE000884794F85C1020208840304231D0216836
:100FF0000968C9062DD5A86094F835000528206831
:10100000016806D0490347D5006800031DD4616C10
:101010001CE021F0160101602068416921F0800187
:101020004161206C08B9A06C20B12068016821F0F2
:101030000801016094F85C103F208840A86084F8A3
:10104000358084F83490216D1FE0E16B09B12046B2
:101050008847606D00282BD0606DC00714D0052034
:1010600084F835002068016821F0010101600098D2
:10107000401C0090B84203D820680068C007F6D131
:1010800084F8358084F83490E16C002910D001B0E8
:101090002046BDE8F04308470168C905D5D401687A
:1010A00021F01001016084F8358084F83490CCE799
:1010B000BDE8F883180000202DE9F041044600F057
:1010C000FFF906465CB1022084F83500002584F85B
:1010D00034502068016821F0010101600DE0012019
:1010E000BDE8F08100F0ECF9801B052805D920202F
:1010F0006065032084F83500F2E720680068C007C7
:10110000F0D12268116820480140D4E90103184356
:10111000D4E903363343184363691843A36918437A
:10112000E3691843236A18430843616A042903D119
:10113000D4E90B1319430843106020684069666ABC
:1011400020F0070130460E43012704280CD1A06A85
:101150000643E06A40B12046FFF774FC20B140200E
:10116000606584F83570BAE7206846612046FFF76D
:1011700055FC94F85C203F2191408160656584F8BE
:1011800035700020ACE700003F8010F070B50446D9
:1011900000F096F90546601C02D00448007804442B
:1011A00000F08EF9401BA042FAD370BD0C00002065
:1011B000F0B587B014216846FFF7CBFA25480168DF
:1011C000002944D10121016023480024016841F035
:1011D000010101600068022500F0010005904FF652
:1011E0003F00CDE9000502AA03260C2782E8D000C3
:1011F00069461A4800F03CF80D20CDE9000502AA26
:10120000694682E8D000164800F032F848F2331000
:10121000CDE9000502AA694682E8D000114800F035
:1012200027F84FF68370CDE9000502AA694682E8E7
:10123000D0000D4800F01CF84CF20370CDE9000519
:1012400002AA694682E8D000084800F011F807B009
:10125000F0BD0000040000203838024000140240B5
:10126000000802400018024000100240000C02403A
:101270002DE9F84FDFF8F8A10022012403254FF0F3
:101280000F090AF1040BAAF1040E00BF0B6804FA5F
:1012900002F63340B34270D10F7907F00307012FF4
:1012A00001D0022F16D187684FEA420805FA08FCE0
:1012B00027EA0C07D1F80CC00CFA08FC4CEA070C22
:1012C000C0F808C04768B7430E79C6F300169640C9
:1012D0003E4346600E79F643B6070AD0C7684FEA28
:1012E000420C05FA0CF6B7438E6806FA0CF63E433C
:1012F000C6600E7906F00306022E10D1D60800EB68
:101300008608D8F8206057074FEAD76C09FA0CF71F
:10131000BE430F6907FA0CF73743C8F82070066818
:101320004FEA420C05FA0CF7BE430F7907F00307AA
:1013300007FA0CF7374307604E6816F4403F1CD09D
:101340004C4E376847F480473760366822F0030711
:1013500006F480460096484E07EB060CDCF8086859
:1013600097073F0F09FA07F826EA0806DFF80C810D
:10137000404503D14FF0000841E072E0DFF8008102
:10138000404502D14FF0010839E0DFF8F8804045D0
:1013900002D14FF0020832E0DFF8EC80404502D184
:1013A0004FF003082BE0DFF8E480404502D14FF016
:1013B000040824E0DFF8D880404502D14FF005084A
:1013C0001DE0DFF8D080404502D14FF0060816E05E
:1013D000DFF8C480404502D14FF007080FE0DFF886
:1013E000BC80404502D14FF0080808E0DFF8B0802B
:1013F000404502D14FF0090801E04FF00A0808FA11
:1014000007F848EA0608CCF80888DAF8006057467A
:10141000D1F804C09E435FEACC2C00D51E433E6049
:10142000DBF800605F46D1F804C09E435FEA8C2C75
:1014300000D51E433E60DEF800607746D1F804C058
:101440009E435FEA8C3C00D51E433E60084F083F38
:101450003E68D1F804C09E435FEACC3C00D51E43F1
:101460003E60521C102AFFF411AFBDE8F88F000057
:10147000083C014044380240003001400000024076
:101480000004024000080240000C0240001002402C
:101490000014024000180240001C024000200240DC
:1014A00000240240426921EA02030A4043EA024161
:1014B000816170470AB1816170470904FBE7000050
:1014C00001488068704700000C00002090F83D2023
:1014D000202A01D002207047242280F83D20026893
:1014E000136823F0010313600268536A23F01003AA
:1014F00053620268536A0B43536201680A6842F000
:1015000001020A60202180F83D100020704790F809
:101510003D20202A01D002207047242280F83D205F
:101520000268136823F00103136003685A6A22F00B
:101530000F020A4391B2596201680A6842F001023F
:101540000A60202180F83D100020704770B504002B
:1015500025D094F83D00002520B984F83C50204661
:1015600000F0B8F8242084F83D002068016821F0DC
:10157000010101602068016841F4004101602068B8
:10158000016821F40041016000F0DEFC4D4A616811
:10159000914201D84C4900E04C49884201D20120D7
:1015A00070BD4B492368B0FBF1F15E6826F03F0641
:1015B0000E435E606368934206D94FF496735943B5
:1015C0004FF47A73B1FBF3F12368491C1E6A26F0CD
:1015D0003F06314319626168914210D84900401EAC
:1015E000B0FBF1F2521CC2F30B02042A01D2042018
:1015F00022E0B0FBF1F0401CC0F30B001CE0A2683D
:10160000F2B301EBC10303EB0116431EB3FBF6F388
:101610005B1C43F480431B0549D092B301EBC1022C
:1016200002EB0111401EB0FBF1F0401CC0F30B00B7
:1016300040F4804040F400402168CA694CF6FF73D2
:101640009A431043C861D4E9071001432068026837
:1016500022F0C00211430160D4E903010143206874
:10166000826848F2FF339A4311438160D4E905014F
:1016700008432168CA6822F0FF021043C86001E0F5
:101680000EE016E02068016841F001010160256468
:10169000202084F83D00256384F83E50002070BD72
:1016A00001EB4106431EB3FBF6F35B1CB3E70120DD
:1016B000C2E701EB4101401EB0FBF1F0401CC0F35A
:1016C0000B00B7E7A086010080841E0000093D00E2
:1016D00040420F00F0B587B0044614216846FFF77A
:1016E00038F81D492068884233D11C48002401681D
:1016F00041F004010160016801F0040105910168F5
:1017000041F0010101600068122500F00100059020
:101710004FF40070CDE9000502AA0326042782E8F1
:10172000D00069460E48FFF7A3FDB801CDE90005DA
:1017300002AA694682E8D0000A48FFF799FD0748E7
:101740001030016841F400010160006800F40000FD
:10175000059007B0F0BD0000005C0040303802404A
:1017600000080240000002400248816802781144EB
:10177000816070470C0000200B4810B5016841F4EF
:1017800000710160016841F480610160016841F409
:1017900080710160032000F0C1F90F2000F006F80D
:1017A00000F076F9002010BD003C024070B50D4DF0
:1017B00004464FF47A712878B1FBF0F00A490968C1
:1017C000B1FBF0F001F00CF948B9102C07D200225F
:1017D0002146501E00F082F900206C6070BD01208F
:1017E00070BD00000C000020180000202DE9F04121
:1017F000044690F8A00016460F4601281DD001258A
:1018000084F8A050022084F8A10006EB860000EBCB
:10181000C60004EB800034223830FEF768FF324601
:101820003946204601F080FE2068456284F8A150C8
:10183000002084F8A000BDE8F0810220FBE770B52D
:10184000040004D094F8A100002510B106E00120A6
:1018500070BD84F8A050204600F050F8022084F8B3
:10186000A1002068816921F070418161D4E9010102
:101870000843D4E903121143084321688A691043DD
:101880008861A08AA16941EA004120688160A08B3B
:10189000216A41EA00412068C160A08CA16A41EA46
:1018A000004120680161A08D216B41EA0041206860
:1018B000416194F835002168030294F83600CA6A41
:1018C00002F07F42CA622168CA6A94F8346043EA2F
:1018D000004032430243CA622068416B41F0060176
:1018E00041632068816941F001018161C4F8A4501D
:1018F000012084F8A100002070BD00002DE9F04116
:1019000092B0044614216846FEF723FF302105A853
:10191000FEF71FFF5649206888427DD108200590B8
:10192000002432200E94022509900B9505A800F0A2
:101930003FF908B1FFF70DFA4E48016841F08061A8
:101940000160006800F0806011904A481438016816
:1019500041F020010160016801F02001119101684E
:1019600041F001010160016801F00101119101687C
:1019700041F002010160016801F00201119101686A
:1019800041F040010160016801F0400111910168DE
:1019900041F004010160016801F004011191016846
:1019A00041F00801016000680E2600F00800119067
:1019B0004FF480600090CDE90154CDE903466946BB
:1019C0002D48FFF755FC41F658000090CDE9015431
:1019D000CDE9034669462948FFF74AFC03200090F9
:1019E000CDE901540927DFF89880CDE9034769461E
:1019F0004046FFF73DFC4FF470600090CDE9015484
:101A0000CDE9034669464046FFF732FC4FF40C60CF
:101A10000090CDE9015400E027E0DFF86880CDE9CF
:101A2000034669464046FFF723FC4FF49860009058
:101A3000CDE90154CDE9034669461348FFF718FC88
:101A400048200090CDE90154CDE9034669460F488E
:101A5000FFF70EFC4FF4A0500090CDE90154CDE902
:101A6000034769464046FFF703FC12B0BDE8F0812A
:101A70000068014044380240001402400000024067
:101A8000000402400018024000080240000C02401E
:101A90000A4808B5016841F480410160006800F41B
:101AA000804000900548001F016841F080510160AE
:101AB000006800F08050009008BD000044380240EB
:101AC000002809DB00F01F0201219140400980003D
:101AD00000F1E020C0F8001170470000F0B40E4B98
:101AE0001B680C46C3F30223C3F10705042D00D97C
:101AF0000425191D072901D2002300E0DB1E012661
:101B000006FA05F1491E214099409E40761E164076
:101B10003143F0BC02F075BD0CED00E0064900F069
:101B2000070208684FF6FF03184040EA0220034A04
:101B300010430860704700000CED00E00000FA055B
:101B40002DE9F8431748016841F0805101600068B1
:101B5000154F00F08050012600903E64FFF7B0FC66
:101B600005464FF47A78114C05E000BFFFF7A8FC5A
:101B7000401B40450DD86068C003F7D57E64FFF771
:101B80009FFC0546464607E0FFF79AFC401BB04223
:101B900002D90320BDE8F88360688003F4D50020F3
:101BA000F8E700004038024000000E42007000409C
:101BB0002DE9F84F04460068DFF824A2894F8A4DCA
:101BC000C1074FF001084FF0000603D1810701D48F
:101BD000400648D5CAF86860FFF772FC814605E008
:101BE000FFF76EFCA0EB090002287DD828680001F1
:101BF000F6D42078C1077D4805D06168227A890132
:101C000041EA027101602178890711D50168626893
:101C1000237B9201C1F3027142EA036242EA01713D
:101C200001603968E26921F01F01521E11433960D9
:101C30002178490608D56168227B890141EA026161
:101C4000227A41EA02710160CAF86880FFF738FC25
:101C5000814605E0FFF734FCA0EB0900022843D8D9
:101C600028680001F6D52068410701D400074ED549
:101C7000CAF87060FFF724FC814605E0FFF720FCFE
:101C8000A0EB090002282FD82868C0438000F5D5B2
:101C900020784107564814D501682269237D9201B6
:101CA000C1F3027142EA036242EA017101603968DC
:101CB000226A6FF0FF0321F4F85103EB0222114373
:101CC00039602178090712D501682269C1F30361DF
:101CD000920142EA0161227E41EA027101603868A4
:101CE000616A20F4403000E051E008433860CAF8EF
:101CF0007080FFF7E5FB074605E000BFFFF7E0FB5C
:101D0000C01B022843D82868C0438000F6D420783E
:101D1000800653D534484030016841F0805101605D
:101D20000068344D00F080500090286840F48070C6
:101D30002860FFF7C5FB074605E000BFFFF7C0FBC3
:101D4000C01B022823D82868C005F7D5274D143DAD
:101D5000286810F4407020D0218D01F44071814238
:101D60001BD0286820F440712348C0F8008006602A
:101D700029602868C00710D0FFF7A2FB064641F291
:101D8000883707E0FFF79CFB801BB84202D903208D
:101D9000BDE8F88F28688007F4D5A16A1248C1F31E
:101DA00001220830032A13D0016821F4F8110160E0
:101DB0002868218DC1F30B01084328602078C006F4
:101DC00004D50E4994F82C00C1F8E0010020DFE7AB
:101DD00002680B4B22F4F81219400A430260E7E74D
:101DE000000047428C3802400038024084380240EC
:101DF0008838024000700040400E474200104742C1
:101E0000FFFCFF0F704700002DE9F0470E4605006C
:101E100065D0DFF81481D8F80000F7B200F00F00A9
:101E2000B04207D288F80070D8F8000000F00F0028
:101E3000B04254D128683D4C810712D5400703D5E4
:101E4000206840F4E05020602878000703D520681F
:101E500040F4604020602068A96820F0F00008434A
:101E600020602878C0072DD03049686808390128DB
:101E700012D0022813D0032811D00968890700293D
:101E80002DDA216821F0030101432160FFF718FBDF
:101E9000814641F2883A0EE009688903EFE7096854
:101EA0008901ECE7FFF70CFBA0EB0901514502D9D2
:101EB0000320BDE8F0872068696800F00C00B0EBF3
:101EC000810FEFD1D8F80010404601F00F01B14268
:101ED00007D90770006800F00F00B04201D0012060
:101EE000E7E72878400705D52068E96820F4E05046
:101EF000084320602878000706D52068296920F467
:101F0000604040EAC100206000F03EF82168084AC5
:101F1000C1F30311515CC8400649086006480068D7
:101F2000FFF744FC0020C4E7003C024008380240B0
:101F30004647000818000020100000200149012039
:101F4000C8647047000047420448054900680968B2
:101F5000044AC1F38221515CC84070471800002038
:101F600008380240564700080448054900680968D7
:101F7000044AC1F34231515CC84070471800002048
:101F80000838024056470008154810B5006810F0A0
:101F90000C02144813D04110042A0FD0082A0ED185
:101FA0000F4C241F2268236802F03F025B0207D512
:101FB0002068C0F38810A0FB010106E0084610BDB0
:101FC0002168C1F38811A1FB00010023FEF766F927
:101FD0002168C1F30141491C4900B0FBF1F010BD7B
:101FE000083802400024F400054810B500680006D7
:101FF00005D5FFF707FF02498020891C087010BD36
:102000000C3802402DE9F84F04006ED02078DFF83C
:102010004C93C007A9F104054AD009F104000168F6
:10202000C1F38101012908D00068C0F381000228B2
:102030000AD1D9F80000400206D52868800337D5B8
:1020400060680028E1D033E06068B0F5803F10D0D0
:10205000B0F5A02F286810D020F4803028602868C0
:1020600020F4802028606068A8B1FFF729FA0646AE
:102070000DE0286840F48030F4E740F480202860C8
:10208000F7E700BFFFF71CFA801B642873D82868A5
:102090008003F7D50CE0FFF713FA064605E000BF12
:1020A000FFF70EFA801B6428F0D828688003F7D465
:1020B0002078DFF8AC8280074FF0000A3ED5A748B1
:1020C000001D016811F00C0F08D00068C0F38100FA
:1020D00002280BD1D9F80000400207D428688007F5
:1020E00016D5E068012800D112E033E1E068B8B10C
:1020F0000120C8F80000FFF7E3F9064605E000BF3D
:10210000FFF7DEF9801B0228C0D828688007F7D5C2
:102110002868216920F0F80040EAC10028600DE03D
:10212000C8F800A0FFF7CCF9064604E0FFF7C8F9AD
:10213000801B02281FD828688007F7D42078000762
:1021400022D5864F87486169703771B101210160DE
:10215000FFF7B6F9064604E0FFF7B2F9801B022844
:1021600009D838688007F7D50EE0C0F800A0FFF75F
:10217000A7F9064605E082E0FFF7A2F9801B0228D6
:102180007DD838688007F7D42078400768D5DFF815
:10219000CCB100270BF13C0BDBF80000C0000BD4E6
:1021A000DBF8001041F08051CBF80010DBF80000A4
:1021B000012700F0805000906B4E3068C00510D4AD
:1021C000306840F480703060FFF77AF9009005E0E5
:1021D000FFF776F90099401A022850D83068C005F8
:1021E000F6D55E4EA0686C3601280FD00528306801
:1021F00010D020F001003060306820F00400306022
:10220000A068B8B1FFF75CF900900FE0306840F0CB
:102210000100F4E740F004003060F7E7FFF750F901
:102220000099411A41F28830814266D830688007AF
:10223000F4D50EE0FFF744F9009007E0FFF740F90E
:102240000099411A41F28830814256D8306880079F
:10225000F4D42FB1DBF8001021F08051CBF800103E
:10226000A069C8B33D49091D0968C1F3810102296C
:102270004AD00228504607D0C8F8600000E03CE091
:10228000FFF71EF904463BE04746C8F86000FFF739
:1022900017F9064605E000BFFFF712F9801B022878
:1022A0002BD828688001F7D4D4E907010843A16A34
:1022B0002E4A490802EB0141626A41EA8211084351
:1022C00094F82C1040EA0161C9F80010012038662A
:1022D000FFF7F6F8044606E03EE000BFFFF7F0F82F
:1022E000001B022809D828688001F7D534E000BF18
:1022F000FFF7E6F8001B022802D90320BDE8F88F9B
:1023000028688001F4D427E00128F7D0D9F800002C
:10231000E26900F4800191421CD1226A00F03F0181
:10232000914217D147F6C071626A0140B1EB821F3A
:1023300010D1A26A4FF0FF3300F4403103EB520298
:10234000B1EB024F06D194F82C1000F07060B0EBA6
:10235000016F01D00120D1E70020CFE7043802400F
:1023600000004742800E4742007000400000FFFF1F
:102370000068503050F8210070470068503040F835
:102380002120704710B500680B4641680D48014098
:10239000080CD870C1F304245C7001F03F049C70F9
:1023A000C1F34231197052B901F0CBFBD8705878A3
:1023B00001F0C7FB5870987801F0C3FB98700020BB
:1023C00010BD00003FFFFF0010B50B460168896A91
:1023D000596001680969C1F30E01996000680168DC
:1023E0000D480140C1F305401870C1F306245C702C
:1023F00001F07F049C70890DD97052B901F0A1FBE6
:102400001870587801F09DFB5870987801F099FB8E
:102410009870002010BD00007F7F7F0010B5040081
:1024200002D0607F10B106E0012010BD00202077AF
:10243000204600F041F8022060772068C168C94357
:10244000C90632D5CA21416221685320486220461C
:1024500001F08CFB20BB20688168164A1140816026
:102460002168886862681043D4E904231A43104342
:1024700088602168E068086120680169228941EA72
:1024800002410161204601F095FB48B921680A6CC0
:1024900022F480220A6421680A6CA3691A430A6440
:1024A0002268FF21516208B110BD0020012161772F
:1024B00010BD0000BFFF8FFF10B58CB00446302167
:1024C0006846FEF746F90949206888420CD1202069
:1024D0000090C0000A906846FFF76AFB08B1FEF75B
:1024E00038FC0349012008600CB010BD00280040F2
:1024F0003C0E474270B50446007F0B46012819D0B8
:102500000126267702206077B2B19878D97840EA20
:10251000014558781978000240EA413005432168A6
:10252000CA204862216853204862204601F01EFB01
:10253000D0B122E0022070BD5878C10603D500F06A
:10254000EF000A305870D87801F004FB0204587884
:1025500001F000FB42EA0022987801F0FBFA024306
:10256000187842EA4035DAE70748054020684560B8
:10257000204601F01FFB00B966772268FF215162F7
:102580000021217770BD00003FFFFF002DE9F041E1
:102590000446007F0D46012823D04FF0010884F83F
:1025A0001C80022060772068002780684FEA406026
:1025B000D2B1002800DBEF70A878297840EA014604
:1025C0006878E978000240EA815006432168CA2011
:1025D0004862216853204862204601F0C7FAB8B12A
:1025E0002CE00220BDE8F081002800DBEF702878A5
:1025F00001F0B0FA0204687801F0ACFA42EA002275
:10260000A87801F0A7FA0243E87842EA8056DDE7AD
:102610000D480640206806602068816821F480210A
:102620008160D5E90301084321688A681043886006
:10263000204601F0BFFA08B984F81D802268FF2106
:1026400051622777CEE700007F7F7F0070B5044698
:102650000B482168C860FEF733FF05464FF47A76D1
:1026600007E000BFFEF72CFF401BB04201D903205A
:1026700070BD2068C0688006F4D5002070BD0000E1
:102680005F7F010070B50D46040003D094F82C0064
:1026900010B107E0012070BD002084F82D00204615
:1026A00000F011F8022084F82C00211D2068FEF7AC
:1026B00052FBD4E900022946FEF780FB012084F892
:1026C0002C00002070BDFEF773BD70B5040009D06A
:1026D000606A002540B125616561A56294F85100EA
:1026E00040B10CE0012070BD6068B0F5827FF4D08D
:1026F000E561F2E784F85050204600F045F80220EA
:1027000084F851002068016821F040010160A08830
:10271000218900F4827001F404410843A18901F485
:1027200000610843217C01F002010843217D01F092
:1027300001010843218B01F400710843217F01F05E
:102740003801084394F8201001F080010843218DDE
:1027500001F40051084321680860A069042101EADE
:10276000104094F8241001F01001084321684860DB
:102770002068C16921F40061C1616565012084F8A8
:102780005100002070BD000010B586B00446142131
:102790006846FDF7DEFF13492068884220D11248C1
:1027A0000021026842F480520260006800F4805008
:1027B00005900D481438026842F002020260006879
:1027C00000F002000590382000900220CDE90101C0
:1027D000032003900520049069460448FEF748FD55
:1027E00006B010BD003001404438024000040240F1
:1027F0002DE9FF4F81B01D46934604464FF0010975
:102800000E9EFEF75DFE074694F8510061680128B0
:1028100006D0B1F5827F3CD1A168C9BB042838D16C
:102820000298002871D0BBF1000FFBD0002DF9D029
:1028300094F8500001282CD04FF0010A84F850A0E1
:1028400094F85100042802D0052084F851004FF07C
:102850000008C4F85480C4F838B0E587A587029909
:102860002163E586A586C4F84080C4F844802068CA
:102870000168490603D4016841F040010160E06845
:10288000B0F5006F606808D0F0B3012D49D081E049
:10289000FFE7022005B0BDE8F08F08B1012D39D166
:1028A000206B21680088C860206B801C2063E08E4C
:1028B000401EE0862EE02068816889070FD5E18EF2
:1028C00069B1B9F1010F0AD1216B0988C160206B90
:1028D000801C2063E08E401EE0864FF000092068D7
:1028E0008168C9070CD0E18F51B1C068A16B088025
:1028F000A06B801CA063E08F401EE0874FF00109B1
:10290000FEF7DEFDC01B01E00BE067E0B04201D343
:10291000701C50D1E08E0028CDD1E08F0028CAD1A4
:102920003EE0206B216800780873206B401C206318
:10293000E08E401EE0862DE02068816889070FD573
:10294000E18E69B1B9F1010F0AD1216B09780173E8
:10295000206B401C2063E08E401EE0864FF0000993
:1029600020688168C9070CD0E18F51B1C068A16BA4
:102970000870A06B401CA063E08F401EE0874FF002
:102980000109FEF79DFDC01BB04202D3701C01D0AF
:1029900011E086B1E08E0028CED1E08F0028CBD1A7
:1029A0003A463146204601F021FA50B120206065B8
:1029B00084F8508012E084F851A084F850800320FD
:1029C00068E7A06818B92068C1688068009084F83A
:1029D00051A084F85080606D0028F1D0012059E7A3
:1029E00010B5401EB0F1807F01D3012010BD4FF023
:1029F000E02460610F21601701F003FE0020A06158
:102A000007202061002010BD7047704770B590F816
:102A10003C20012A32D0012480F83C40022280F878
:102A20003D2003685A689D6822F070060A683243A8
:102A30005A60134B02689A4214D0B2F1804F11D001
:102A4000104B9A420ED0104B9A420BD00F4B9A4229
:102A500008D00F4B9A4205D00E4B9A4202D00E4B33
:102A60009A4204D1496825F080031943916080F8A7
:102A70003D40002180F83C10084670BD022070BD2A
:102A8000000001400004004000080040000C00402D
:102A900000040140004001400018004010B504004F
:102AA00003D094F83D0010B107E0012010BD0020D4
:102AB00084F83C00204600F01FF8022084F83D0016
:102AC000211D206801F08AFA012084F8460084F86C
:102AD0003E0084F83F0084F8400084F8410084F808
:102AE000420084F8430084F8440084F8450084F8E8
:102AF0003D00002010BD000008B500680B49884269
:102B000012D10B48016841F4807101600068002215
:102B100000F48070009011462D20FEF7DFFFBDE825
:102B200008402D20FEF7CCBF08BD0000002000406B
:102B30004038024090F83D10012901D00120704733
:102B4000022180F83D100168CA6842F00102CA60A3
:102B500000681149884214D0B0F1804F11D00F495C
:102B600088420ED00E4988420BD00E49884208D0C8
:102B70000D49884205D00D49884202D00C4988424F
:102B800004D1816801F00701062903D0016841F0F2
:102B90000101016000207047000001400004004076
:102BA00000080040000C00400004014000400140CB
:102BB0000018004070472DE9F04104460068C668DF
:102BC00005694FF00007A90713D5B10711D5F91E04
:102BD000016101202077206880698007204602D0AB
:102BE000FFF7E8FF04E000F0A7F8204600F04CF9FA
:102BF0002777680716D5700714D521686FF0040091
:102C00000861022020772068806910F4407F204608
:102C100002D0FFF7CFFF04E000F08EF8204600F06E
:102C200033F92777280715D5300713D521686FF0BA
:102C300008000861042020772068C06980072046CA
:102C400002D0FFF7B7FF04E000F076F8204600F06E
:102C50001BF92777E80616D5F00614D521686FF022
:102C600010000861082020772068C06910F4407FB8
:102C7000204602D0FFF79EFF04E000F05DF82046FA
:102C800000F002F92777E80708D0F00706D021689E
:102C90006FF001000861204600F05CF9280608D5B5
:102CA000300606D521686FF0800008612046FFF7E6
:102CB000ABFE680608D5700606D521686FF04000A7
:102CC0000861204600F05AF9A8060AD5B00608D5D2
:102CD00021686FF0200008612046BDE8F041FFF751
:102CE00094BEBDE8F081000010B586B00446142102
:102CF0006846FDF72EFD0D492068884214D10C4826
:102D00000021026842F002020260006800F0020046
:102D10000590402000900220CDE90101CDE903108B
:102D200069460448FEF7A4FA06B010BD000800404A
:102D30003038024000040240704770B5044690F8F5
:102D40003C0000260D4601280FD0012084F83C00ED
:102D50006AB1042A1DD0082A2FD00C2A3FD00126A0
:102D6000002084F83C00304670BD022070BD206811
:102D700001F0AAF92068816941F0080181612068A9
:102D8000816921F004018161206881692A69114308
:102D900011E0206801F0C8F92068816941F4006100
:102DA00081612068816921F4806181612068816985
:102DB0002A6941EA02218161D2E7206801F0EAF93B
:102DC0002068C16941F00801C1612068C16921F032
:102DD0000401C1612068C1692A69114311E02068BA
:102DE00001F00CFA2068C16941F40061C1612068FA
:102DF000C16921F48061C1612068C1692A6941EA21
:102E00000221C161ACE710B5040003D094F83D0085
:102E100010B107E0012010BD002084F83C002046DE
:102E200000F01EF8022084F83D00211D206801F00A
:102E3000D5F8012084F8460084F83E0084F83F006D
:102E400084F8400084F8410084F8420084F843008C
:102E500084F8440084F8450084F83D00002010BD4B
:102E600008B500680649884208D10648016841F063
:102E700004010160006800F00400009008BD00003B
:102E800000080040403802407047000010B504467A
:102E9000022249B104290ED0082913D094F8410028
:102EA000012816D0012010BD94F83E000128F9D168
:102EB00084F83E200FE094F83F000128F2D184F816
:102EC0003F2008E094F840000128EBD184F840202E
:102ED00001E084F841200122206801F0E7F816495A
:102EE0002068164A884201D0904203D1436C43F4D3
:102EF000004343642068884213D0B0F1804F10D063
:102F00000F4988420DD00F4988420AD00E498842A5
:102F100007D0904205D00D49884202D00C49884222
:102F200004D1816801F00701062903D0016841F04E
:102F300001010160002010BD0000014000040140BB
:102F40000004004000080040000C00400040014028
:102F50000018004010B500680549884206D140219C
:102F60000448FEF79FFA04490120087010BD0000D4
:102F7000002000400010024000000020704718B5FB
:102F8000034690F84200202801D0022018BD61B10C
:102F90005AB10120186300205863184601F0DCFA8A
:102FA0000028F3D1196B012901D0012018BD19683F
:102FB0000A684968009119680C3151E8002F42F005
:102FC000100241E80024002CF5D118BDFDF778BEB1
:102FD00070470000F8B5016804460868CA684B6984
:102FE00010F00F0F4FF0000559D003F0010602F466
:102FF0009077374365D0C10705D0D10503D5616C03
:1030000041F001016164410705D5D90703D0616C26
:1030100041F002016164810705D5D90703D0616CD5
:1030200041F004016164010707D502F0200131433A
:1030300003D0616C41F008016164616C00293AD0F1
:10304000800604D5900602D5204601F09DF920683F
:103050004069616CC0F38010090700D460B320465A
:1030600001F06BF920684069400621D520681430D2
:1030700050E8001F21F0400140E80012002AF5D17D
:10308000E06BA8B172490165E06BFDF732FF0028E3
:1030900011D0E06B016D01B0BDE8F0400847830638
:1030A0000FD593060DD52046BDE8F84001F06CB968
:1030B0002046FFF78DFFF8BD2046FFF789FF6564C6
:1030C000F8BD266B2023012E7ED1C6067CD5D60600
:1030D0007AD508684868009048694FF002064006B3
:1030E0004DD5E26B106840684FF480770004000C07
:1030F0003AD0A18D814237D9E085D069B8422DD030
:1031000020680C3050E8001F21F4807140E8001264
:10311000002AF5D12068143050E8001F21F0010189
:1031200040E80012002AF5D12068143050E8001F52
:1031300021F0400140E80012002AF5D184F8423025
:10314000256320680C3050E8001F21F0100140E892
:103150000012002AF5D1E06BFDF782FE6663A08DB8
:10316000E18D401A81B206E0A18D8142A8D1D069DB
:10317000B842A5D166632046FFF728FFF8BDA08DB1
:10318000E18D401A81B2E08D0028F7D00029F5D0FA
:1031900020680C3050E8002F22F4907240E800279D
:1031A000002FF5D12068143050E8002F22F00102E2
:1031B00040E80027002FF5D184F8423025632068CD
:1031C0000C3050E8002F00E006E022F0100240E84A
:1031D0000023002BF3D1CDE705062BD5150629D505
:1031E00094F841002128C9D1A068B0F5805F01D1D1
:1031F0002069B0B1206A411C2162216800784860D2
:10320000E08C401E0004000CE084B7D12068C16847
:1032100021F08001C1602068C16841F04001C160B7
:10322000F8BD206A0088C0F308004860206A801C4E
:103230002062E5E74006F3D55006F1D5CA6820467E
:1032400022F04002CA6084F8413000F004F9F8BD71
:103250002D43000870B5040004D094F84100002507
:1032600010B106E0012070BD84F84050204600F007
:1032700023F8242084F841002068C16821F400511B
:10328000C160204601F0E2F82068016921F4904114
:1032900001612068416921F02A0141612068C1680B
:1032A00041F40051C1606564202084F8410084F835
:1032B00042006563002070BD70B586B006461421DB
:1032C0006846FDF746FA344C30680025334902233E
:1032D0000322A0423ED131481030046844F08044BB
:1032E0000460006800F080400590086840F020000D
:1032F00008600868694600F020000590C0208DE84D
:1033000029000820CDE903202548FDF7B1FF264C10
:10331000244820604FF02060C4E901054FF480602C
:10332000C4E9035080106561C4E906502562204657
:103330006562FDF7C1FE08B1FDF70BFDF4630022E5
:1033400011465220A663FEF7C9FB5220FEF7B8FBD8
:1033500006B070BD154CA042FAD110481430046874
:1033600044F010040460006800F010000590086844
:1033700040F0010008600868694600F0010005900F
:103380004FF4C0608DE829000720CDE903200848EC
:10339000FDF76EFFDCE700000078004030380240A7
:1033A0000014024058600240FC020020001001405E
:1033B0000000024070472DE9F843044690F84100B0
:1033C000984616460D46202802D00220BDE8F88314
:1033D00085B17EB100206064212084F84100FEF7B1
:1033E0006FF8A6848146E684A0682027B0F5805F48
:1033F00002D003E00120E9E7206910B12E46002544
:103400000EE000260CE08021204601F0C0F8A8B9AB
:10341000C6B116F8010B21684860E08C401EE084BC
:10342000E08C4B464FF00002CDF800800028EAD136
:103430004FF04001204601F0AAF840B184F84170F5
:103440000320C3E735F8020BC0F30800E3E784F874
:1034500041700020BAE77047FEE7000000B587B072
:1034600014216846FDF775F90D480021026842F005
:1034700040020260006800F0400005904FF40050E8
:1034800000900120CDE90101022003906946054822
:10349000FDF7EEFE00F012F800F006F807B000BDF0
:1034A000303802400018024010B5012000F021F829
:1034B00004463220FDF76AFE204610BD012251036A
:1034C0000148FDF7F7BF00000018024000224FF44A
:1034D00000510148FDF7EEBF0018024010B500236F
:1034E00002228021182000F00BFC002800D00120CF
:1034F00010BD1CB5002100918DF800000191FFF76F
:10350000EDFF08B101201CBDFFF7E0FFC823022238
:1035100001A9684600F05CFC10B1FFF7CFFFF1E7AE
:10352000FFF7CCFF00201CBDF0B503688C88DD6878
:10353000C5F30B452C442504882404EBC2141E5902
:1035400006F470461E5103680F68DE68C6F30B462A
:10355000761C3E442E431E5103688C89DD68C5F3FA
:103560000A052C4425048C2404EBC2141E5906F4CD
:1035700070461E5103688F68DE68C6F30A06761C23
:103580003E442E431E519423046803EBC213E558B6
:1035900025F00705E55005680C69EC5091F83130CD
:1035A0000C7E1E0291F8323091F830501B043543E6
:1035B00043EA04631D439C24036804EBC2141D51B9
:1035C0009823046803EBC213E55825F0FF05E55086
:1035D00005684C69EC50A023046803EBC213E5585E
:1035E00040F20776B543E550D1E907452C4305681D
:1035F000EC50AC25046805EBC2154B6A63510B69AE
:103600008BB3012B32D0042B32D0022B30D0032BC2
:103610002ED0072B2CD00123B024056804EBC21454
:103620002E5906F0E0262E51D1E90065AD1B0E8D16
:103630005D435E43ED1C45EA064305682B51B42308
:10364000046803EBC213E5586FF30A05E5500468FC
:10365000C96AE1500068842101EBC211425842F06E
:1036600001024250F0BDFFE70423D5E70323D3E76F
:103670000223D1E700B587B01C216846FDF769F841
:10368000114810490022C0E900120421C0E90221BA
:1036900010214023C0E904138023C0E906320262EE
:1036A000426282620091019102910391049105911D
:1036B00006916946FEF7E6FF002801D072B6FEE7E4
:1036C00007B000BD400100A0C80200202DE9F04F66
:1036D00087B014216846FDF73CF872480024016861
:1036E00041F010010160016801F0100105910168CD
:1036F00041F004010160016801F0040105910168D5
:1037000041F020010160016801F02001059101688C
:1037100041F080010160016801F0800105910168BC
:1037200041F001010160016801F0010105910168AA
:1037300041F002010160016801F002010591016898
:1037400041F040010160016801F04001059101680C
:1037500041F0080101600068534E00F00800059038
:10376000002240213046FDF7A5FEDFF840B141F6CA
:103770003217002239465846FDF79CFE00222521CB
:103780004B48FDF797FE4FF4C04800224146494898
:10379000FDF790FE41F6B009002249464648FDF784
:1037A00089FE46F20C0A002251464448FDF782FE8B
:1037B0000C20CDE90004694630460294FDF758FD1F
:1037C000402000900125CDE901546946304603941C
:1037D000FDF74EFD6E02CDE900646946384802945B
:1037E000FDF746FD0097CDE901546946584603941C
:1037F000FDF73EFD25200090CDE9015469462C4897
:103800000394FDF735FD48F28200CDE900046946D6
:1038100027480294FDF72CFD4FF41040CDE9000439
:10382000694624480294FDF723FDCDF80080CDE9D8
:10383000015469461F480394FDF71AFDCDF8009026
:10384000CDE9015469461C480394FDF711FD42F28D
:103850000400CDE90004694617480294FDF708FD0D
:10386000CDF800A0CDE90154694614480394FDF752
:10387000FFFC4FF488100096CDE9010469460F481B
:10388000FDF7F6FC002201210948FDF713FE009523
:10389000CDE90154694606480394FDF7E9FC07B0F9
:1038A000BDE8F08F303802400010024000080240AE
:1038B0000000024000040240000C024000180240D8
:1038C00000140240134810B51149016012494160CB
:1038D00000214FF480428160C0E90312416181619F
:1038E000C1610162FDF732FE08B172B6FEE7002148
:1038F0000848FDF7EBFD08B172B6FEE70021054868
:10390000FDF705FE002801D072B6FEE710BD0000ED
:10391000005C004034000020A086010070B59AB021
:1039200034216846FCF715FF34210DA8FCF711FF80
:1039300030482F490024C0E9001484600721C46086
:10394000C0E90441032181610E210525C0E9071565
:1039500040F28E21416240F2E51181624FF42571FF
:10396000C16240F2E711016380F8344080F83540CD
:1039700080F83640FDF763FF08B172B6FEE70194A8
:1039800002944FF48066CDE90646039404940094B3
:10399000CDE908548DF8304005948DF831400A94F3
:1039A0000B948DF83240002269461248FDF71EFF45
:1039B00008B172B6FEE70D940E940F941094119412
:1039C0001294CDE91346CDE915548DF864408DF875
:1039D0006540179418948DF8664001220DA905489A
:1039E000FDF704FF002801D072B6FEE71AB070BDE3
:1039F000006801408800002010B586B01421684698
:103A0000FCF7A7FE1F4800241D490594C0E90014D7
:103A10007F218160FF21C0E9031444618461FEF7C6
:103A2000FDFC08B172B6FEE700211648FEF7A0FCC7
:103A3000A0F52541A53921D08DF800408DF8014031
:103A40008DF802400394012269460E480494FEF763
:103A50009DFD08B172B6FEE701208DF814008DF8C7
:103A600015008DF8160002468DF8174005A9054887
:103A7000FEF740FD002801D072B6FEE706B010BD8B
:103A800000280040300100200E4810B50C490160AC
:103A90004FF48271416000218160C1604FF4007277
:103AA0000161C0E90512C1610162416281620A21BE
:103AB000C162FEF70AFE002801D072B6FEE710BD13
:103AC000003001405001002010B58AB00024079456
:103AD0001C2168460894FCF73CFE16481449C0E9CE
:103AE00000144FF6FF71C0E9024104618461FFF7E1
:103AF0008AF908B172B6FEE7079407A90D48089441
:103B0000FEF784FF08B172B6FEE76020CDE900043D
:103B100002940022694607480494FFF70EF908B1A1
:103B200072B6FEE70348FFF7DFF80AB010BD0000E9
:103B300000080040A8010020FEE7FEF755FAFEE766
:103B40007047010901EB810100F00F0000EB41001B
:103B5000C0B27047002102E00A38C0B2491C0A28EE
:103B6000FAD2090740EA1160704700002DE9F041E0
:103B7000044600680025C168490618D4C16841F0B0
:103B80008001C160FDF79CFC06464FF47A7804275B
:103B900007E000BFFDF794FC801B404501D9677723
:103BA00001252068C068400601D4002DF2D02846C7
:103BB000BDE8F08170B5044600680025C16821F0B9
:103BC0008001C16020688068800606D42046FEF728
:103BD0003DFD10B1042060770125284670BD00002E
:103BE00010B586B0044614216846FCF7B2FD0020EB
:103BF000059034B1002269461248FEF7E5FB48B94A
:103C000002E0062006B010BD002205A90D48FEF70F
:103C1000B9FB08B10120F5E79DF8170000F5FA603F
:103C200020809DF81500A0709DF81600E0709DF8AA
:103C3000000020719DF8010060719DF80200A071E4
:103C40000020DFE7300100201CB500210A48FEF704
:103C50008FFB4AF2A554A0420CD00849D1E90001DB
:103C6000CDE90001684600F00BF822460021024829
:103C7000FEF783FB00201CBD3001002060470008D8
:103C800010B586B0044614216846FCF762FD00209A
:103C900005903CB12188B1F5FA6F03D340F63302A9
:103CA000914202D9062006B010BD21798DF800108E
:103CB00061798DF80110A1798DF8021003900490BC
:103CC000002269460D48FEF761FCA0B92078002269
:103CD000A0F5FA608DF81700A0788DF81500E0784F
:103CE0008DF8160001208DF8140005A90348FEF791
:103CF00001FC0028D7D00120D5E7000030010020CA
:103D000000F03EB830B587B014216846FCF721FDBD
:103D1000184C207810B1002007B030BD164801685B
:103D200041F002010160006800F0020005901248B5
:103D30001430016841F4805101600068012500F4ED
:103D400080500590382000900220CDE90105032025
:103D500003900520049069460848FDF789FA00237E
:103D60001A461946102000F00BF808B10120D3E7DD
:103D70002570D0E71C0000203038024000040240CB
:103D800070B50F4C0D4D04F11C0625604FF4827583
:103D900065600025A560E560C4E904234FF4007266
:103DA000A26186E823000720C4E90A502046FEF7F6
:103DB0008CFC002800D0012070BD000000300140C4
:103DC000A403002000231A461946FFF7D9BF0000BC
:103DD00008B5009313460A4601460348FEF708FD5E
:103DE000002800D0012008BDA4030020F8B5154626
:103DF0000E460B46009204460122022100F02CF8E8
:103E0000A0B9134813490068B0FBF1F04FF47A7180
:103E1000484300906068B0F5827F0DD133460022A0
:103E200080212046009500F017F870B1606D40F0D9
:103E3000200060650320F8BD009830B1401E00905E
:103E400020688068C0430006F6D50020F8BD000059
:103E50001800002000366E012DE9F8431E469146F9
:103E600088460446089DFDF72BFB401B351AFDF7DD
:103E700027FB074626480068C0F3CB3068430AE0BA
:103E8000701C09D0FDF71CFBC01BA8420FD275B1F6
:103E90000098B8B3401E00902068816838EA01009D
:103EA00033D000214945EBD10020BDE8F8832068DC
:103EB000416821F0E00141606068B0F5827F0BD17C
:103EC000A068B0F5004F02D0B0F5806F04D1206833
:103ED000016821F040010160A06AB0F5005F09D1DE
:103EE0002068016821F4005101602068016841F4F4
:103EF00000510160012084F85100002084F8500036
:103F00000320D2E7FFE70025C6E70121CAE700004A
:103F1000180000207047FDF727BC000030B593B0B3
:103F200030216846FCF715FC14210CA8FCF711FCA5
:103F300021480025016841F080510160006800F0CF
:103F4000805011901D48016841F4404101600068B3
:103F5000022400F440401190052000904FF480307E
:103F60000190012002908005CDE9064008AA0420B6
:103F7000B42182E813000B906846FEF743F808B1BD
:103F800072B6FEE7FDF7DCFD08B172B6FEE70CA9DC
:103F90000F2081E831004FF4A0500F904FF4805073
:103FA000109005210CA8FDF72FFF08B172B6FEE7AF
:103FB000FDF7C4FF13B030BD403802400070004030
:103FC0000248016841F470010160704788ED00E02B
:103FD0000148FEF7F0BD0000F0010020F0B50268D6
:103FE000274B284D284E294F294C4FF0804C9842A2
:103FF00009D0604507D0A84205D0B04203D0B842EE
:1040000001D0A04204D122F0700E4A6842EA0E02AA
:1040100098421BD0604519D0A84217D0B04215D0A5
:10402000B84213D0A04211D01A4DA8420ED01A4D5A
:10403000A8420BD0194DA84208D0194DA84205D06E
:10404000184DA84202D0184DA84203D122F4407561
:10405000CA682A434D6922F080022A438D68C562EE
:104060000D688562984201D0A04201D109690163BF
:10407000016841F004010160012141610260F0BD6D
:10408000000001400004004000080040000C004017
:10409000000401400040014000440140004801404C
:1040A00000180040001C00400020004010B501F046
:1040B0001F030121046A99408C430462016A9A40FB
:1040C0001143016210BD0000F0B5036A026A22F0DC
:1040D0000102026242688469124E24F073050C6882
:1040E0002C4323F002058B682B430D4DA84201D0D1
:1040F000B04205D123F00807CB683B4323F004030B
:10410000A84201D0B04205D14D6922F44072154356
:104110008A692A4342608461496841630362F0BD51
:104120000000014000040140F0B5026A036A23F078
:1041300010030362436884690D6824F4E64444EA8A
:1041400005248D6822F0200242EA05120F4D104E20
:10415000A84201D0B04206D1CF6822F0800242EAE4
:10416000071222F04002A84201D0B04207D14D69A7
:1041700023F4406343EA85038D6943EA8503436082
:104180008461496881630262F0BD00000000014063
:1041900000040140F0B5026A036A23F480730362ED
:1041A0004368C46922F4007224F073050C68124E4F
:1041B0002C438D6842EA05220E4DA84201D0B04240
:1041C00006D1CF6822F4006242EA072222F480621C
:1041D000A84201D0B04207D14D6923F4405343EACD
:1041E00005138D6943EA05134360C4614968C163DF
:1041F0000262F0BD000001400004014030B5046AD5
:10420000026A22F4805202624268C3690D6823F494
:10421000E64343EA05238D6824F4005444EA053458
:10422000084DA84202D0084DA84204D14D6922F49D
:10423000804242EA85124260C361496801640462B7
:1042400030BD000000000140000401400122802137
:104250000148FDF72FB90000000C024010B500F036
:1042600057F8BDE81040D02000F036B830B587B020
:1042700014216846FCF76DFA14480024016841F0E7
:1042800008010160016801F008010591016841F031
:10429000400101600068012500F040000590802089
:1042A0000090CDE90154694609480394FCF7E0FF0A
:1042B000FFF7CCFF68028DE831006946054803949A
:1042C000FCF7D6FF07B0002030BD000030380240B8
:1042D000000C0240001802401CB5002100918DF82E
:1042E00000000A46019180210848FDF7E3F83223D7
:1042F000032201A96846FFF76BFDFFF7A7FFBDF892
:10430000050040BAC0F3CB001CBD0000000C024009
:1043100010B52820FFF756FD002800D0012010BD61
:104320000148FEF757BE00003802002010B5806B30
:104330000021C185FEF74CFE10BD01680C3151E82B
:10434000002F22F4907241E80023002BF5D1016880
:10435000143151E8002F22F0010241E80023002B24
:10436000F5D1016B012909D101680C3151E8002F09
:1043700022F0100241E80023002BF5D1202180F823
:10438000421000210163704708B590F842102229BD
:1043900001D0022008BD82684FF480539A4201D1B7
:1043A000016921B1816A9A421BD04AB10AE00268D0
:1043B000816A5268C2F308020A80816A891C08E097
:1043C000026972B10268526802F07F020A70816A63
:1043D000491C8162C18D491E0904090CC18503D0A5
:1043E0001BE002685268F1E70168CA6822F0200207
:1043F000CA600168CA6822F48072CA6001684A69AA
:1044000022F001024A61202180F84210002141631C
:10441000026B012A03D0FEF7CDFF002008BD016327
:1044200001680C3151E8002F22F0100241E800230E
:10443000002BF5D101680A68D20602D50A684968DE
:104440000091818DFEF7C2FDE7E7000070B50446DC
:1044500000680169E26821F440511143016121695A
:10446000A068E26908436169114308432168CA688A
:1044700049F20C639A430243CA6020684169A26909
:1044800021F440711143416131492068884202D0D2
:104490003049884202D1FDF767FD01E0FDF754FD88
:1044A000E2690023192164253226B2F5004F6268C3
:1044B00028D0A0FB0101930F9200FBF7EFFE01460D
:1044C000B0FBF5F06FF01802504301EB800006EBF3
:1044D0000010B0FBF5F000F0F002B1FBF5F002EBDC
:1044E0000012B1FBF5F06FF01803584301EB8000A8
:1044F00006EB0010B0FBF5F000F00F00216810444F
:10450000886070BDA0FB010192185B41FBF7C6FEFD
:104510000146B0FBF5F00201B1FBF5F06FF01803B6
:10452000584301EB800006EBC000B0FBF5F000F053
:10453000F80002EB4002B1FBF5F0584301EB8000BC
:1045400006EBC000B0FBF5F000F00700D6E7000076
:10455000001001400014014081628285C285002163
:104560004164222180F84210016921B10168CA68C2
:1045700042F48072CA6001684A6942F001024A61ED
:104580000068C16841F02001C160002070472DE93A
:10459000F843984617460D460446089E24E0701CD2
:1045A00022D0FCF78DFFA0EB0800B0421AD8CEB1A4
:1045B0002068C168490717D5802D15D0402D13D02C
:1045C0000168C94309070FD40168002540680090BD
:1045D0002046FFF7B2FE0820606484F840500120B6
:1045E000BDE8F8830320FBE72068006835EA000097
:1045F00004D00020B842D2D00020F1E70120F9E732
:10460000FEE70907090E002804DB00F1E02080F82E
:104610000014704700F00F0000F1E02080F8141D36
:10462000704730380A2801D20120704700207047B7
:104630000EB5FDF7A1F8FFF771FCFFF747F8384812
:104640000024016841F4001101600068224600F472
:104650000010029021460E20FDF740FA0E20FDF7D3
:104660002FFAFFF75BF9FFF705F8FFF72BF9FFF7D4
:104670000BFA2D482B494FF4E1350160C0E9015494
:104680000C26C460C0E904468461C461FEF7E2FD03
:1046900008B172B6FEE7FFF717FAFFF7ADF9224847
:1046A00022499038016042F22731C0E9011440F2FA
:1046B000E731C0E9031480218161FEF7EFF908B109
:1046C00072B6FEE718481A4948380160C0E901543B
:1046D000C460C0E904468461C461FEF7BBFD08B153
:1046E00072B6FEE710489038FEF724FAFCF72AF974
:1046F0003220FCF77BF9FFF7A7FA6846FFF770FA5C
:10470000FFF700FBFEF7AAFEFFF7B0FDFFF7A6FDDF
:1047100005484838FCF7F6F9FCF7C4FAFCE7000056
:10472000303802400010014080020020002000408C
:10473000007800404FF04070E1EE100A704700062C
:104740001016000610160000000000000000010214
:10475000030406070809000000000102030400002A
:10476000EA07010100000000000000001F00000037
:104770003B0000005A000000780000009700000095
:10478000B5000000D4000000F3000000110100009B
:10479000300100004E01000004000008000000008D
:1047A000000000020001000010000000CC470008DB
:1047B0000000002034000000E80100080048000864
:1047C00034000020CC450000040200080000000076
:1047D00000000000000000000100000010000000C8
:1047E000000000000024F4000000000000000000B1
:1047F00000000000000000000000000000000000B9
:04000005080001AD41
:00000001FF
